{
	"data": {
		"bytecode": {
			"linkReferences": {},
			"object": "60a06040523073ffffffffffffffffffffffffffffffffffffffff1660809073ffffffffffffffffffffffffffffffffffffffff16815250348015610042575f80fd5b5061005161005660201b60201c565b6101b6565b5f61006561015460201b60201c565b9050805f0160089054906101000a900460ff16156100af576040517ff92ee8a900000000000000000000000000000000000000000000000000000000815260040160405180910390fd5b67ffffffffffffffff8016815f015f9054906101000a900467ffffffffffffffff1667ffffffffffffffff16146101515767ffffffffffffffff815f015f6101000a81548167ffffffffffffffff021916908367ffffffffffffffff1602179055507fc7f505b2f371ae2175ee4913f4499e1f2633a7b5936321eed1cdaeb6115181d267ffffffffffffffff604051610148919061019d565b60405180910390a15b50565b5f7ff0c57e16840df040f15088dc2f81fe391c3923bec73e23a9662efc9c229c6a00905090565b5f67ffffffffffffffff82169050919050565b6101978161017b565b82525050565b5f6020820190506101b05f83018461018e565b92915050565b60805161500f6101dc5f395f818161292d015281816129820152612b5f015261500f5ff3fe6080604052600436106102c8575f3560e01c806370a0823111610174578063a217fddf116100db578063bc6d238a11610094578063dd62ed3e1161006e578063dd62ed3e14610b0b578063e63ab1e914610b47578063eaff9f5014610b71578063f72c0d8b14610b9b576102c8565b8063bc6d238a14610a8f578063d539139314610ab9578063d547741f14610ae3576102c8565b8063a217fddf14610973578063a62af7481461099d578063a9059cbb146109d9578063ad3cb1cc14610a15578063b3bd268e14610a3f578063b4809c9814610a67576102c8565b8063870bd30b1161012d578063870bd30b146108675780638a42a4e1146108915780638bf95298146108bb57806391d14854146108e357806395d89b411461091f57806398c4f1ac14610949576102c8565b806370a082311461074b57806374a5fac71461078757806374cbcb52146107af57806377510da5146107eb5780637e102ffb146108155780638456cb5914610851576102c8565b806328e23ea911610233578063358acb5c116101ec5780634f1ef286116101c65780634f1ef286146106b157806352d1902d146106cd5780635c120dbc146106f75780635c975abb14610721576102c8565b8063358acb5c1461064957806336568abe146106735780633f4ba83a1461069b576102c8565b806328e23ea91461052c5780632b3e5dd0146105685780632f2ff15d146105a5578063313ce567146105cd5780633263d034146105f757806332fb61db1461061f576102c8565b806309a422d81161028557806309a422d8146103fc57806318160ddd146104265780631fe36636146104505780632061a2821461048c57806323b872dd146104b4578063248a9ca3146104f0576102c8565b806301ffc9a7146102cc578063030bfe1a1461030857806306f1f3321461034457806306fdde031461036c57806307a33d9514610396578063095ea7b3146103c0575b5f80fd5b3480156102d7575f80fd5b506102f260048036038101906102ed91906137db565b610bc5565b6040516102ff9190613820565b60405180910390f35b348015610313575f80fd5b5061032e6004803603810190610329919061389a565b610c3e565b60405161033b9190613a89565b60405180910390f35b34801561034f575f80fd5b5061036a60048036038101906103659190613b28565b610d9f565b005b348015610377575f80fd5b50610380610f4a565b60405161038d9190613c0b565b60405180910390f35b3480156103a1575f80fd5b506103aa610fe8565b6040516103b79190613c43565b60405180910390f35b3480156103cb575f80fd5b506103e660048036038101906103e19190613c86565b610fee565b6040516103f39190613820565b60405180910390f35b348015610407575f80fd5b50610410611010565b60405161041d9190613c43565b60405180910390f35b348015610431575f80fd5b5061043a611016565b6040516104479190613c43565b60405180910390f35b34801561045b575f80fd5b5061047660048036038101906104719190613cfa565b61102d565b6040516104839190613c43565b60405180910390f35b348015610497575f80fd5b506104b260048036038101906104ad9190613d38565b6110c0565b005b3480156104bf575f80fd5b506104da60048036038101906104d59190613de9565b61144f565b6040516104e79190613820565b60405180910390f35b3480156104fb575f80fd5b5061051660048036038101906105119190613e6c565b61147d565b6040516105239190613ea6565b60405180910390f35b348015610537575f80fd5b50610552600480360381019061054d9190613ebf565b6114a7565b60405161055f9190613c43565b60405180910390f35b348015610573575f80fd5b5061058e60048036038101906105899190614012565b6114cc565b60405161059c9291906140c3565b60405180910390f35b3480156105b0575f80fd5b506105cb60048036038101906105c691906140f1565b6115c3565b005b3480156105d8575f80fd5b506105e16115e5565b6040516105ee919061413e565b60405180910390f35b348015610602575f80fd5b5061061d60048036038101906106189190614181565b6115ed565b005b34801561062a575f80fd5b5061063361172b565b6040516106409190613c43565b60405180910390f35b348015610654575f80fd5b5061065d611731565b60405161066a91906141d1565b60405180910390f35b34801561067e575f80fd5b50610699600480360381019061069491906140f1565b611756565b005b3480156106a6575f80fd5b506106af6117d1565b005b6106cb60048036038101906106c69190614288565b611806565b005b3480156106d8575f80fd5b506106e1611825565b6040516106ee9190613ea6565b60405180910390f35b348015610702575f80fd5b5061070b611856565b6040516107189190613ea6565b60405180910390f35b34801561072c575f80fd5b5061073561187a565b6040516107429190613820565b60405180910390f35b348015610756575f80fd5b50610771600480360381019061076c91906142e2565b61189c565b60405161077e9190613c43565b60405180910390f35b348015610792575f80fd5b506107ad60048036038101906107a891906142e2565b6118ef565b005b3480156107ba575f80fd5b506107d560048036038101906107d09190614012565b611ae0565b6040516107e29190613c43565b60405180910390f35b3480156107f6575f80fd5b506107ff611c95565b60405161080c9190613c43565b60405180910390f35b348015610820575f80fd5b5061083b6004803603810190610836919061430d565b611c9a565b6040516108489190613c43565b60405180910390f35b34801561085c575f80fd5b50610865611cc3565b005b348015610872575f80fd5b5061087b611cf8565b6040516108889190613820565b60405180910390f35b34801561089c575f80fd5b506108a5611d0a565b6040516108b29190613c43565b60405180910390f35b3480156108c6575f80fd5b506108e160048036038101906108dc919061434b565b611d10565b005b3480156108ee575f80fd5b50610909600480360381019061090491906140f1565b611ed7565b6040516109169190613820565b60405180910390f35b34801561092a575f80fd5b50610933611f48565b6040516109409190613c0b565b60405180910390f35b348015610954575f80fd5b5061095d611fe6565b60405161096a9190613ea6565b60405180910390f35b34801561097e575f80fd5b5061098761200a565b6040516109949190613ea6565b60405180910390f35b3480156109a8575f80fd5b506109c360048036038101906109be91906143b7565b612010565b6040516109d09190613c43565b60405180910390f35b3480156109e4575f80fd5b506109ff60048036038101906109fa9190613c86565b612062565b604051610a0c9190613820565b60405180910390f35b348015610a20575f80fd5b50610a29612084565b604051610a369190613c0b565b60405180910390f35b348015610a4a575f80fd5b50610a656004803603810190610a609190613cfa565b6120bd565b005b348015610a72575f80fd5b50610a8d6004803603810190610a889190613cfa565b6121e1565b005b348015610a9a575f80fd5b50610aa36122c8565b604051610ab09190613c43565b60405180910390f35b348015610ac4575f80fd5b50610acd6122ce565b604051610ada9190613ea6565b60405180910390f35b348015610aee575f80fd5b50610b096004803603810190610b0491906140f1565b6122f2565b005b348015610b16575f80fd5b50610b316004803603810190610b2c9190614407565b612314565b604051610b3e9190613c43565b60405180910390f35b348015610b52575f80fd5b50610b5b6123a4565b604051610b689190613ea6565b60405180910390f35b348015610b7c575f80fd5b50610b856123c8565b604051610b929190613c43565b60405180910390f35b348015610ba6575f80fd5b50610baf6123ce565b604051610bbc9190613ea6565b60405180910390f35b5f7f7965db0b000000000000000000000000000000000000000000000000000000007bffffffffffffffffffffffffffffffffffffffffffffffffffffffff1916827bffffffffffffffffffffffffffffffffffffffffffffffffffffffff19161480610c375750610c36826123f2565b5b9050919050565b606060098383604051610c52929190614473565b9081526020016040518091039020805480602002602001604051908101604052809291908181526020015f905b82821015610d93578382905f5260205f2090600202016040518060400160405290815f82015f9054906101000a900473ffffffffffffffffffffffffffffffffffffffff1673ffffffffffffffffffffffffffffffffffffffff1673ffffffffffffffffffffffffffffffffffffffff168152602001600182018054610d04906144b8565b80601f0160208091040260200160405190810160405280929190818152602001828054610d30906144b8565b8015610d7b5780601f10610d5257610100808354040283529160200191610d7b565b820191905f5260205f20905b815481529060010190602001808311610d5e57829003601f168201915b50505050508152505081526020019060010190610c7f565b50505050905092915050565b60408282905014610de95781816040517f79354dda000000000000000000000000000000000000000000000000000000008152600401610de0929190614514565b60405180910390fd5b60308585905014610e335784846040517f30614a0b000000000000000000000000000000000000000000000000000000008152600401610e2a929190614562565b60405180910390fd5b60098585604051610e45929190614473565b908152602001604051809103902060405180604001604052808573ffffffffffffffffffffffffffffffffffffffff16815260200184848080601f0160208091040260200160405190810160405280939291908181526020018383808284375f81840152601f19601f82011690508083019250505050505050815250908060018154018082558091505060019003905f5260205f2090600202015f909190919091505f820151815f015f6101000a81548173ffffffffffffffffffffffffffffffffffffffff021916908373ffffffffffffffffffffffffffffffffffffffff1602179055506020820151816001019081610f409190614721565b5050505050505050565b60605f610f5561245b565b9050806003018054610f66906144b8565b80601f0160208091040260200160405190810160405280929190818152602001828054610f92906144b8565b8015610fdd5780601f10610fb457610100808354040283529160200191610fdd565b820191905f5260205f20905b815481529060010190602001808311610fc057829003601f168201915b505050505091505090565b60055481565b5f80610ff8612482565b9050611005818585612489565b600191505092915050565b60045481565b5f8061102061245b565b9050806002015491505090565b5f808311801561104057505f8260ff1610155b8015611050575060128260ff1611155b61108f576040517f08c379a000000000000000000000000000000000000000000000000000000000815260040161108690614860565b60405180910390fd5b5f82601261109d91906148ab565b600a6110a99190614a0e565b846110b49190614a58565b90508091505092915050565b5f6110c961249b565b90505f815f0160089054906101000a900460ff161590505f825f015f9054906101000a900467ffffffffffffffff1690505f808267ffffffffffffffff161480156111115750825b90505f60018367ffffffffffffffff1614801561114457505f3073ffffffffffffffffffffffffffffffffffffffff163b145b905081158015611152575080155b15611189576040517ff92ee8a900000000000000000000000000000000000000000000000000000000815260040160405180910390fd5b6001855f015f6101000a81548167ffffffffffffffff021916908367ffffffffffffffff16021790555083156111d6576001855f0160086101000a81548160ff0219169083151502179055505b61124a6040518060400160405280600a81526020017f5374616b65642054616f000000000000000000000000000000000000000000008152506040518060400160405280600481526020017f7354414f000000000000000000000000000000000000000000000000000000008152506124c2565b6112526124d8565b61125a6124ea565b6112626124f4565b61126a612506565b6112765f801b8e612510565b506112a17f65d7a28e3265b37a6474929f336521b332c1681b933f6cb9f3376673440d862a8d612510565b506112cc7f9f2df0fed2c77648de5860a4cc508cd0818c85b8b8a1ab4ceeef8d981c8956a68c612510565b506112f77f189ab7a9244df0848122154315af71fe140f3db0fe014031783b0946b8c9d2e38b612510565b506113227f31e0210044b4f6757ce6aa31f9c6e8d4896d24a755014887391a926c5224d9598a612510565b5061134d7f0f3675dcbb04499f4591cf48a7628dbc749eb3eec89667918130c01f5db73e0889612510565b505f80819055505f61135f888861102d565b905080600381905550806004819055508060058190555042600781905550611386816114a7565b6006819055508960085f6101000a81548173ffffffffffffffffffffffffffffffffffffffff021916908373ffffffffffffffffffffffffffffffffffffffff1602179055505f60015f6101000a81548160ff021916908315150217905550508315611440575f855f0160086101000a81548160ff0219169083151502179055507fc7f505b2f371ae2175ee4913f4499e1f2633a7b5936321eed1cdaeb6115181d260016040516114379190614ae5565b60405180910390a15b50505050505050505050505050565b5f80611459612482565b9050611466858285612608565b61147185858561269a565b60019150509392505050565b5f8061148761278a565b9050805f015f8481526020019081526020015f2060010154915050919050565b5f81701d6329f1c35ca4bfabb9f56100000000006114c59190614b2b565b9050919050565b60098280516020810182018051848252602083016020850120818352809550505050505081815481106114fd575f80fd5b905f5260205f2090600202015f9150915050805f015f9054906101000a900473ffffffffffffffffffffffffffffffffffffffff1690806001018054611542906144b8565b80601f016020809104026020016040519081016040528092919081815260200182805461156e906144b8565b80156115b95780601f10611590576101008083540402835291602001916115b9565b820191905f5260205f20905b81548152906001019060200180831161159c57829003601f168201915b5050505050905082565b6115cc8261147d565b6115d5816127b1565b6115df8383612510565b50505050565b5f6012905090565b7f0f3675dcbb04499f4591cf48a7628dbc749eb3eec89667918130c01f5db73e08611617816127b1565b5f84101561165c57836040517f419223380000000000000000000000000000000000000000000000000000000081526004016116539190613c43565b60405180910390fd5b611666848461102d565b5f819055506001670de0b6b3a76400005f546116829190614b2b565b106116c457836040517f419223380000000000000000000000000000000000000000000000000000000081526004016116bb9190613c43565b60405180910390fd5b8160015f6101000a81548160ff0219169083151502179055507f36a04c671e06e9ba33c547a67dfec6ba6b8e37b4237afde2f76d62d6db11d6c75f5460015f9054906101000a900460ff1660405161171d929190614b5b565b60405180910390a150505050565b60075481565b60085f9054906101000a900473ffffffffffffffffffffffffffffffffffffffff1681565b61175e612482565b73ffffffffffffffffffffffffffffffffffffffff168173ffffffffffffffffffffffffffffffffffffffff16146117c2576040517f6697b23200000000000000000000000000000000000000000000000000000000815260040160405180910390fd5b6117cc82826127c5565b505050565b7f65d7a28e3265b37a6474929f336521b332c1681b933f6cb9f3376673440d862a6117fb816127b1565b6118036128bd565b50565b61180e61292b565b61181782612a11565b6118218282612a3f565b5050565b5f61182e612b5d565b7f360894a13ba1a3210667c828492db98dca3e2076cc3735a920a3ca505d382bbc5f1b905090565b7f0f3675dcbb04499f4591cf48a7628dbc749eb3eec89667918130c01f5db73e0881565b5f80611884612be4565b9050805f015f9054906101000a900460ff1691505090565b5f806118a661245b565b9050805f015f8473ffffffffffffffffffffffffffffffffffffffff1673ffffffffffffffffffffffffffffffffffffffff1681526020019081526020015f2054915050919050565b7f31e0210044b4f6757ce6aa31f9c6e8d4896d24a755014887391a926c5224d959611919816127b1565b611921612c0b565b61197660085f9054906101000a900473ffffffffffffffffffffffffffffffffffffffff168361197160085f9054906101000a900473ffffffffffffffffffffffffffffffffffffffff1661189c565b61269a565b6119c17f31e0210044b4f6757ce6aa31f9c6e8d4896d24a755014887391a926c5224d95960085f9054906101000a900473ffffffffffffffffffffffffffffffffffffffff166127c5565b506119ec7f31e0210044b4f6757ce6aa31f9c6e8d4896d24a755014887391a926c5224d95983612510565b508173ffffffffffffffffffffffffffffffffffffffff1660085f9054906101000a900473ffffffffffffffffffffffffffffffffffffffff1673ffffffffffffffffffffffffffffffffffffffff167f4bb16579469c3432ab333c964141459ecd476dacc8d57352e9541551fbdefe49611a8760085f9054906101000a900473ffffffffffffffffffffffffffffffffffffffff1661189c565b604051611a949190613c43565b60405180910390a38160085f6101000a81548173ffffffffffffffffffffffffffffffffffffffff021916908373ffffffffffffffffffffffffffffffffffffffff1602179055505050565b5f611ae9612c4b565b611af1612c8c565b611afa83612ce0565b505f8211611b3d576040517f08c379a0000000000000000000000000000000000000000000000000000000008152600401611b3490614bcc565b60405180910390fd5b81611b473361189c565b1015611b8a57816040517f4219110a000000000000000000000000000000000000000000000000000000008152600401611b819190613c43565b60405180910390fd5b5f8290505f60015f9054906101000a900460ff1615611bb157611bae5f5483611c9a565b90505b5f8183611bbe9190614bea565b90505f821115611bf557611bf43360085f9054906101000a900473ffffffffffffffffffffffffffffffffffffffff168461269a565b5b611bff3382612d30565b5f611c0c60035483611c9a565b90503373ffffffffffffffffffffffffffffffffffffffff167f1c97169f95d78c21200a4ff20da4f627e8ae48c3ca16763220e5d64c1d392ca4858585856040518060600160405280428152602001438152602001600754815250604051611c78959493929190614c6c565b60405180910390a280945050505050611c8f612daf565b92915050565b5f5481565b5f68056bc75e2d631000008284611cb19190614a58565b611cbb9190614b2b565b905092915050565b7f65d7a28e3265b37a6474929f336521b332c1681b933f6cb9f3376673440d862a611ced816127b1565b611cf5612dc6565b50565b60015f9054906101000a900460ff1681565b60065481565b7f9f2df0fed2c77648de5860a4cc508cd0818c85b8b8a1ab4ceeef8d981c8956a6611d3a816127b1565b611d42612c4b565b611d4b82612ce0565b505f8311611d8e576040517f08c379a0000000000000000000000000000000000000000000000000000000008152600401611d8590614bcc565b60405180910390fd5b5f611d9b60065485611c9a565b03611ddd57826040517ffd009a99000000000000000000000000000000000000000000000000000000008152600401611dd49190613c43565b60405180910390fd5b5f611dea60065485611c9a565b90505f60015f9054906101000a900460ff1615611e0f57611e0c5f5483611c9a565b90505b5f8183611e1c9190614bea565b9050611e288782612e35565b5f821115611e5c57611e5b60085f9054906101000a900473ffffffffffffffffffffffffffffffffffffffff1683612e35565b5b8673ffffffffffffffffffffffffffffffffffffffff167f89755dc2275d1563cc2788adc9cfe83496ffca7290b7d42d7f8708d5e8181727868585856040518060600160405280428152602001438152602001600754815250604051611ec6959493929190614cbd565b60405180910390a250505050505050565b5f80611ee161278a565b9050805f015f8581526020019081526020015f205f015f8473ffffffffffffffffffffffffffffffffffffffff1673ffffffffffffffffffffffffffffffffffffffff1681526020019081526020015f205f9054906101000a900460ff1691505092915050565b60605f611f5361245b565b9050806004018054611f64906144b8565b80601f0160208091040260200160405190810160405280929190818152602001828054611f90906144b8565b8015611fdb5780601f10611fb257610100808354040283529160200191611fdb565b820191905f5260205f20905b815481529060010190602001808311611fbe57829003601f168201915b505050505091505090565b7f31e0210044b4f6757ce6aa31f9c6e8d4896d24a755014887391a926c5224d95981565b5f801b81565b5f80848461201e9190614bea565b90505f848461202d9190614bea565b90505f6002828461203e9190614d15565b6120489190614b2b565b905080856120569190614d15565b93505050509392505050565b5f8061206c612482565b905061207981858561269a565b600191505092915050565b6040518060400160405280600581526020017f352e302e3000000000000000000000000000000000000000000000000000000081525081565b7f0f3675dcbb04499f4591cf48a7628dbc749eb3eec89667918130c01f5db73e086120e7816127b1565b5f83101561212c57826040517f419223380000000000000000000000000000000000000000000000000000000081526004016121239190613c43565b60405180910390fd5b612136838361102d565b5f819055506001670de0b6b3a76400005f546121529190614b2b565b1061219457826040517f4192233800000000000000000000000000000000000000000000000000000000815260040161218b9190613c43565b60405180910390fd5b7f36a04c671e06e9ba33c547a67dfec6ba6b8e37b4237afde2f76d62d6db11d6c75f5460015f9054906101000a900460ff166040516121d4929190614b5b565b60405180910390a1505050565b7f0f3675dcbb04499f4591cf48a7628dbc749eb3eec89667918130c01f5db73e0861220b816127b1565b600454600581905550600354600481905550612227838361102d565b60038190555061223e600554600454600354612010565b60068190555061224f6006546114a7565b600681905550426007819055507fb5ded381da928b10a8c0faf0d344948097703d870eae50a5d35da81929f05bd96040518060a0016040528060055481526020016004548152602001600354815260200160065481526020016007548152506040516122bb9190614dae565b60405180910390a1505050565b60025481565b7f9f2df0fed2c77648de5860a4cc508cd0818c85b8b8a1ab4ceeef8d981c8956a681565b6122fb8261147d565b612304816127b1565b61230e83836127c5565b50505050565b5f8061231e61245b565b9050806001015f8573ffffffffffffffffffffffffffffffffffffffff1673ffffffffffffffffffffffffffffffffffffffff1681526020019081526020015f205f8473ffffffffffffffffffffffffffffffffffffffff1673ffffffffffffffffffffffffffffffffffffffff1681526020019081526020015f205491505092915050565b7f65d7a28e3265b37a6474929f336521b332c1681b933f6cb9f3376673440d862a81565b60035481565b7f189ab7a9244df0848122154315af71fe140f3db0fe014031783b0946b8c9d2e381565b5f7f01ffc9a7000000000000000000000000000000000000000000000000000000007bffffffffffffffffffffffffffffffffffffffffffffffffffffffff1916827bffffffffffffffffffffffffffffffffffffffffffffffffffffffff1916149050919050565b5f7f52c63247e1f47db19d5ce0460030c497f067ca4cebf71ba98eeadabe20bace00905090565b5f33905090565b6124968383836001612eb4565b505050565b5f7ff0c57e16840df040f15088dc2f81fe391c3923bec73e23a9662efc9c229c6a00905090565b6124ca613091565b6124d482826130d1565b5050565b6124e0613091565b6124e861310d565b565b6124f2613091565b565b6124fc613091565b61250461313d565b565b61250e613091565b565b5f8061251a61278a565b90506125268484611ed7565b6125fd576001815f015f8681526020019081526020015f205f015f8573ffffffffffffffffffffffffffffffffffffffff1673ffffffffffffffffffffffffffffffffffffffff1681526020019081526020015f205f6101000a81548160ff021916908315150217905550612599612482565b73ffffffffffffffffffffffffffffffffffffffff168373ffffffffffffffffffffffffffffffffffffffff16857f2f8788117e7eff1d82e926ec794901d17c78024a50270940304540a733656f0d60405160405180910390a46001915050612602565b5f9150505b92915050565b5f6126138484612314565b90507fffffffffffffffffffffffffffffffffffffffffffffffffffffffffffffffff81146126945781811015612685578281836040517ffb8f41b200000000000000000000000000000000000000000000000000000000815260040161267c93929190614dc7565b60405180910390fd5b61269384848484035f612eb4565b5b50505050565b5f73ffffffffffffffffffffffffffffffffffffffff168373ffffffffffffffffffffffffffffffffffffffff160361270a575f6040517f96c6fd1e00000000000000000000000000000000000000000000000000000000815260040161270191906141d1565b60405180910390fd5b5f73ffffffffffffffffffffffffffffffffffffffff168273ffffffffffffffffffffffffffffffffffffffff160361277a575f6040517fec442f0500000000000000000000000000000000000000000000000000000000815260040161277191906141d1565b60405180910390fd5b61278583838361315c565b505050565b5f7f02dd7bc7dec4dceedda775e58dd541e08a116c6c53815c0bd028192f7b626800905090565b6127c2816127bd612482565b613174565b50565b5f806127cf61278a565b90506127db8484611ed7565b156128b2575f815f015f8681526020019081526020015f205f015f8573ffffffffffffffffffffffffffffffffffffffff1673ffffffffffffffffffffffffffffffffffffffff1681526020019081526020015f205f6101000a81548160ff02191690831515021790555061284e612482565b73ffffffffffffffffffffffffffffffffffffffff168373ffffffffffffffffffffffffffffffffffffffff16857ff6391f5c32d9c69d2a47ea670b442974b53935d1edc7fd64eb21e047a839171b60405160405180910390a460019150506128b7565b5f9150505b92915050565b6128c5612c0b565b5f6128ce612be4565b90505f815f015f6101000a81548160ff0219169083151502179055507f5db9ee0a495bf2e6ff9c91a7834c1ba4fdd244a5e8aa4e537bd38aeae4b073aa612913612482565b60405161292091906141d1565b60405180910390a150565b7f000000000000000000000000000000000000000000000000000000000000000073ffffffffffffffffffffffffffffffffffffffff163073ffffffffffffffffffffffffffffffffffffffff1614806129d857507f000000000000000000000000000000000000000000000000000000000000000073ffffffffffffffffffffffffffffffffffffffff166129bf6131c5565b73ffffffffffffffffffffffffffffffffffffffff1614155b15612a0f576040517fe07c8dba00000000000000000000000000000000000000000000000000000000815260040160405180910390fd5b565b7f189ab7a9244df0848122154315af71fe140f3db0fe014031783b0946b8c9d2e3612a3b816127b1565b5050565b8173ffffffffffffffffffffffffffffffffffffffff166352d1902d6040518163ffffffff1660e01b8152600401602060405180830381865afa925050508015612aa757506040513d601f19601f82011682018060405250810190612aa49190614e10565b60015b612ae857816040517f4c9c8ce3000000000000000000000000000000000000000000000000000000008152600401612adf91906141d1565b60405180910390fd5b7f360894a13ba1a3210667c828492db98dca3e2076cc3735a920a3ca505d382bbc5f1b8114612b4e57806040517faa1d49a4000000000000000000000000000000000000000000000000000000008152600401612b459190613ea6565b60405180910390fd5b612b588383613218565b505050565b7f000000000000000000000000000000000000000000000000000000000000000073ffffffffffffffffffffffffffffffffffffffff163073ffffffffffffffffffffffffffffffffffffffff1614612be2576040517fe07c8dba00000000000000000000000000000000000000000000000000000000815260040160405180910390fd5b565b5f7fcd5ed15c6e187e77e9aee88184c21f4f2182ab5827cb3b7e07fbedcd63f03300905090565b612c1361187a565b612c49576040517f8dfc202b00000000000000000000000000000000000000000000000000000000815260040160405180910390fd5b565b612c5361187a565b15612c8a576040517fd93c066500000000000000000000000000000000000000000000000000000000815260040160405180910390fd5b565b5f612c9561328a565b90506002815f015403612cd4576040517f3ee5aeb500000000000000000000000000000000000000000000000000000000815260040160405180910390fd5b6002815f018190555050565b5f6030825114612d2757816040517fba7e77a4000000000000000000000000000000000000000000000000000000008152600401612d1e9190613c0b565b60405180910390fd5b60019050919050565b5f73ffffffffffffffffffffffffffffffffffffffff168273ffffffffffffffffffffffffffffffffffffffff1603612da0575f6040517f96c6fd1e000000000000000000000000000000000000000000000000000000008152600401612d9791906141d1565b60405180910390fd5b612dab825f8361315c565b5050565b5f612db861328a565b90506001815f018190555050565b612dce612c4b565b5f612dd7612be4565b90506001815f015f6101000a81548160ff0219169083151502179055507f62e78cea01bee320cd4e420270b5ea74000d11b0c9f74754ebdbfc544b05a258612e1d612482565b604051612e2a91906141d1565b60405180910390a150565b5f73ffffffffffffffffffffffffffffffffffffffff168273ffffffffffffffffffffffffffffffffffffffff1603612ea5575f6040517fec442f05000000000000000000000000000000000000000000000000000000008152600401612e9c91906141d1565b60405180910390fd5b612eb05f838361315c565b5050565b5f612ebd61245b565b90505f73ffffffffffffffffffffffffffffffffffffffff168573ffffffffffffffffffffffffffffffffffffffff1603612f2f575f6040517fe602df05000000000000000000000000000000000000000000000000000000008152600401612f2691906141d1565b60405180910390fd5b5f73ffffffffffffffffffffffffffffffffffffffff168473ffffffffffffffffffffffffffffffffffffffff1603612f9f575f6040517f94280d62000000000000000000000000000000000000000000000000000000008152600401612f9691906141d1565b60405180910390fd5b82816001015f8773ffffffffffffffffffffffffffffffffffffffff1673ffffffffffffffffffffffffffffffffffffffff1681526020019081526020015f205f8673ffffffffffffffffffffffffffffffffffffffff1673ffffffffffffffffffffffffffffffffffffffff1681526020019081526020015f2081905550811561308a578373ffffffffffffffffffffffffffffffffffffffff168573ffffffffffffffffffffffffffffffffffffffff167f8c5be1e5ebec7d5bd14f71427d1e84f3dd0314c0f7b2291e5b200ac8c7c3b925856040516130819190613c43565b60405180910390a35b5050505050565b6130996132b1565b6130cf576040517fd7e6bcf800000000000000000000000000000000000000000000000000000000815260040160405180910390fd5b565b6130d9613091565b5f6130e261245b565b9050828160030190816130f59190614e93565b50818160040190816131079190614e93565b50505050565b613115613091565b5f61311e612be4565b90505f815f015f6101000a81548160ff02191690831515021790555050565b613145613091565b5f61314e61328a565b90506001815f018190555050565b613164612c4b565b61316f8383836132cf565b505050565b61317e8282611ed7565b6131c15780826040517fe2517d3f0000000000000000000000000000000000000000000000000000000081526004016131b8929190614f62565b60405180910390fd5b5050565b5f6131f17f360894a13ba1a3210667c828492db98dca3e2076cc3735a920a3ca505d382bbc5f1b6132e7565b5f015f9054906101000a900473ffffffffffffffffffffffffffffffffffffffff16905090565b613221826132f0565b8173ffffffffffffffffffffffffffffffffffffffff167fbc7cd75a20ee27fd9adebab32041f755214dbc6bffa90cc0225b39da2e5c2d3b60405160405180910390a25f8151111561327d5761327782826133b9565b50613286565b613285613439565b5b5050565b5f7f9b779b17422d0df92223018b32b4d1fa46e071723d6817e2486d003becc55f00905090565b5f6132ba61249b565b5f0160089054906101000a900460ff16905090565b6132d7612c4b565b6132e2838383613475565b505050565b5f819050919050565b5f8173ffffffffffffffffffffffffffffffffffffffff163b0361334b57806040517f4c9c8ce300000000000000000000000000000000000000000000000000000000815260040161334291906141d1565b60405180910390fd5b806133777f360894a13ba1a3210667c828492db98dca3e2076cc3735a920a3ca505d382bbc5f1b6132e7565b5f015f6101000a81548173ffffffffffffffffffffffffffffffffffffffff021916908373ffffffffffffffffffffffffffffffffffffffff16021790555050565b60605f808473ffffffffffffffffffffffffffffffffffffffff16846040516133e29190614fc3565b5f60405180830381855af49150503d805f811461341a576040519150601f19603f3d011682016040523d82523d5f602084013e61341f565b606091505b509150915061342f8583836136a4565b9250505092915050565b5f341115613473576040517fb398979f00000000000000000000000000000000000000000000000000000000815260040160405180910390fd5b565b5f61347e61245b565b90505f73ffffffffffffffffffffffffffffffffffffffff168473ffffffffffffffffffffffffffffffffffffffff16036134d25781816002015f8282546134c69190614d15565b925050819055506135a4565b5f815f015f8673ffffffffffffffffffffffffffffffffffffffff1673ffffffffffffffffffffffffffffffffffffffff1681526020019081526020015f205490508281101561355d578481846040517fe450d38c00000000000000000000000000000000000000000000000000000000815260040161355493929190614dc7565b60405180910390fd5b828103825f015f8773ffffffffffffffffffffffffffffffffffffffff1673ffffffffffffffffffffffffffffffffffffffff1681526020019081526020015f2081905550505b5f73ffffffffffffffffffffffffffffffffffffffff168373ffffffffffffffffffffffffffffffffffffffff16036135ed5781816002015f8282540392505081905550613639565b81815f015f8573ffffffffffffffffffffffffffffffffffffffff1673ffffffffffffffffffffffffffffffffffffffff1681526020019081526020015f205f82825401925050819055505b8273ffffffffffffffffffffffffffffffffffffffff168473ffffffffffffffffffffffffffffffffffffffff167fddf252ad1be2c89b69c2b068fc378daa952ba7f163c4a11628f55a4df523b3ef846040516136969190613c43565b60405180910390a350505050565b6060826136b9576136b482613731565b613729565b5f82511480156136df57505f8473ffffffffffffffffffffffffffffffffffffffff163b145b1561372157836040517f9996b31500000000000000000000000000000000000000000000000000000000815260040161371891906141d1565b60405180910390fd5b81905061372a565b5b9392505050565b5f815111156137435780518082602001fd5b6040517f1425ea4200000000000000000000000000000000000000000000000000000000815260040160405180910390fd5b5f604051905090565b5f80fd5b5f80fd5b5f7fffffffff0000000000000000000000000000000000000000000000000000000082169050919050565b6137ba81613786565b81146137c4575f80fd5b50565b5f813590506137d5816137b1565b92915050565b5f602082840312156137f0576137ef61377e565b5b5f6137fd848285016137c7565b91505092915050565b5f8115159050919050565b61381a81613806565b82525050565b5f6020820190506138335f830184613811565b92915050565b5f80fd5b5f80fd5b5f80fd5b5f8083601f84011261385a57613859613839565b5b8235905067ffffffffffffffff8111156138775761387661383d565b5b60208301915083600182028301111561389357613892613841565b5b9250929050565b5f80602083850312156138b0576138af61377e565b5b5f83013567ffffffffffffffff8111156138cd576138cc613782565b5b6138d985828601613845565b92509250509250929050565b5f81519050919050565b5f82825260208201905092915050565b5f819050602082019050919050565b5f73ffffffffffffffffffffffffffffffffffffffff82169050919050565b5f6139378261390e565b9050919050565b6139478161392d565b82525050565b5f81519050919050565b5f82825260208201905092915050565b8281835e5f83830152505050565b5f601f19601f8301169050919050565b5f61398f8261394d565b6139998185613957565b93506139a9818560208601613967565b6139b281613975565b840191505092915050565b5f604083015f8301516139d25f86018261393e565b50602083015184820360208601526139ea8282613985565b9150508091505092915050565b5f613a0283836139bd565b905092915050565b5f602082019050919050565b5f613a20826138e5565b613a2a81856138ef565b935083602082028501613a3c856138ff565b805f5b85811015613a775784840389528151613a5885826139f7565b9450613a6383613a0a565b925060208a01995050600181019050613a3f565b50829750879550505050505092915050565b5f6020820190508181035f830152613aa18184613a16565b905092915050565b613ab28161392d565b8114613abc575f80fd5b50565b5f81359050613acd81613aa9565b92915050565b5f8083601f840112613ae857613ae7613839565b5b8235905067ffffffffffffffff811115613b0557613b0461383d565b5b602083019150836001820283011115613b2157613b20613841565b5b9250929050565b5f805f805f60608688031215613b4157613b4061377e565b5b5f86013567ffffffffffffffff811115613b5e57613b5d613782565b5b613b6a88828901613845565b95509550506020613b7d88828901613abf565b935050604086013567ffffffffffffffff811115613b9e57613b9d613782565b5b613baa88828901613ad3565b92509250509295509295909350565b5f81519050919050565b5f82825260208201905092915050565b5f613bdd82613bb9565b613be78185613bc3565b9350613bf7818560208601613967565b613c0081613975565b840191505092915050565b5f6020820190508181035f830152613c238184613bd3565b905092915050565b5f819050919050565b613c3d81613c2b565b82525050565b5f602082019050613c565f830184613c34565b92915050565b613c6581613c2b565b8114613c6f575f80fd5b50565b5f81359050613c8081613c5c565b92915050565b5f8060408385031215613c9c57613c9b61377e565b5b5f613ca985828601613abf565b9250506020613cba85828601613c72565b9150509250929050565b5f60ff82169050919050565b613cd981613cc4565b8114613ce3575f80fd5b50565b5f81359050613cf481613cd0565b92915050565b5f8060408385031215613d1057613d0f61377e565b5b5f613d1d85828601613c72565b9250506020613d2e85828601613ce6565b9150509250929050565b5f805f805f805f80610100898b031215613d5557613d5461377e565b5b5f613d628b828c01613abf565b9850506020613d738b828c01613abf565b9750506040613d848b828c01613abf565b9650506060613d958b828c01613abf565b9550506080613da68b828c01613abf565b94505060a0613db78b828c01613abf565b93505060c0613dc88b828c01613c72565b92505060e0613dd98b828c01613ce6565b9150509295985092959890939650565b5f805f60608486031215613e0057613dff61377e565b5b5f613e0d86828701613abf565b9350506020613e1e86828701613abf565b9250506040613e2f86828701613c72565b9150509250925092565b5f819050919050565b613e4b81613e39565b8114613e55575f80fd5b50565b5f81359050613e6681613e42565b92915050565b5f60208284031215613e8157613e8061377e565b5b5f613e8e84828501613e58565b91505092915050565b613ea081613e39565b82525050565b5f602082019050613eb95f830184613e97565b92915050565b5f60208284031215613ed457613ed361377e565b5b5f613ee184828501613c72565b91505092915050565b5f80fd5b7f4e487b71000000000000000000000000000000000000000000000000000000005f52604160045260245ffd5b613f2482613975565b810181811067ffffffffffffffff82111715613f4357613f42613eee565b5b80604052505050565b5f613f55613775565b9050613f618282613f1b565b919050565b5f67ffffffffffffffff821115613f8057613f7f613eee565b5b613f8982613975565b9050602081019050919050565b828183375f83830152505050565b5f613fb6613fb184613f66565b613f4c565b905082815260208101848484011115613fd257613fd1613eea565b5b613fdd848285613f96565b509392505050565b5f82601f830112613ff957613ff8613839565b5b8135614009848260208601613fa4565b91505092915050565b5f80604083850312156140285761402761377e565b5b5f83013567ffffffffffffffff81111561404557614044613782565b5b61405185828601613fe5565b925050602061406285828601613c72565b9150509250929050565b6140758161392d565b82525050565b5f82825260208201905092915050565b5f6140958261394d565b61409f818561407b565b93506140af818560208601613967565b6140b881613975565b840191505092915050565b5f6040820190506140d65f83018561406c565b81810360208301526140e8818461408b565b90509392505050565b5f80604083850312156141075761410661377e565b5b5f61411485828601613e58565b925050602061412585828601613abf565b9150509250929050565b61413881613cc4565b82525050565b5f6020820190506141515f83018461412f565b92915050565b61416081613806565b811461416a575f80fd5b50565b5f8135905061417b81614157565b92915050565b5f805f606084860312156141985761419761377e565b5b5f6141a586828701613c72565b93505060206141b686828701613ce6565b92505060406141c78682870161416d565b9150509250925092565b5f6020820190506141e45f83018461406c565b92915050565b5f67ffffffffffffffff82111561420457614203613eee565b5b61420d82613975565b9050602081019050919050565b5f61422c614227846141ea565b613f4c565b90508281526020810184848401111561424857614247613eea565b5b614253848285613f96565b509392505050565b5f82601f83011261426f5761426e613839565b5b813561427f84826020860161421a565b91505092915050565b5f806040838503121561429e5761429d61377e565b5b5f6142ab85828601613abf565b925050602083013567ffffffffffffffff8111156142cc576142cb613782565b5b6142d88582860161425b565b9150509250929050565b5f602082840312156142f7576142f661377e565b5b5f61430484828501613abf565b91505092915050565b5f80604083850312156143235761432261377e565b5b5f61433085828601613c72565b925050602061434185828601613c72565b9150509250929050565b5f805f606084860312156143625761436161377e565b5b5f61436f86828701613abf565b935050602061438086828701613c72565b925050604084013567ffffffffffffffff8111156143a1576143a0613782565b5b6143ad86828701613fe5565b9150509250925092565b5f805f606084860312156143ce576143cd61377e565b5b5f6143db86828701613c72565b93505060206143ec86828701613c72565b92505060406143fd86828701613c72565b9150509250925092565b5f806040838503121561441d5761441c61377e565b5b5f61442a85828601613abf565b925050602061443b85828601613abf565b9150509250929050565b5f81905092915050565b5f61445a8385614445565b9350614467838584613f96565b82840190509392505050565b5f61447f82848661444f565b91508190509392505050565b7f4e487b71000000000000000000000000000000000000000000000000000000005f52602260045260245ffd5b5f60028204905060018216806144cf57607f821691505b6020821081036144e2576144e161448b565b5b50919050565b5f6144f3838561407b565b9350614500838584613f96565b61450983613975565b840190509392505050565b5f6020820190508181035f83015261452d8184866144e8565b90509392505050565b5f6145418385613bc3565b935061454e838584613f96565b61455783613975565b840190509392505050565b5f6020820190508181035f83015261457b818486614536565b90509392505050565b5f819050815f5260205f209050919050565b5f6020601f8301049050919050565b5f82821b905092915050565b5f600883026145e07fffffffffffffffffffffffffffffffffffffffffffffffffffffffffffffffff826145a5565b6145ea86836145a5565b95508019841693508086168417925050509392505050565b5f819050919050565b5f61462561462061461b84613c2b565b614602565b613c2b565b9050919050565b5f819050919050565b61463e8361460b565b61465261464a8261462c565b8484546145b1565b825550505050565b5f90565b61466661465a565b614671818484614635565b505050565b5b81811015614694576146895f8261465e565b600181019050614677565b5050565b601f8211156146d9576146aa81614584565b6146b384614596565b810160208510156146c2578190505b6146d66146ce85614596565b830182614676565b50505b505050565b5f82821c905092915050565b5f6146f95f19846008026146de565b1980831691505092915050565b5f61471183836146ea565b9150826002028217905092915050565b61472a8261394d565b67ffffffffffffffff81111561474357614742613eee565b5b61474d82546144b8565b614758828285614698565b5f60209050601f831160018114614789575f8415614777578287015190505b6147818582614706565b8655506147e8565b601f19841661479786614584565b5f5b828110156147be57848901518255600182019150602085019450602081019050614799565b868310156147db57848901516147d7601f8916826146ea565b8355505b6001600288020188555050505b505050505050565b7f496e76616c69642070657263656e74616765206f7220646563696d616c2076615f8201527f6c75650000000000000000000000000000000000000000000000000000000000602082015250565b5f61484a602383613bc3565b9150614855826147f0565b604082019050919050565b5f6020820190508181035f8301526148778161483e565b9050919050565b7f4e487b71000000000000000000000000000000000000000000000000000000005f52601160045260245ffd5b5f6148b582613cc4565b91506148c083613cc4565b9250828203905060ff8111156148d9576148d861487e565b5b92915050565b5f8160011c9050919050565b5f808291508390505b6001851115614934578086048111156149105761490f61487e565b5b600185161561491f5780820291505b808102905061492d856148df565b94506148f4565b94509492505050565b5f8261494c5760019050614a07565b81614959575f9050614a07565b816001811461496f5760028114614979576149a8565b6001915050614a07565b60ff84111561498b5761498a61487e565b5b8360020a9150848211156149a2576149a161487e565b5b50614a07565b5060208310610133831016604e8410600b84101617156149dd5782820a9050838111156149d8576149d761487e565b5b614a07565b6149ea84848460016148eb565b92509050818404811115614a0157614a0061487e565b5b81810290505b9392505050565b5f614a1882613c2b565b9150614a2383613cc4565b9250614a507fffffffffffffffffffffffffffffffffffffffffffffffffffffffffffffffff848461493d565b905092915050565b5f614a6282613c2b565b9150614a6d83613c2b565b9250828202614a7b81613c2b565b91508282048414831517614a9257614a9161487e565b5b5092915050565b5f819050919050565b5f67ffffffffffffffff82169050919050565b5f614acf614aca614ac584614a99565b614602565b614aa2565b9050919050565b614adf81614ab5565b82525050565b5f602082019050614af85f830184614ad6565b92915050565b7f4e487b71000000000000000000000000000000000000000000000000000000005f52601260045260245ffd5b5f614b3582613c2b565b9150614b4083613c2b565b925082614b5057614b4f614afe565b5b828204905092915050565b5f604082019050614b6e5f830185613c34565b614b7b6020830184613811565b9392505050565b7f496e76616c696420616d6f756e740000000000000000000000000000000000005f82015250565b5f614bb6600e83613bc3565b9150614bc182614b82565b602082019050919050565b5f6020820190508181035f830152614be381614baa565b9050919050565b5f614bf482613c2b565b9150614bff83613c2b565b9250828203905081811115614c1757614c1661487e565b5b92915050565b614c2681613c2b565b82525050565b606082015f820151614c405f850182614c1d565b506020820151614c536020850182614c1d565b506040820151614c666040850182614c1d565b50505050565b5f60e082019050614c7f5f830188613c34565b614c8c6020830187613c34565b614c996040830186613c34565b614ca66060830185613c34565b614cb36080830184614c2c565b9695505050505050565b5f60e0820190508181035f830152614cd58188613bd3565b9050614ce46020830187613c34565b614cf16040830186613c34565b614cfe6060830185613c34565b614d0b6080830184614c2c565b9695505050505050565b5f614d1f82613c2b565b9150614d2a83613c2b565b9250828201905080821115614d4257614d4161487e565b5b92915050565b60a082015f820151614d5c5f850182614c1d565b506020820151614d6f6020850182614c1d565b506040820151614d826040850182614c1d565b506060820151614d956060850182614c1d565b506080820151614da86080850182614c1d565b50505050565b5f60a082019050614dc15f830184614d48565b92915050565b5f606082019050614dda5f83018661406c565b614de76020830185613c34565b614df46040830184613c34565b949350505050565b5f81519050614e0a81613e42565b92915050565b5f60208284031215614e2557614e2461377e565b5b5f614e3284828501614dfc565b91505092915050565b5f819050815f5260205f209050919050565b601f821115614e8e57614e5f81614e3b565b614e6884614596565b81016020851015614e77578190505b614e8b614e8385614596565b830182614676565b50505b505050565b614e9c82613bb9565b67ffffffffffffffff811115614eb557614eb4613eee565b5b614ebf82546144b8565b614eca828285614e4d565b5f60209050601f831160018114614efb575f8415614ee9578287015190505b614ef38582614706565b865550614f5a565b601f198416614f0986614e3b565b5f5b82811015614f3057848901518255600182019150602085019450602081019050614f0b565b86831015614f4d5784890151614f49601f8916826146ea565b8355505b6001600288020188555050505b505050505050565b5f604082019050614f755f83018561406c565b614f826020830184613e97565b9392505050565b5f81905092915050565b5f614f9d8261394d565b614fa78185614f89565b9350614fb7818560208601613967565b80840191505092915050565b5f614fce8284614f93565b91508190509291505056fea264697066735822122004bd5504a3956f3f306c1ad4064f8d7fc0e25d544606100f9a04e4a102272faf64736f6c63430008190033",
			"opcodes": "PUSH1 0xA0 PUSH1 0x40 MSTORE ADDRESS PUSH20 0xFFFFFFFFFFFFFFFFFFFFFFFFFFFFFFFFFFFFFFFF AND PUSH1 0x80 SWAP1 PUSH20 0xFFFFFFFFFFFFFFFFFFFFFFFFFFFFFFFFFFFFFFFF AND DUP2 MSTORE POP CALLVALUE DUP1 ISZERO PUSH2 0x42 JUMPI PUSH0 DUP1 REVERT JUMPDEST POP PUSH2 0x51 PUSH2 0x56 PUSH1 0x20 SHL PUSH1 0x20 SHR JUMP JUMPDEST PUSH2 0x1B6 JUMP JUMPDEST PUSH0 PUSH2 0x65 PUSH2 0x154 PUSH1 0x20 SHL PUSH1 0x20 SHR JUMP JUMPDEST SWAP1 POP DUP1 PUSH0 ADD PUSH1 0x8 SWAP1 SLOAD SWAP1 PUSH2 0x100 EXP SWAP1 DIV PUSH1 0xFF AND ISZERO PUSH2 0xAF JUMPI PUSH1 0x40 MLOAD PUSH32 0xF92EE8A900000000000000000000000000000000000000000000000000000000 DUP2 MSTORE PUSH1 0x4 ADD PUSH1 0x40 MLOAD DUP1 SWAP2 SUB SWAP1 REVERT JUMPDEST PUSH8 0xFFFFFFFFFFFFFFFF DUP1 AND DUP2 PUSH0 ADD PUSH0 SWAP1 SLOAD SWAP1 PUSH2 0x100 EXP SWAP1 DIV PUSH8 0xFFFFFFFFFFFFFFFF AND PUSH8 0xFFFFFFFFFFFFFFFF AND EQ PUSH2 0x151 JUMPI PUSH8 0xFFFFFFFFFFFFFFFF DUP2 PUSH0 ADD PUSH0 PUSH2 0x100 EXP DUP2 SLOAD DUP2 PUSH8 0xFFFFFFFFFFFFFFFF MUL NOT AND SWAP1 DUP4 PUSH8 0xFFFFFFFFFFFFFFFF AND MUL OR SWAP1 SSTORE POP PUSH32 0xC7F505B2F371AE2175EE4913F4499E1F2633A7B5936321EED1CDAEB6115181D2 PUSH8 0xFFFFFFFFFFFFFFFF PUSH1 0x40 MLOAD PUSH2 0x148 SWAP2 SWAP1 PUSH2 0x19D JUMP JUMPDEST PUSH1 0x40 MLOAD DUP1 SWAP2 SUB SWAP1 LOG1 JUMPDEST POP JUMP JUMPDEST PUSH0 PUSH32 0xF0C57E16840DF040F15088DC2F81FE391C3923BEC73E23A9662EFC9C229C6A00 SWAP1 POP SWAP1 JUMP JUMPDEST PUSH0 PUSH8 0xFFFFFFFFFFFFFFFF DUP3 AND SWAP1 POP SWAP2 SWAP1 POP JUMP JUMPDEST PUSH2 0x197 DUP2 PUSH2 0x17B JUMP JUMPDEST DUP3 MSTORE POP POP JUMP JUMPDEST PUSH0 PUSH1 0x20 DUP3 ADD SWAP1 POP PUSH2 0x1B0 PUSH0 DUP4 ADD DUP5 PUSH2 0x18E JUMP JUMPDEST SWAP3 SWAP2 POP POP JUMP JUMPDEST PUSH1 0x80 MLOAD PUSH2 0x500F PUSH2 0x1DC PUSH0 CODECOPY PUSH0 DUP2 DUP2 PUSH2 0x292D ADD MSTORE DUP2 DUP2 PUSH2 0x2982 ADD MSTORE PUSH2 0x2B5F ADD MSTORE PUSH2 0x500F PUSH0 RETURN INVALID PUSH1 0x80 PUSH1 0x40 MSTORE PUSH1 0x4 CALLDATASIZE LT PUSH2 0x2C8 JUMPI PUSH0 CALLDATALOAD PUSH1 0xE0 SHR DUP1 PUSH4 0x70A08231 GT PUSH2 0x174 JUMPI DUP1 PUSH4 0xA217FDDF GT PUSH2 0xDB JUMPI DUP1 PUSH4 0xBC6D238A GT PUSH2 0x94 JUMPI DUP1 PUSH4 0xDD62ED3E GT PUSH2 0x6E JUMPI DUP1 PUSH4 0xDD62ED3E EQ PUSH2 0xB0B JUMPI DUP1 PUSH4 0xE63AB1E9 EQ PUSH2 0xB47 JUMPI DUP1 PUSH4 0xEAFF9F50 EQ PUSH2 0xB71 JUMPI DUP1 PUSH4 0xF72C0D8B EQ PUSH2 0xB9B JUMPI PUSH2 0x2C8 JUMP JUMPDEST DUP1 PUSH4 0xBC6D238A EQ PUSH2 0xA8F JUMPI DUP1 PUSH4 0xD5391393 EQ PUSH2 0xAB9 JUMPI DUP1 PUSH4 0xD547741F EQ PUSH2 0xAE3 JUMPI PUSH2 0x2C8 JUMP JUMPDEST DUP1 PUSH4 0xA217FDDF EQ PUSH2 0x973 JUMPI DUP1 PUSH4 0xA62AF748 EQ PUSH2 0x99D JUMPI DUP1 PUSH4 0xA9059CBB EQ PUSH2 0x9D9 JUMPI DUP1 PUSH4 0xAD3CB1CC EQ PUSH2 0xA15 JUMPI DUP1 PUSH4 0xB3BD268E EQ PUSH2 0xA3F JUMPI DUP1 PUSH4 0xB4809C98 EQ PUSH2 0xA67 JUMPI PUSH2 0x2C8 JUMP JUMPDEST DUP1 PUSH4 0x870BD30B GT PUSH2 0x12D JUMPI DUP1 PUSH4 0x870BD30B EQ PUSH2 0x867 JUMPI DUP1 PUSH4 0x8A42A4E1 EQ PUSH2 0x891 JUMPI DUP1 PUSH4 0x8BF95298 EQ PUSH2 0x8BB JUMPI DUP1 PUSH4 0x91D14854 EQ PUSH2 0x8E3 JUMPI DUP1 PUSH4 0x95D89B41 EQ PUSH2 0x91F JUMPI DUP1 PUSH4 0x98C4F1AC EQ PUSH2 0x949 JUMPI PUSH2 0x2C8 JUMP JUMPDEST DUP1 PUSH4 0x70A08231 EQ PUSH2 0x74B JUMPI DUP1 PUSH4 0x74A5FAC7 EQ PUSH2 0x787 JUMPI DUP1 PUSH4 0x74CBCB52 EQ PUSH2 0x7AF JUMPI DUP1 PUSH4 0x77510DA5 EQ PUSH2 0x7EB JUMPI DUP1 PUSH4 0x7E102FFB EQ PUSH2 0x815 JUMPI DUP1 PUSH4 0x8456CB59 EQ PUSH2 0x851 JUMPI PUSH2 0x2C8 JUMP JUMPDEST DUP1 PUSH4 0x28E23EA9 GT PUSH2 0x233 JUMPI DUP1 PUSH4 0x358ACB5C GT PUSH2 0x1EC JUMPI DUP1 PUSH4 0x4F1EF286 GT PUSH2 0x1C6 JUMPI DUP1 PUSH4 0x4F1EF286 EQ PUSH2 0x6B1 JUMPI DUP1 PUSH4 0x52D1902D EQ PUSH2 0x6CD JUMPI DUP1 PUSH4 0x5C120DBC EQ PUSH2 0x6F7 JUMPI DUP1 PUSH4 0x5C975ABB EQ PUSH2 0x721 JUMPI PUSH2 0x2C8 JUMP JUMPDEST DUP1 PUSH4 0x358ACB5C EQ PUSH2 0x649 JUMPI DUP1 PUSH4 0x36568ABE EQ PUSH2 0x673 JUMPI DUP1 PUSH4 0x3F4BA83A EQ PUSH2 0x69B JUMPI PUSH2 0x2C8 JUMP JUMPDEST DUP1 PUSH4 0x28E23EA9 EQ PUSH2 0x52C JUMPI DUP1 PUSH4 0x2B3E5DD0 EQ PUSH2 0x568 JUMPI DUP1 PUSH4 0x2F2FF15D EQ PUSH2 0x5A5 JUMPI DUP1 PUSH4 0x313CE567 EQ PUSH2 0x5CD JUMPI DUP1 PUSH4 0x3263D034 EQ PUSH2 0x5F7 JUMPI DUP1 PUSH4 0x32FB61DB EQ PUSH2 0x61F JUMPI PUSH2 0x2C8 JUMP JUMPDEST DUP1 PUSH4 0x9A422D8 GT PUSH2 0x285 JUMPI DUP1 PUSH4 0x9A422D8 EQ PUSH2 0x3FC JUMPI DUP1 PUSH4 0x18160DDD EQ PUSH2 0x426 JUMPI DUP1 PUSH4 0x1FE36636 EQ PUSH2 0x450 JUMPI DUP1 PUSH4 0x2061A282 EQ PUSH2 0x48C JUMPI DUP1 PUSH4 0x23B872DD EQ PUSH2 0x4B4 JUMPI DUP1 PUSH4 0x248A9CA3 EQ PUSH2 0x4F0 JUMPI PUSH2 0x2C8 JUMP JUMPDEST DUP1 PUSH4 0x1FFC9A7 EQ PUSH2 0x2CC JUMPI DUP1 PUSH4 0x30BFE1A EQ PUSH2 0x308 JUMPI DUP1 PUSH4 0x6F1F332 EQ PUSH2 0x344 JUMPI DUP1 PUSH4 0x6FDDE03 EQ PUSH2 0x36C JUMPI DUP1 PUSH4 0x7A33D95 EQ PUSH2 0x396 JUMPI DUP1 PUSH4 0x95EA7B3 EQ PUSH2 0x3C0 JUMPI JUMPDEST PUSH0 DUP1 REVERT JUMPDEST CALLVALUE DUP1 ISZERO PUSH2 0x2D7 JUMPI PUSH0 DUP1 REVERT JUMPDEST POP PUSH2 0x2F2 PUSH1 0x4 DUP1 CALLDATASIZE SUB DUP2 ADD SWAP1 PUSH2 0x2ED SWAP2 SWAP1 PUSH2 0x37DB JUMP JUMPDEST PUSH2 0xBC5 JUMP JUMPDEST PUSH1 0x40 MLOAD PUSH2 0x2FF SWAP2 SWAP1 PUSH2 0x3820 JUMP JUMPDEST PUSH1 0x40 MLOAD DUP1 SWAP2 SUB SWAP1 RETURN JUMPDEST CALLVALUE DUP1 ISZERO PUSH2 0x313 JUMPI PUSH0 DUP1 REVERT JUMPDEST POP PUSH2 0x32E PUSH1 0x4 DUP1 CALLDATASIZE SUB DUP2 ADD SWAP1 PUSH2 0x329 SWAP2 SWAP1 PUSH2 0x389A JUMP JUMPDEST PUSH2 0xC3E JUMP JUMPDEST PUSH1 0x40 MLOAD PUSH2 0x33B SWAP2 SWAP1 PUSH2 0x3A89 JUMP JUMPDEST PUSH1 0x40 MLOAD DUP1 SWAP2 SUB SWAP1 RETURN JUMPDEST CALLVALUE DUP1 ISZERO PUSH2 0x34F JUMPI PUSH0 DUP1 REVERT JUMPDEST POP PUSH2 0x36A PUSH1 0x4 DUP1 CALLDATASIZE SUB DUP2 ADD SWAP1 PUSH2 0x365 SWAP2 SWAP1 PUSH2 0x3B28 JUMP JUMPDEST PUSH2 0xD9F JUMP JUMPDEST STOP JUMPDEST CALLVALUE DUP1 ISZERO PUSH2 0x377 JUMPI PUSH0 DUP1 REVERT JUMPDEST POP PUSH2 0x380 PUSH2 0xF4A JUMP JUMPDEST PUSH1 0x40 MLOAD PUSH2 0x38D SWAP2 SWAP1 PUSH2 0x3C0B JUMP JUMPDEST PUSH1 0x40 MLOAD DUP1 SWAP2 SUB SWAP1 RETURN JUMPDEST CALLVALUE DUP1 ISZERO PUSH2 0x3A1 JUMPI PUSH0 DUP1 REVERT JUMPDEST POP PUSH2 0x3AA PUSH2 0xFE8 JUMP JUMPDEST PUSH1 0x40 MLOAD PUSH2 0x3B7 SWAP2 SWAP1 PUSH2 0x3C43 JUMP JUMPDEST PUSH1 0x40 MLOAD DUP1 SWAP2 SUB SWAP1 RETURN JUMPDEST CALLVALUE DUP1 ISZERO PUSH2 0x3CB JUMPI PUSH0 DUP1 REVERT JUMPDEST POP PUSH2 0x3E6 PUSH1 0x4 DUP1 CALLDATASIZE SUB DUP2 ADD SWAP1 PUSH2 0x3E1 SWAP2 SWAP1 PUSH2 0x3C86 JUMP JUMPDEST PUSH2 0xFEE JUMP JUMPDEST PUSH1 0x40 MLOAD PUSH2 0x3F3 SWAP2 SWAP1 PUSH2 0x3820 JUMP JUMPDEST PUSH1 0x40 MLOAD DUP1 SWAP2 SUB SWAP1 RETURN JUMPDEST CALLVALUE DUP1 ISZERO PUSH2 0x407 JUMPI PUSH0 DUP1 REVERT JUMPDEST POP PUSH2 0x410 PUSH2 0x1010 JUMP JUMPDEST PUSH1 0x40 MLOAD PUSH2 0x41D SWAP2 SWAP1 PUSH2 0x3C43 JUMP JUMPDEST PUSH1 0x40 MLOAD DUP1 SWAP2 SUB SWAP1 RETURN JUMPDEST CALLVALUE DUP1 ISZERO PUSH2 0x431 JUMPI PUSH0 DUP1 REVERT JUMPDEST POP PUSH2 0x43A PUSH2 0x1016 JUMP JUMPDEST PUSH1 0x40 MLOAD PUSH2 0x447 SWAP2 SWAP1 PUSH2 0x3C43 JUMP JUMPDEST PUSH1 0x40 MLOAD DUP1 SWAP2 SUB SWAP1 RETURN JUMPDEST CALLVALUE DUP1 ISZERO PUSH2 0x45B JUMPI PUSH0 DUP1 REVERT JUMPDEST POP PUSH2 0x476 PUSH1 0x4 DUP1 CALLDATASIZE SUB DUP2 ADD SWAP1 PUSH2 0x471 SWAP2 SWAP1 PUSH2 0x3CFA JUMP JUMPDEST PUSH2 0x102D JUMP JUMPDEST PUSH1 0x40 MLOAD PUSH2 0x483 SWAP2 SWAP1 PUSH2 0x3C43 JUMP JUMPDEST PUSH1 0x40 MLOAD DUP1 SWAP2 SUB SWAP1 RETURN JUMPDEST CALLVALUE DUP1 ISZERO PUSH2 0x497 JUMPI PUSH0 DUP1 REVERT JUMPDEST POP PUSH2 0x4B2 PUSH1 0x4 DUP1 CALLDATASIZE SUB DUP2 ADD SWAP1 PUSH2 0x4AD SWAP2 SWAP1 PUSH2 0x3D38 JUMP JUMPDEST PUSH2 0x10C0 JUMP JUMPDEST STOP JUMPDEST CALLVALUE DUP1 ISZERO PUSH2 0x4BF JUMPI PUSH0 DUP1 REVERT JUMPDEST POP PUSH2 0x4DA PUSH1 0x4 DUP1 CALLDATASIZE SUB DUP2 ADD SWAP1 PUSH2 0x4D5 SWAP2 SWAP1 PUSH2 0x3DE9 JUMP JUMPDEST PUSH2 0x144F JUMP JUMPDEST PUSH1 0x40 MLOAD PUSH2 0x4E7 SWAP2 SWAP1 PUSH2 0x3820 JUMP JUMPDEST PUSH1 0x40 MLOAD DUP1 SWAP2 SUB SWAP1 RETURN JUMPDEST CALLVALUE DUP1 ISZERO PUSH2 0x4FB JUMPI PUSH0 DUP1 REVERT JUMPDEST POP PUSH2 0x516 PUSH1 0x4 DUP1 CALLDATASIZE SUB DUP2 ADD SWAP1 PUSH2 0x511 SWAP2 SWAP1 PUSH2 0x3E6C JUMP JUMPDEST PUSH2 0x147D JUMP JUMPDEST PUSH1 0x40 MLOAD PUSH2 0x523 SWAP2 SWAP1 PUSH2 0x3EA6 JUMP JUMPDEST PUSH1 0x40 MLOAD DUP1 SWAP2 SUB SWAP1 RETURN JUMPDEST CALLVALUE DUP1 ISZERO PUSH2 0x537 JUMPI PUSH0 DUP1 REVERT JUMPDEST POP PUSH2 0x552 PUSH1 0x4 DUP1 CALLDATASIZE SUB DUP2 ADD SWAP1 PUSH2 0x54D SWAP2 SWAP1 PUSH2 0x3EBF JUMP JUMPDEST PUSH2 0x14A7 JUMP JUMPDEST PUSH1 0x40 MLOAD PUSH2 0x55F SWAP2 SWAP1 PUSH2 0x3C43 JUMP JUMPDEST PUSH1 0x40 MLOAD DUP1 SWAP2 SUB SWAP1 RETURN JUMPDEST CALLVALUE DUP1 ISZERO PUSH2 0x573 JUMPI PUSH0 DUP1 REVERT JUMPDEST POP PUSH2 0x58E PUSH1 0x4 DUP1 CALLDATASIZE SUB DUP2 ADD SWAP1 PUSH2 0x589 SWAP2 SWAP1 PUSH2 0x4012 JUMP JUMPDEST PUSH2 0x14CC JUMP JUMPDEST PUSH1 0x40 MLOAD PUSH2 0x59C SWAP3 SWAP2 SWAP1 PUSH2 0x40C3 JUMP JUMPDEST PUSH1 0x40 MLOAD DUP1 SWAP2 SUB SWAP1 RETURN JUMPDEST CALLVALUE DUP1 ISZERO PUSH2 0x5B0 JUMPI PUSH0 DUP1 REVERT JUMPDEST POP PUSH2 0x5CB PUSH1 0x4 DUP1 CALLDATASIZE SUB DUP2 ADD SWAP1 PUSH2 0x5C6 SWAP2 SWAP1 PUSH2 0x40F1 JUMP JUMPDEST PUSH2 0x15C3 JUMP JUMPDEST STOP JUMPDEST CALLVALUE DUP1 ISZERO PUSH2 0x5D8 JUMPI PUSH0 DUP1 REVERT JUMPDEST POP PUSH2 0x5E1 PUSH2 0x15E5 JUMP JUMPDEST PUSH1 0x40 MLOAD PUSH2 0x5EE SWAP2 SWAP1 PUSH2 0x413E JUMP JUMPDEST PUSH1 0x40 MLOAD DUP1 SWAP2 SUB SWAP1 RETURN JUMPDEST CALLVALUE DUP1 ISZERO PUSH2 0x602 JUMPI PUSH0 DUP1 REVERT JUMPDEST POP PUSH2 0x61D PUSH1 0x4 DUP1 CALLDATASIZE SUB DUP2 ADD SWAP1 PUSH2 0x618 SWAP2 SWAP1 PUSH2 0x4181 JUMP JUMPDEST PUSH2 0x15ED JUMP JUMPDEST STOP JUMPDEST CALLVALUE DUP1 ISZERO PUSH2 0x62A JUMPI PUSH0 DUP1 REVERT JUMPDEST POP PUSH2 0x633 PUSH2 0x172B JUMP JUMPDEST PUSH1 0x40 MLOAD PUSH2 0x640 SWAP2 SWAP1 PUSH2 0x3C43 JUMP JUMPDEST PUSH1 0x40 MLOAD DUP1 SWAP2 SUB SWAP1 RETURN JUMPDEST CALLVALUE DUP1 ISZERO PUSH2 0x654 JUMPI PUSH0 DUP1 REVERT JUMPDEST POP PUSH2 0x65D PUSH2 0x1731 JUMP JUMPDEST PUSH1 0x40 MLOAD PUSH2 0x66A SWAP2 SWAP1 PUSH2 0x41D1 JUMP JUMPDEST PUSH1 0x40 MLOAD DUP1 SWAP2 SUB SWAP1 RETURN JUMPDEST CALLVALUE DUP1 ISZERO PUSH2 0x67E JUMPI PUSH0 DUP1 REVERT JUMPDEST POP PUSH2 0x699 PUSH1 0x4 DUP1 CALLDATASIZE SUB DUP2 ADD SWAP1 PUSH2 0x694 SWAP2 SWAP1 PUSH2 0x40F1 JUMP JUMPDEST PUSH2 0x1756 JUMP JUMPDEST STOP JUMPDEST CALLVALUE DUP1 ISZERO PUSH2 0x6A6 JUMPI PUSH0 DUP1 REVERT JUMPDEST POP PUSH2 0x6AF PUSH2 0x17D1 JUMP JUMPDEST STOP JUMPDEST PUSH2 0x6CB PUSH1 0x4 DUP1 CALLDATASIZE SUB DUP2 ADD SWAP1 PUSH2 0x6C6 SWAP2 SWAP1 PUSH2 0x4288 JUMP JUMPDEST PUSH2 0x1806 JUMP JUMPDEST STOP JUMPDEST CALLVALUE DUP1 ISZERO PUSH2 0x6D8 JUMPI PUSH0 DUP1 REVERT JUMPDEST POP PUSH2 0x6E1 PUSH2 0x1825 JUMP JUMPDEST PUSH1 0x40 MLOAD PUSH2 0x6EE SWAP2 SWAP1 PUSH2 0x3EA6 JUMP JUMPDEST PUSH1 0x40 MLOAD DUP1 SWAP2 SUB SWAP1 RETURN JUMPDEST CALLVALUE DUP1 ISZERO PUSH2 0x702 JUMPI PUSH0 DUP1 REVERT JUMPDEST POP PUSH2 0x70B PUSH2 0x1856 JUMP JUMPDEST PUSH1 0x40 MLOAD PUSH2 0x718 SWAP2 SWAP1 PUSH2 0x3EA6 JUMP JUMPDEST PUSH1 0x40 MLOAD DUP1 SWAP2 SUB SWAP1 RETURN JUMPDEST CALLVALUE DUP1 ISZERO PUSH2 0x72C JUMPI PUSH0 DUP1 REVERT JUMPDEST POP PUSH2 0x735 PUSH2 0x187A JUMP JUMPDEST PUSH1 0x40 MLOAD PUSH2 0x742 SWAP2 SWAP1 PUSH2 0x3820 JUMP JUMPDEST PUSH1 0x40 MLOAD DUP1 SWAP2 SUB SWAP1 RETURN JUMPDEST CALLVALUE DUP1 ISZERO PUSH2 0x756 JUMPI PUSH0 DUP1 REVERT JUMPDEST POP PUSH2 0x771 PUSH1 0x4 DUP1 CALLDATASIZE SUB DUP2 ADD SWAP1 PUSH2 0x76C SWAP2 SWAP1 PUSH2 0x42E2 JUMP JUMPDEST PUSH2 0x189C JUMP JUMPDEST PUSH1 0x40 MLOAD PUSH2 0x77E SWAP2 SWAP1 PUSH2 0x3C43 JUMP JUMPDEST PUSH1 0x40 MLOAD DUP1 SWAP2 SUB SWAP1 RETURN JUMPDEST CALLVALUE DUP1 ISZERO PUSH2 0x792 JUMPI PUSH0 DUP1 REVERT JUMPDEST POP PUSH2 0x7AD PUSH1 0x4 DUP1 CALLDATASIZE SUB DUP2 ADD SWAP1 PUSH2 0x7A8 SWAP2 SWAP1 PUSH2 0x42E2 JUMP JUMPDEST PUSH2 0x18EF JUMP JUMPDEST STOP JUMPDEST CALLVALUE DUP1 ISZERO PUSH2 0x7BA JUMPI PUSH0 DUP1 REVERT JUMPDEST POP PUSH2 0x7D5 PUSH1 0x4 DUP1 CALLDATASIZE SUB DUP2 ADD SWAP1 PUSH2 0x7D0 SWAP2 SWAP1 PUSH2 0x4012 JUMP JUMPDEST PUSH2 0x1AE0 JUMP JUMPDEST PUSH1 0x40 MLOAD PUSH2 0x7E2 SWAP2 SWAP1 PUSH2 0x3C43 JUMP JUMPDEST PUSH1 0x40 MLOAD DUP1 SWAP2 SUB SWAP1 RETURN JUMPDEST CALLVALUE DUP1 ISZERO PUSH2 0x7F6 JUMPI PUSH0 DUP1 REVERT JUMPDEST POP PUSH2 0x7FF PUSH2 0x1C95 JUMP JUMPDEST PUSH1 0x40 MLOAD PUSH2 0x80C SWAP2 SWAP1 PUSH2 0x3C43 JUMP JUMPDEST PUSH1 0x40 MLOAD DUP1 SWAP2 SUB SWAP1 RETURN JUMPDEST CALLVALUE DUP1 ISZERO PUSH2 0x820 JUMPI PUSH0 DUP1 REVERT JUMPDEST POP PUSH2 0x83B PUSH1 0x4 DUP1 CALLDATASIZE SUB DUP2 ADD SWAP1 PUSH2 0x836 SWAP2 SWAP1 PUSH2 0x430D JUMP JUMPDEST PUSH2 0x1C9A JUMP JUMPDEST PUSH1 0x40 MLOAD PUSH2 0x848 SWAP2 SWAP1 PUSH2 0x3C43 JUMP JUMPDEST PUSH1 0x40 MLOAD DUP1 SWAP2 SUB SWAP1 RETURN JUMPDEST CALLVALUE DUP1 ISZERO PUSH2 0x85C JUMPI PUSH0 DUP1 REVERT JUMPDEST POP PUSH2 0x865 PUSH2 0x1CC3 JUMP JUMPDEST STOP JUMPDEST CALLVALUE DUP1 ISZERO PUSH2 0x872 JUMPI PUSH0 DUP1 REVERT JUMPDEST POP PUSH2 0x87B PUSH2 0x1CF8 JUMP JUMPDEST PUSH1 0x40 MLOAD PUSH2 0x888 SWAP2 SWAP1 PUSH2 0x3820 JUMP JUMPDEST PUSH1 0x40 MLOAD DUP1 SWAP2 SUB SWAP1 RETURN JUMPDEST CALLVALUE DUP1 ISZERO PUSH2 0x89C JUMPI PUSH0 DUP1 REVERT JUMPDEST POP PUSH2 0x8A5 PUSH2 0x1D0A JUMP JUMPDEST PUSH1 0x40 MLOAD PUSH2 0x8B2 SWAP2 SWAP1 PUSH2 0x3C43 JUMP JUMPDEST PUSH1 0x40 MLOAD DUP1 SWAP2 SUB SWAP1 RETURN JUMPDEST CALLVALUE DUP1 ISZERO PUSH2 0x8C6 JUMPI PUSH0 DUP1 REVERT JUMPDEST POP PUSH2 0x8E1 PUSH1 0x4 DUP1 CALLDATASIZE SUB DUP2 ADD SWAP1 PUSH2 0x8DC SWAP2 SWAP1 PUSH2 0x434B JUMP JUMPDEST PUSH2 0x1D10 JUMP JUMPDEST STOP JUMPDEST CALLVALUE DUP1 ISZERO PUSH2 0x8EE JUMPI PUSH0 DUP1 REVERT JUMPDEST POP PUSH2 0x909 PUSH1 0x4 DUP1 CALLDATASIZE SUB DUP2 ADD SWAP1 PUSH2 0x904 SWAP2 SWAP1 PUSH2 0x40F1 JUMP JUMPDEST PUSH2 0x1ED7 JUMP JUMPDEST PUSH1 0x40 MLOAD PUSH2 0x916 SWAP2 SWAP1 PUSH2 0x3820 JUMP JUMPDEST PUSH1 0x40 MLOAD DUP1 SWAP2 SUB SWAP1 RETURN JUMPDEST CALLVALUE DUP1 ISZERO PUSH2 0x92A JUMPI PUSH0 DUP1 REVERT JUMPDEST POP PUSH2 0x933 PUSH2 0x1F48 JUMP JUMPDEST PUSH1 0x40 MLOAD PUSH2 0x940 SWAP2 SWAP1 PUSH2 0x3C0B JUMP JUMPDEST PUSH1 0x40 MLOAD DUP1 SWAP2 SUB SWAP1 RETURN JUMPDEST CALLVALUE DUP1 ISZERO PUSH2 0x954 JUMPI PUSH0 DUP1 REVERT JUMPDEST POP PUSH2 0x95D PUSH2 0x1FE6 JUMP JUMPDEST PUSH1 0x40 MLOAD PUSH2 0x96A SWAP2 SWAP1 PUSH2 0x3EA6 JUMP JUMPDEST PUSH1 0x40 MLOAD DUP1 SWAP2 SUB SWAP1 RETURN JUMPDEST CALLVALUE DUP1 ISZERO PUSH2 0x97E JUMPI PUSH0 DUP1 REVERT JUMPDEST POP PUSH2 0x987 PUSH2 0x200A JUMP JUMPDEST PUSH1 0x40 MLOAD PUSH2 0x994 SWAP2 SWAP1 PUSH2 0x3EA6 JUMP JUMPDEST PUSH1 0x40 MLOAD DUP1 SWAP2 SUB SWAP1 RETURN JUMPDEST CALLVALUE DUP1 ISZERO PUSH2 0x9A8 JUMPI PUSH0 DUP1 REVERT JUMPDEST POP PUSH2 0x9C3 PUSH1 0x4 DUP1 CALLDATASIZE SUB DUP2 ADD SWAP1 PUSH2 0x9BE SWAP2 SWAP1 PUSH2 0x43B7 JUMP JUMPDEST PUSH2 0x2010 JUMP JUMPDEST PUSH1 0x40 MLOAD PUSH2 0x9D0 SWAP2 SWAP1 PUSH2 0x3C43 JUMP JUMPDEST PUSH1 0x40 MLOAD DUP1 SWAP2 SUB SWAP1 RETURN JUMPDEST CALLVALUE DUP1 ISZERO PUSH2 0x9E4 JUMPI PUSH0 DUP1 REVERT JUMPDEST POP PUSH2 0x9FF PUSH1 0x4 DUP1 CALLDATASIZE SUB DUP2 ADD SWAP1 PUSH2 0x9FA SWAP2 SWAP1 PUSH2 0x3C86 JUMP JUMPDEST PUSH2 0x2062 JUMP JUMPDEST PUSH1 0x40 MLOAD PUSH2 0xA0C SWAP2 SWAP1 PUSH2 0x3820 JUMP JUMPDEST PUSH1 0x40 MLOAD DUP1 SWAP2 SUB SWAP1 RETURN JUMPDEST CALLVALUE DUP1 ISZERO PUSH2 0xA20 JUMPI PUSH0 DUP1 REVERT JUMPDEST POP PUSH2 0xA29 PUSH2 0x2084 JUMP JUMPDEST PUSH1 0x40 MLOAD PUSH2 0xA36 SWAP2 SWAP1 PUSH2 0x3C0B JUMP JUMPDEST PUSH1 0x40 MLOAD DUP1 SWAP2 SUB SWAP1 RETURN JUMPDEST CALLVALUE DUP1 ISZERO PUSH2 0xA4A JUMPI PUSH0 DUP1 REVERT JUMPDEST POP PUSH2 0xA65 PUSH1 0x4 DUP1 CALLDATASIZE SUB DUP2 ADD SWAP1 PUSH2 0xA60 SWAP2 SWAP1 PUSH2 0x3CFA JUMP JUMPDEST PUSH2 0x20BD JUMP JUMPDEST STOP JUMPDEST CALLVALUE DUP1 ISZERO PUSH2 0xA72 JUMPI PUSH0 DUP1 REVERT JUMPDEST POP PUSH2 0xA8D PUSH1 0x4 DUP1 CALLDATASIZE SUB DUP2 ADD SWAP1 PUSH2 0xA88 SWAP2 SWAP1 PUSH2 0x3CFA JUMP JUMPDEST PUSH2 0x21E1 JUMP JUMPDEST STOP JUMPDEST CALLVALUE DUP1 ISZERO PUSH2 0xA9A JUMPI PUSH0 DUP1 REVERT JUMPDEST POP PUSH2 0xAA3 PUSH2 0x22C8 JUMP JUMPDEST PUSH1 0x40 MLOAD PUSH2 0xAB0 SWAP2 SWAP1 PUSH2 0x3C43 JUMP JUMPDEST PUSH1 0x40 MLOAD DUP1 SWAP2 SUB SWAP1 RETURN JUMPDEST CALLVALUE DUP1 ISZERO PUSH2 0xAC4 JUMPI PUSH0 DUP1 REVERT JUMPDEST POP PUSH2 0xACD PUSH2 0x22CE JUMP JUMPDEST PUSH1 0x40 MLOAD PUSH2 0xADA SWAP2 SWAP1 PUSH2 0x3EA6 JUMP JUMPDEST PUSH1 0x40 MLOAD DUP1 SWAP2 SUB SWAP1 RETURN JUMPDEST CALLVALUE DUP1 ISZERO PUSH2 0xAEE JUMPI PUSH0 DUP1 REVERT JUMPDEST POP PUSH2 0xB09 PUSH1 0x4 DUP1 CALLDATASIZE SUB DUP2 ADD SWAP1 PUSH2 0xB04 SWAP2 SWAP1 PUSH2 0x40F1 JUMP JUMPDEST PUSH2 0x22F2 JUMP JUMPDEST STOP JUMPDEST CALLVALUE DUP1 ISZERO PUSH2 0xB16 JUMPI PUSH0 DUP1 REVERT JUMPDEST POP PUSH2 0xB31 PUSH1 0x4 DUP1 CALLDATASIZE SUB DUP2 ADD SWAP1 PUSH2 0xB2C SWAP2 SWAP1 PUSH2 0x4407 JUMP JUMPDEST PUSH2 0x2314 JUMP JUMPDEST PUSH1 0x40 MLOAD PUSH2 0xB3E SWAP2 SWAP1 PUSH2 0x3C43 JUMP JUMPDEST PUSH1 0x40 MLOAD DUP1 SWAP2 SUB SWAP1 RETURN JUMPDEST CALLVALUE DUP1 ISZERO PUSH2 0xB52 JUMPI PUSH0 DUP1 REVERT JUMPDEST POP PUSH2 0xB5B PUSH2 0x23A4 JUMP JUMPDEST PUSH1 0x40 MLOAD PUSH2 0xB68 SWAP2 SWAP1 PUSH2 0x3EA6 JUMP JUMPDEST PUSH1 0x40 MLOAD DUP1 SWAP2 SUB SWAP1 RETURN JUMPDEST CALLVALUE DUP1 ISZERO PUSH2 0xB7C JUMPI PUSH0 DUP1 REVERT JUMPDEST POP PUSH2 0xB85 PUSH2 0x23C8 JUMP JUMPDEST PUSH1 0x40 MLOAD PUSH2 0xB92 SWAP2 SWAP1 PUSH2 0x3C43 JUMP JUMPDEST PUSH1 0x40 MLOAD DUP1 SWAP2 SUB SWAP1 RETURN JUMPDEST CALLVALUE DUP1 ISZERO PUSH2 0xBA6 JUMPI PUSH0 DUP1 REVERT JUMPDEST POP PUSH2 0xBAF PUSH2 0x23CE JUMP JUMPDEST PUSH1 0x40 MLOAD PUSH2 0xBBC SWAP2 SWAP1 PUSH2 0x3EA6 JUMP JUMPDEST PUSH1 0x40 MLOAD DUP1 SWAP2 SUB SWAP1 RETURN JUMPDEST PUSH0 PUSH32 0x7965DB0B00000000000000000000000000000000000000000000000000000000 PUSH28 0xFFFFFFFFFFFFFFFFFFFFFFFFFFFFFFFFFFFFFFFFFFFFFFFFFFFFFFFF NOT AND DUP3 PUSH28 0xFFFFFFFFFFFFFFFFFFFFFFFFFFFFFFFFFFFFFFFFFFFFFFFFFFFFFFFF NOT AND EQ DUP1 PUSH2 0xC37 JUMPI POP PUSH2 0xC36 DUP3 PUSH2 0x23F2 JUMP JUMPDEST JUMPDEST SWAP1 POP SWAP2 SWAP1 POP JUMP JUMPDEST PUSH1 0x60 PUSH1 0x9 DUP4 DUP4 PUSH1 0x40 MLOAD PUSH2 0xC52 SWAP3 SWAP2 SWAP1 PUSH2 0x4473 JUMP JUMPDEST SWAP1 DUP2 MSTORE PUSH1 0x20 ADD PUSH1 0x40 MLOAD DUP1 SWAP2 SUB SWAP1 KECCAK256 DUP1 SLOAD DUP1 PUSH1 0x20 MUL PUSH1 0x20 ADD PUSH1 0x40 MLOAD SWAP1 DUP2 ADD PUSH1 0x40 MSTORE DUP1 SWAP3 SWAP2 SWAP1 DUP2 DUP2 MSTORE PUSH1 0x20 ADD PUSH0 SWAP1 JUMPDEST DUP3 DUP3 LT ISZERO PUSH2 0xD93 JUMPI DUP4 DUP3 SWAP1 PUSH0 MSTORE PUSH1 0x20 PUSH0 KECCAK256 SWAP1 PUSH1 0x2 MUL ADD PUSH1 0x40 MLOAD DUP1 PUSH1 0x40 ADD PUSH1 0x40 MSTORE SWAP1 DUP2 PUSH0 DUP3 ADD PUSH0 SWAP1 SLOAD SWAP1 PUSH2 0x100 EXP SWAP1 DIV PUSH20 0xFFFFFFFFFFFFFFFFFFFFFFFFFFFFFFFFFFFFFFFF AND PUSH20 0xFFFFFFFFFFFFFFFFFFFFFFFFFFFFFFFFFFFFFFFF AND PUSH20 0xFFFFFFFFFFFFFFFFFFFFFFFFFFFFFFFFFFFFFFFF AND DUP2 MSTORE PUSH1 0x20 ADD PUSH1 0x1 DUP3 ADD DUP1 SLOAD PUSH2 0xD04 SWAP1 PUSH2 0x44B8 JUMP JUMPDEST DUP1 PUSH1 0x1F ADD PUSH1 0x20 DUP1 SWAP2 DIV MUL PUSH1 0x20 ADD PUSH1 0x40 MLOAD SWAP1 DUP2 ADD PUSH1 0x40 MSTORE DUP1 SWAP3 SWAP2 SWAP1 DUP2 DUP2 MSTORE PUSH1 0x20 ADD DUP3 DUP1 SLOAD PUSH2 0xD30 SWAP1 PUSH2 0x44B8 JUMP JUMPDEST DUP1 ISZERO PUSH2 0xD7B JUMPI DUP1 PUSH1 0x1F LT PUSH2 0xD52 JUMPI PUSH2 0x100 DUP1 DUP4 SLOAD DIV MUL DUP4 MSTORE SWAP2 PUSH1 0x20 ADD SWAP2 PUSH2 0xD7B JUMP JUMPDEST DUP3 ADD SWAP2 SWAP1 PUSH0 MSTORE PUSH1 0x20 PUSH0 KECCAK256 SWAP1 JUMPDEST DUP2 SLOAD DUP2 MSTORE SWAP1 PUSH1 0x1 ADD SWAP1 PUSH1 0x20 ADD DUP1 DUP4 GT PUSH2 0xD5E JUMPI DUP3 SWAP1 SUB PUSH1 0x1F AND DUP3 ADD SWAP2 JUMPDEST POP POP POP POP POP DUP2 MSTORE POP POP DUP2 MSTORE PUSH1 0x20 ADD SWAP1 PUSH1 0x1 ADD SWAP1 PUSH2 0xC7F JUMP JUMPDEST POP POP POP POP SWAP1 POP SWAP3 SWAP2 POP POP JUMP JUMPDEST PUSH1 0x40 DUP3 DUP3 SWAP1 POP EQ PUSH2 0xDE9 JUMPI DUP2 DUP2 PUSH1 0x40 MLOAD PUSH32 0x79354DDA00000000000000000000000000000000000000000000000000000000 DUP2 MSTORE PUSH1 0x4 ADD PUSH2 0xDE0 SWAP3 SWAP2 SWAP1 PUSH2 0x4514 JUMP JUMPDEST PUSH1 0x40 MLOAD DUP1 SWAP2 SUB SWAP1 REVERT JUMPDEST PUSH1 0x30 DUP6 DUP6 SWAP1 POP EQ PUSH2 0xE33 JUMPI DUP5 DUP5 PUSH1 0x40 MLOAD PUSH32 0x30614A0B00000000000000000000000000000000000000000000000000000000 DUP2 MSTORE PUSH1 0x4 ADD PUSH2 0xE2A SWAP3 SWAP2 SWAP1 PUSH2 0x4562 JUMP JUMPDEST PUSH1 0x40 MLOAD DUP1 SWAP2 SUB SWAP1 REVERT JUMPDEST PUSH1 0x9 DUP6 DUP6 PUSH1 0x40 MLOAD PUSH2 0xE45 SWAP3 SWAP2 SWAP1 PUSH2 0x4473 JUMP JUMPDEST SWAP1 DUP2 MSTORE PUSH1 0x20 ADD PUSH1 0x40 MLOAD DUP1 SWAP2 SUB SWAP1 KECCAK256 PUSH1 0x40 MLOAD DUP1 PUSH1 0x40 ADD PUSH1 0x40 MSTORE DUP1 DUP6 PUSH20 0xFFFFFFFFFFFFFFFFFFFFFFFFFFFFFFFFFFFFFFFF AND DUP2 MSTORE PUSH1 0x20 ADD DUP5 DUP5 DUP1 DUP1 PUSH1 0x1F ADD PUSH1 0x20 DUP1 SWAP2 DIV MUL PUSH1 0x20 ADD PUSH1 0x40 MLOAD SWAP1 DUP2 ADD PUSH1 0x40 MSTORE DUP1 SWAP4 SWAP3 SWAP2 SWAP1 DUP2 DUP2 MSTORE PUSH1 0x20 ADD DUP4 DUP4 DUP1 DUP3 DUP5 CALLDATACOPY PUSH0 DUP2 DUP5 ADD MSTORE PUSH1 0x1F NOT PUSH1 0x1F DUP3 ADD AND SWAP1 POP DUP1 DUP4 ADD SWAP3 POP POP POP POP POP POP POP DUP2 MSTORE POP SWAP1 DUP1 PUSH1 0x1 DUP2 SLOAD ADD DUP1 DUP3 SSTORE DUP1 SWAP2 POP POP PUSH1 0x1 SWAP1 SUB SWAP1 PUSH0 MSTORE PUSH1 0x20 PUSH0 KECCAK256 SWAP1 PUSH1 0x2 MUL ADD PUSH0 SWAP1 SWAP2 SWAP1 SWAP2 SWAP1 SWAP2 POP PUSH0 DUP3 ADD MLOAD DUP2 PUSH0 ADD PUSH0 PUSH2 0x100 EXP DUP2 SLOAD DUP2 PUSH20 0xFFFFFFFFFFFFFFFFFFFFFFFFFFFFFFFFFFFFFFFF MUL NOT AND SWAP1 DUP4 PUSH20 0xFFFFFFFFFFFFFFFFFFFFFFFFFFFFFFFFFFFFFFFF AND MUL OR SWAP1 SSTORE POP PUSH1 0x20 DUP3 ADD MLOAD DUP2 PUSH1 0x1 ADD SWAP1 DUP2 PUSH2 0xF40 SWAP2 SWAP1 PUSH2 0x4721 JUMP JUMPDEST POP POP POP POP POP POP POP POP JUMP JUMPDEST PUSH1 0x60 PUSH0 PUSH2 0xF55 PUSH2 0x245B JUMP JUMPDEST SWAP1 POP DUP1 PUSH1 0x3 ADD DUP1 SLOAD PUSH2 0xF66 SWAP1 PUSH2 0x44B8 JUMP JUMPDEST DUP1 PUSH1 0x1F ADD PUSH1 0x20 DUP1 SWAP2 DIV MUL PUSH1 0x20 ADD PUSH1 0x40 MLOAD SWAP1 DUP2 ADD PUSH1 0x40 MSTORE DUP1 SWAP3 SWAP2 SWAP1 DUP2 DUP2 MSTORE PUSH1 0x20 ADD DUP3 DUP1 SLOAD PUSH2 0xF92 SWAP1 PUSH2 0x44B8 JUMP JUMPDEST DUP1 ISZERO PUSH2 0xFDD JUMPI DUP1 PUSH1 0x1F LT PUSH2 0xFB4 JUMPI PUSH2 0x100 DUP1 DUP4 SLOAD DIV MUL DUP4 MSTORE SWAP2 PUSH1 0x20 ADD SWAP2 PUSH2 0xFDD JUMP JUMPDEST DUP3 ADD SWAP2 SWAP1 PUSH0 MSTORE PUSH1 0x20 PUSH0 KECCAK256 SWAP1 JUMPDEST DUP2 SLOAD DUP2 MSTORE SWAP1 PUSH1 0x1 ADD SWAP1 PUSH1 0x20 ADD DUP1 DUP4 GT PUSH2 0xFC0 JUMPI DUP3 SWAP1 SUB PUSH1 0x1F AND DUP3 ADD SWAP2 JUMPDEST POP POP POP POP POP SWAP2 POP POP SWAP1 JUMP JUMPDEST PUSH1 0x5 SLOAD DUP2 JUMP JUMPDEST PUSH0 DUP1 PUSH2 0xFF8 PUSH2 0x2482 JUMP JUMPDEST SWAP1 POP PUSH2 0x1005 DUP2 DUP6 DUP6 PUSH2 0x2489 JUMP JUMPDEST PUSH1 0x1 SWAP2 POP POP SWAP3 SWAP2 POP POP JUMP JUMPDEST PUSH1 0x4 SLOAD DUP2 JUMP JUMPDEST PUSH0 DUP1 PUSH2 0x1020 PUSH2 0x245B JUMP JUMPDEST SWAP1 POP DUP1 PUSH1 0x2 ADD SLOAD SWAP2 POP POP SWAP1 JUMP JUMPDEST PUSH0 DUP1 DUP4 GT DUP1 ISZERO PUSH2 0x1040 JUMPI POP PUSH0 DUP3 PUSH1 0xFF AND LT ISZERO JUMPDEST DUP1 ISZERO PUSH2 0x1050 JUMPI POP PUSH1 0x12 DUP3 PUSH1 0xFF AND GT ISZERO JUMPDEST PUSH2 0x108F JUMPI PUSH1 0x40 MLOAD PUSH32 0x8C379A000000000000000000000000000000000000000000000000000000000 DUP2 MSTORE PUSH1 0x4 ADD PUSH2 0x1086 SWAP1 PUSH2 0x4860 JUMP JUMPDEST PUSH1 0x40 MLOAD DUP1 SWAP2 SUB SWAP1 REVERT JUMPDEST PUSH0 DUP3 PUSH1 0x12 PUSH2 0x109D SWAP2 SWAP1 PUSH2 0x48AB JUMP JUMPDEST PUSH1 0xA PUSH2 0x10A9 SWAP2 SWAP1 PUSH2 0x4A0E JUMP JUMPDEST DUP5 PUSH2 0x10B4 SWAP2 SWAP1 PUSH2 0x4A58 JUMP JUMPDEST SWAP1 POP DUP1 SWAP2 POP POP SWAP3 SWAP2 POP POP JUMP JUMPDEST PUSH0 PUSH2 0x10C9 PUSH2 0x249B JUMP JUMPDEST SWAP1 POP PUSH0 DUP2 PUSH0 ADD PUSH1 0x8 SWAP1 SLOAD SWAP1 PUSH2 0x100 EXP SWAP1 DIV PUSH1 0xFF AND ISZERO SWAP1 POP PUSH0 DUP3 PUSH0 ADD PUSH0 SWAP1 SLOAD SWAP1 PUSH2 0x100 EXP SWAP1 DIV PUSH8 0xFFFFFFFFFFFFFFFF AND SWAP1 POP PUSH0 DUP1 DUP3 PUSH8 0xFFFFFFFFFFFFFFFF AND EQ DUP1 ISZERO PUSH2 0x1111 JUMPI POP DUP3 JUMPDEST SWAP1 POP PUSH0 PUSH1 0x1 DUP4 PUSH8 0xFFFFFFFFFFFFFFFF AND EQ DUP1 ISZERO PUSH2 0x1144 JUMPI POP PUSH0 ADDRESS PUSH20 0xFFFFFFFFFFFFFFFFFFFFFFFFFFFFFFFFFFFFFFFF AND EXTCODESIZE EQ JUMPDEST SWAP1 POP DUP2 ISZERO DUP1 ISZERO PUSH2 0x1152 JUMPI POP DUP1 ISZERO JUMPDEST ISZERO PUSH2 0x1189 JUMPI PUSH1 0x40 MLOAD PUSH32 0xF92EE8A900000000000000000000000000000000000000000000000000000000 DUP2 MSTORE PUSH1 0x4 ADD PUSH1 0x40 MLOAD DUP1 SWAP2 SUB SWAP1 REVERT JUMPDEST PUSH1 0x1 DUP6 PUSH0 ADD PUSH0 PUSH2 0x100 EXP DUP2 SLOAD DUP2 PUSH8 0xFFFFFFFFFFFFFFFF MUL NOT AND SWAP1 DUP4 PUSH8 0xFFFFFFFFFFFFFFFF AND MUL OR SWAP1 SSTORE POP DUP4 ISZERO PUSH2 0x11D6 JUMPI PUSH1 0x1 DUP6 PUSH0 ADD PUSH1 0x8 PUSH2 0x100 EXP DUP2 SLOAD DUP2 PUSH1 0xFF MUL NOT AND SWAP1 DUP4 ISZERO ISZERO MUL OR SWAP1 SSTORE POP JUMPDEST PUSH2 0x124A PUSH1 0x40 MLOAD DUP1 PUSH1 0x40 ADD PUSH1 0x40 MSTORE DUP1 PUSH1 0xA DUP2 MSTORE PUSH1 0x20 ADD PUSH32 0x5374616B65642054616F00000000000000000000000000000000000000000000 DUP2 MSTORE POP PUSH1 0x40 MLOAD DUP1 PUSH1 0x40 ADD PUSH1 0x40 MSTORE DUP1 PUSH1 0x4 DUP2 MSTORE PUSH1 0x20 ADD PUSH32 0x7354414F00000000000000000000000000000000000000000000000000000000 DUP2 MSTORE POP PUSH2 0x24C2 JUMP JUMPDEST PUSH2 0x1252 PUSH2 0x24D8 JUMP JUMPDEST PUSH2 0x125A PUSH2 0x24EA JUMP JUMPDEST PUSH2 0x1262 PUSH2 0x24F4 JUMP JUMPDEST PUSH2 0x126A PUSH2 0x2506 JUMP JUMPDEST PUSH2 0x1276 PUSH0 DUP1 SHL DUP15 PUSH2 0x2510 JUMP JUMPDEST POP PUSH2 0x12A1 PUSH32 0x65D7A28E3265B37A6474929F336521B332C1681B933F6CB9F3376673440D862A DUP14 PUSH2 0x2510 JUMP JUMPDEST POP PUSH2 0x12CC PUSH32 0x9F2DF0FED2C77648DE5860A4CC508CD0818C85B8B8A1AB4CEEEF8D981C8956A6 DUP13 PUSH2 0x2510 JUMP JUMPDEST POP PUSH2 0x12F7 PUSH32 0x189AB7A9244DF0848122154315AF71FE140F3DB0FE014031783B0946B8C9D2E3 DUP12 PUSH2 0x2510 JUMP JUMPDEST POP PUSH2 0x1322 PUSH32 0x31E0210044B4F6757CE6AA31F9C6E8D4896D24A755014887391A926C5224D959 DUP11 PUSH2 0x2510 JUMP JUMPDEST POP PUSH2 0x134D PUSH32 0xF3675DCBB04499F4591CF48A7628DBC749EB3EEC89667918130C01F5DB73E08 DUP10 PUSH2 0x2510 JUMP JUMPDEST POP PUSH0 DUP1 DUP2 SWAP1 SSTORE POP PUSH0 PUSH2 0x135F DUP9 DUP9 PUSH2 0x102D JUMP JUMPDEST SWAP1 POP DUP1 PUSH1 0x3 DUP2 SWAP1 SSTORE POP DUP1 PUSH1 0x4 DUP2 SWAP1 SSTORE POP DUP1 PUSH1 0x5 DUP2 SWAP1 SSTORE POP TIMESTAMP PUSH1 0x7 DUP2 SWAP1 SSTORE POP PUSH2 0x1386 DUP2 PUSH2 0x14A7 JUMP JUMPDEST PUSH1 0x6 DUP2 SWAP1 SSTORE POP DUP10 PUSH1 0x8 PUSH0 PUSH2 0x100 EXP DUP2 SLOAD DUP2 PUSH20 0xFFFFFFFFFFFFFFFFFFFFFFFFFFFFFFFFFFFFFFFF MUL NOT AND SWAP1 DUP4 PUSH20 0xFFFFFFFFFFFFFFFFFFFFFFFFFFFFFFFFFFFFFFFF AND MUL OR SWAP1 SSTORE POP PUSH0 PUSH1 0x1 PUSH0 PUSH2 0x100 EXP DUP2 SLOAD DUP2 PUSH1 0xFF MUL NOT AND SWAP1 DUP4 ISZERO ISZERO MUL OR SWAP1 SSTORE POP POP DUP4 ISZERO PUSH2 0x1440 JUMPI PUSH0 DUP6 PUSH0 ADD PUSH1 0x8 PUSH2 0x100 EXP DUP2 SLOAD DUP2 PUSH1 0xFF MUL NOT AND SWAP1 DUP4 ISZERO ISZERO MUL OR SWAP1 SSTORE POP PUSH32 0xC7F505B2F371AE2175EE4913F4499E1F2633A7B5936321EED1CDAEB6115181D2 PUSH1 0x1 PUSH1 0x40 MLOAD PUSH2 0x1437 SWAP2 SWAP1 PUSH2 0x4AE5 JUMP JUMPDEST PUSH1 0x40 MLOAD DUP1 SWAP2 SUB SWAP1 LOG1 JUMPDEST POP POP POP POP POP POP POP POP POP POP POP POP POP JUMP JUMPDEST PUSH0 DUP1 PUSH2 0x1459 PUSH2 0x2482 JUMP JUMPDEST SWAP1 POP PUSH2 0x1466 DUP6 DUP3 DUP6 PUSH2 0x2608 JUMP JUMPDEST PUSH2 0x1471 DUP6 DUP6 DUP6 PUSH2 0x269A JUMP JUMPDEST PUSH1 0x1 SWAP2 POP POP SWAP4 SWAP3 POP POP POP JUMP JUMPDEST PUSH0 DUP1 PUSH2 0x1487 PUSH2 0x278A JUMP JUMPDEST SWAP1 POP DUP1 PUSH0 ADD PUSH0 DUP5 DUP2 MSTORE PUSH1 0x20 ADD SWAP1 DUP2 MSTORE PUSH1 0x20 ADD PUSH0 KECCAK256 PUSH1 0x1 ADD SLOAD SWAP2 POP POP SWAP2 SWAP1 POP JUMP JUMPDEST PUSH0 DUP2 PUSH17 0x1D6329F1C35CA4BFABB9F5610000000000 PUSH2 0x14C5 SWAP2 SWAP1 PUSH2 0x4B2B JUMP JUMPDEST SWAP1 POP SWAP2 SWAP1 POP JUMP JUMPDEST PUSH1 0x9 DUP3 DUP1 MLOAD PUSH1 0x20 DUP2 ADD DUP3 ADD DUP1 MLOAD DUP5 DUP3 MSTORE PUSH1 0x20 DUP4 ADD PUSH1 0x20 DUP6 ADD KECCAK256 DUP2 DUP4 MSTORE DUP1 SWAP6 POP POP POP POP POP POP DUP2 DUP2 SLOAD DUP2 LT PUSH2 0x14FD JUMPI PUSH0 DUP1 REVERT JUMPDEST SWAP1 PUSH0 MSTORE PUSH1 0x20 PUSH0 KECCAK256 SWAP1 PUSH1 0x2 MUL ADD PUSH0 SWAP2 POP SWAP2 POP POP DUP1 PUSH0 ADD PUSH0 SWAP1 SLOAD SWAP1 PUSH2 0x100 EXP SWAP1 DIV PUSH20 0xFFFFFFFFFFFFFFFFFFFFFFFFFFFFFFFFFFFFFFFF AND SWAP1 DUP1 PUSH1 0x1 ADD DUP1 SLOAD PUSH2 0x1542 SWAP1 PUSH2 0x44B8 JUMP JUMPDEST DUP1 PUSH1 0x1F ADD PUSH1 0x20 DUP1 SWAP2 DIV MUL PUSH1 0x20 ADD PUSH1 0x40 MLOAD SWAP1 DUP2 ADD PUSH1 0x40 MSTORE DUP1 SWAP3 SWAP2 SWAP1 DUP2 DUP2 MSTORE PUSH1 0x20 ADD DUP3 DUP1 SLOAD PUSH2 0x156E SWAP1 PUSH2 0x44B8 JUMP JUMPDEST DUP1 ISZERO PUSH2 0x15B9 JUMPI DUP1 PUSH1 0x1F LT PUSH2 0x1590 JUMPI PUSH2 0x100 DUP1 DUP4 SLOAD DIV MUL DUP4 MSTORE SWAP2 PUSH1 0x20 ADD SWAP2 PUSH2 0x15B9 JUMP JUMPDEST DUP3 ADD SWAP2 SWAP1 PUSH0 MSTORE PUSH1 0x20 PUSH0 KECCAK256 SWAP1 JUMPDEST DUP2 SLOAD DUP2 MSTORE SWAP1 PUSH1 0x1 ADD SWAP1 PUSH1 0x20 ADD DUP1 DUP4 GT PUSH2 0x159C JUMPI DUP3 SWAP1 SUB PUSH1 0x1F AND DUP3 ADD SWAP2 JUMPDEST POP POP POP POP POP SWAP1 POP DUP3 JUMP JUMPDEST PUSH2 0x15CC DUP3 PUSH2 0x147D JUMP JUMPDEST PUSH2 0x15D5 DUP2 PUSH2 0x27B1 JUMP JUMPDEST PUSH2 0x15DF DUP4 DUP4 PUSH2 0x2510 JUMP JUMPDEST POP POP POP POP JUMP JUMPDEST PUSH0 PUSH1 0x12 SWAP1 POP SWAP1 JUMP JUMPDEST PUSH32 0xF3675DCBB04499F4591CF48A7628DBC749EB3EEC89667918130C01F5DB73E08 PUSH2 0x1617 DUP2 PUSH2 0x27B1 JUMP JUMPDEST PUSH0 DUP5 LT ISZERO PUSH2 0x165C JUMPI DUP4 PUSH1 0x40 MLOAD PUSH32 0x4192233800000000000000000000000000000000000000000000000000000000 DUP2 MSTORE PUSH1 0x4 ADD PUSH2 0x1653 SWAP2 SWAP1 PUSH2 0x3C43 JUMP JUMPDEST PUSH1 0x40 MLOAD DUP1 SWAP2 SUB SWAP1 REVERT JUMPDEST PUSH2 0x1666 DUP5 DUP5 PUSH2 0x102D JUMP JUMPDEST PUSH0 DUP2 SWAP1 SSTORE POP PUSH1 0x1 PUSH8 0xDE0B6B3A7640000 PUSH0 SLOAD PUSH2 0x1682 SWAP2 SWAP1 PUSH2 0x4B2B JUMP JUMPDEST LT PUSH2 0x16C4 JUMPI DUP4 PUSH1 0x40 MLOAD PUSH32 0x4192233800000000000000000000000000000000000000000000000000000000 DUP2 MSTORE PUSH1 0x4 ADD PUSH2 0x16BB SWAP2 SWAP1 PUSH2 0x3C43 JUMP JUMPDEST PUSH1 0x40 MLOAD DUP1 SWAP2 SUB SWAP1 REVERT JUMPDEST DUP2 PUSH1 0x1 PUSH0 PUSH2 0x100 EXP DUP2 SLOAD DUP2 PUSH1 0xFF MUL NOT AND SWAP1 DUP4 ISZERO ISZERO MUL OR SWAP1 SSTORE POP PUSH32 0x36A04C671E06E9BA33C547A67DFEC6BA6B8E37B4237AFDE2F76D62D6DB11D6C7 PUSH0 SLOAD PUSH1 0x1 PUSH0 SWAP1 SLOAD SWAP1 PUSH2 0x100 EXP SWAP1 DIV PUSH1 0xFF AND PUSH1 0x40 MLOAD PUSH2 0x171D SWAP3 SWAP2 SWAP1 PUSH2 0x4B5B JUMP JUMPDEST PUSH1 0x40 MLOAD DUP1 SWAP2 SUB SWAP1 LOG1 POP POP POP POP JUMP JUMPDEST PUSH1 0x7 SLOAD DUP2 JUMP JUMPDEST PUSH1 0x8 PUSH0 SWAP1 SLOAD SWAP1 PUSH2 0x100 EXP SWAP1 DIV PUSH20 0xFFFFFFFFFFFFFFFFFFFFFFFFFFFFFFFFFFFFFFFF AND DUP2 JUMP JUMPDEST PUSH2 0x175E PUSH2 0x2482 JUMP JUMPDEST PUSH20 0xFFFFFFFFFFFFFFFFFFFFFFFFFFFFFFFFFFFFFFFF AND DUP2 PUSH20 0xFFFFFFFFFFFFFFFFFFFFFFFFFFFFFFFFFFFFFFFF AND EQ PUSH2 0x17C2 JUMPI PUSH1 0x40 MLOAD PUSH32 0x6697B23200000000000000000000000000000000000000000000000000000000 DUP2 MSTORE PUSH1 0x4 ADD PUSH1 0x40 MLOAD DUP1 SWAP2 SUB SWAP1 REVERT JUMPDEST PUSH2 0x17CC DUP3 DUP3 PUSH2 0x27C5 JUMP JUMPDEST POP POP POP JUMP JUMPDEST PUSH32 0x65D7A28E3265B37A6474929F336521B332C1681B933F6CB9F3376673440D862A PUSH2 0x17FB DUP2 PUSH2 0x27B1 JUMP JUMPDEST PUSH2 0x1803 PUSH2 0x28BD JUMP JUMPDEST POP JUMP JUMPDEST PUSH2 0x180E PUSH2 0x292B JUMP JUMPDEST PUSH2 0x1817 DUP3 PUSH2 0x2A11 JUMP JUMPDEST PUSH2 0x1821 DUP3 DUP3 PUSH2 0x2A3F JUMP JUMPDEST POP POP JUMP JUMPDEST PUSH0 PUSH2 0x182E PUSH2 0x2B5D JUMP JUMPDEST PUSH32 0x360894A13BA1A3210667C828492DB98DCA3E2076CC3735A920A3CA505D382BBC PUSH0 SHL SWAP1 POP SWAP1 JUMP JUMPDEST PUSH32 0xF3675DCBB04499F4591CF48A7628DBC749EB3EEC89667918130C01F5DB73E08 DUP2 JUMP JUMPDEST PUSH0 DUP1 PUSH2 0x1884 PUSH2 0x2BE4 JUMP JUMPDEST SWAP1 POP DUP1 PUSH0 ADD PUSH0 SWAP1 SLOAD SWAP1 PUSH2 0x100 EXP SWAP1 DIV PUSH1 0xFF AND SWAP2 POP POP SWAP1 JUMP JUMPDEST PUSH0 DUP1 PUSH2 0x18A6 PUSH2 0x245B JUMP JUMPDEST SWAP1 POP DUP1 PUSH0 ADD PUSH0 DUP5 PUSH20 0xFFFFFFFFFFFFFFFFFFFFFFFFFFFFFFFFFFFFFFFF AND PUSH20 0xFFFFFFFFFFFFFFFFFFFFFFFFFFFFFFFFFFFFFFFF AND DUP2 MSTORE PUSH1 0x20 ADD SWAP1 DUP2 MSTORE PUSH1 0x20 ADD PUSH0 KECCAK256 SLOAD SWAP2 POP POP SWAP2 SWAP1 POP JUMP JUMPDEST PUSH32 0x31E0210044B4F6757CE6AA31F9C6E8D4896D24A755014887391A926C5224D959 PUSH2 0x1919 DUP2 PUSH2 0x27B1 JUMP JUMPDEST PUSH2 0x1921 PUSH2 0x2C0B JUMP JUMPDEST PUSH2 0x1976 PUSH1 0x8 PUSH0 SWAP1 SLOAD SWAP1 PUSH2 0x100 EXP SWAP1 DIV PUSH20 0xFFFFFFFFFFFFFFFFFFFFFFFFFFFFFFFFFFFFFFFF AND DUP4 PUSH2 0x1971 PUSH1 0x8 PUSH0 SWAP1 SLOAD SWAP1 PUSH2 0x100 EXP SWAP1 DIV PUSH20 0xFFFFFFFFFFFFFFFFFFFFFFFFFFFFFFFFFFFFFFFF AND PUSH2 0x189C JUMP JUMPDEST PUSH2 0x269A JUMP JUMPDEST PUSH2 0x19C1 PUSH32 0x31E0210044B4F6757CE6AA31F9C6E8D4896D24A755014887391A926C5224D959 PUSH1 0x8 PUSH0 SWAP1 SLOAD SWAP1 PUSH2 0x100 EXP SWAP1 DIV PUSH20 0xFFFFFFFFFFFFFFFFFFFFFFFFFFFFFFFFFFFFFFFF AND PUSH2 0x27C5 JUMP JUMPDEST POP PUSH2 0x19EC PUSH32 0x31E0210044B4F6757CE6AA31F9C6E8D4896D24A755014887391A926C5224D959 DUP4 PUSH2 0x2510 JUMP JUMPDEST POP DUP2 PUSH20 0xFFFFFFFFFFFFFFFFFFFFFFFFFFFFFFFFFFFFFFFF AND PUSH1 0x8 PUSH0 SWAP1 SLOAD SWAP1 PUSH2 0x100 EXP SWAP1 DIV PUSH20 0xFFFFFFFFFFFFFFFFFFFFFFFFFFFFFFFFFFFFFFFF AND PUSH20 0xFFFFFFFFFFFFFFFFFFFFFFFFFFFFFFFFFFFFFFFF AND PUSH32 0x4BB16579469C3432AB333C964141459ECD476DACC8D57352E9541551FBDEFE49 PUSH2 0x1A87 PUSH1 0x8 PUSH0 SWAP1 SLOAD SWAP1 PUSH2 0x100 EXP SWAP1 DIV PUSH20 0xFFFFFFFFFFFFFFFFFFFFFFFFFFFFFFFFFFFFFFFF AND PUSH2 0x189C JUMP JUMPDEST PUSH1 0x40 MLOAD PUSH2 0x1A94 SWAP2 SWAP1 PUSH2 0x3C43 JUMP JUMPDEST PUSH1 0x40 MLOAD DUP1 SWAP2 SUB SWAP1 LOG3 DUP2 PUSH1 0x8 PUSH0 PUSH2 0x100 EXP DUP2 SLOAD DUP2 PUSH20 0xFFFFFFFFFFFFFFFFFFFFFFFFFFFFFFFFFFFFFFFF MUL NOT AND SWAP1 DUP4 PUSH20 0xFFFFFFFFFFFFFFFFFFFFFFFFFFFFFFFFFFFFFFFF AND MUL OR SWAP1 SSTORE POP POP POP JUMP JUMPDEST PUSH0 PUSH2 0x1AE9 PUSH2 0x2C4B JUMP JUMPDEST PUSH2 0x1AF1 PUSH2 0x2C8C JUMP JUMPDEST PUSH2 0x1AFA DUP4 PUSH2 0x2CE0 JUMP JUMPDEST POP PUSH0 DUP3 GT PUSH2 0x1B3D JUMPI PUSH1 0x40 MLOAD PUSH32 0x8C379A000000000000000000000000000000000000000000000000000000000 DUP2 MSTORE PUSH1 0x4 ADD PUSH2 0x1B34 SWAP1 PUSH2 0x4BCC JUMP JUMPDEST PUSH1 0x40 MLOAD DUP1 SWAP2 SUB SWAP1 REVERT JUMPDEST DUP2 PUSH2 0x1B47 CALLER PUSH2 0x189C JUMP JUMPDEST LT ISZERO PUSH2 0x1B8A JUMPI DUP2 PUSH1 0x40 MLOAD PUSH32 0x4219110A00000000000000000000000000000000000000000000000000000000 DUP2 MSTORE PUSH1 0x4 ADD PUSH2 0x1B81 SWAP2 SWAP1 PUSH2 0x3C43 JUMP JUMPDEST PUSH1 0x40 MLOAD DUP1 SWAP2 SUB SWAP1 REVERT JUMPDEST PUSH0 DUP3 SWAP1 POP PUSH0 PUSH1 0x1 PUSH0 SWAP1 SLOAD SWAP1 PUSH2 0x100 EXP SWAP1 DIV PUSH1 0xFF AND ISZERO PUSH2 0x1BB1 JUMPI PUSH2 0x1BAE PUSH0 SLOAD DUP4 PUSH2 0x1C9A JUMP JUMPDEST SWAP1 POP JUMPDEST PUSH0 DUP2 DUP4 PUSH2 0x1BBE SWAP2 SWAP1 PUSH2 0x4BEA JUMP JUMPDEST SWAP1 POP PUSH0 DUP3 GT ISZERO PUSH2 0x1BF5 JUMPI PUSH2 0x1BF4 CALLER PUSH1 0x8 PUSH0 SWAP1 SLOAD SWAP1 PUSH2 0x100 EXP SWAP1 DIV PUSH20 0xFFFFFFFFFFFFFFFFFFFFFFFFFFFFFFFFFFFFFFFF AND DUP5 PUSH2 0x269A JUMP JUMPDEST JUMPDEST PUSH2 0x1BFF CALLER DUP3 PUSH2 0x2D30 JUMP JUMPDEST PUSH0 PUSH2 0x1C0C PUSH1 0x3 SLOAD DUP4 PUSH2 0x1C9A JUMP JUMPDEST SWAP1 POP CALLER PUSH20 0xFFFFFFFFFFFFFFFFFFFFFFFFFFFFFFFFFFFFFFFF AND PUSH32 0x1C97169F95D78C21200A4FF20DA4F627E8AE48C3CA16763220E5D64C1D392CA4 DUP6 DUP6 DUP6 DUP6 PUSH1 0x40 MLOAD DUP1 PUSH1 0x60 ADD PUSH1 0x40 MSTORE DUP1 TIMESTAMP DUP2 MSTORE PUSH1 0x20 ADD NUMBER DUP2 MSTORE PUSH1 0x20 ADD PUSH1 0x7 SLOAD DUP2 MSTORE POP PUSH1 0x40 MLOAD PUSH2 0x1C78 SWAP6 SWAP5 SWAP4 SWAP3 SWAP2 SWAP1 PUSH2 0x4C6C JUMP JUMPDEST PUSH1 0x40 MLOAD DUP1 SWAP2 SUB SWAP1 LOG2 DUP1 SWAP5 POP POP POP POP POP PUSH2 0x1C8F PUSH2 0x2DAF JUMP JUMPDEST SWAP3 SWAP2 POP POP JUMP JUMPDEST PUSH0 SLOAD DUP2 JUMP JUMPDEST PUSH0 PUSH9 0x56BC75E2D63100000 DUP3 DUP5 PUSH2 0x1CB1 SWAP2 SWAP1 PUSH2 0x4A58 JUMP JUMPDEST PUSH2 0x1CBB SWAP2 SWAP1 PUSH2 0x4B2B JUMP JUMPDEST SWAP1 POP SWAP3 SWAP2 POP POP JUMP JUMPDEST PUSH32 0x65D7A28E3265B37A6474929F336521B332C1681B933F6CB9F3376673440D862A PUSH2 0x1CED DUP2 PUSH2 0x27B1 JUMP JUMPDEST PUSH2 0x1CF5 PUSH2 0x2DC6 JUMP JUMPDEST POP JUMP JUMPDEST PUSH1 0x1 PUSH0 SWAP1 SLOAD SWAP1 PUSH2 0x100 EXP SWAP1 DIV PUSH1 0xFF AND DUP2 JUMP JUMPDEST PUSH1 0x6 SLOAD DUP2 JUMP JUMPDEST PUSH32 0x9F2DF0FED2C77648DE5860A4CC508CD0818C85B8B8A1AB4CEEEF8D981C8956A6 PUSH2 0x1D3A DUP2 PUSH2 0x27B1 JUMP JUMPDEST PUSH2 0x1D42 PUSH2 0x2C4B JUMP JUMPDEST PUSH2 0x1D4B DUP3 PUSH2 0x2CE0 JUMP JUMPDEST POP PUSH0 DUP4 GT PUSH2 0x1D8E JUMPI PUSH1 0x40 MLOAD PUSH32 0x8C379A000000000000000000000000000000000000000000000000000000000 DUP2 MSTORE PUSH1 0x4 ADD PUSH2 0x1D85 SWAP1 PUSH2 0x4BCC JUMP JUMPDEST PUSH1 0x40 MLOAD DUP1 SWAP2 SUB SWAP1 REVERT JUMPDEST PUSH0 PUSH2 0x1D9B PUSH1 0x6 SLOAD DUP6 PUSH2 0x1C9A JUMP JUMPDEST SUB PUSH2 0x1DDD JUMPI DUP3 PUSH1 0x40 MLOAD PUSH32 0xFD009A9900000000000000000000000000000000000000000000000000000000 DUP2 MSTORE PUSH1 0x4 ADD PUSH2 0x1DD4 SWAP2 SWAP1 PUSH2 0x3C43 JUMP JUMPDEST PUSH1 0x40 MLOAD DUP1 SWAP2 SUB SWAP1 REVERT JUMPDEST PUSH0 PUSH2 0x1DEA PUSH1 0x6 SLOAD DUP6 PUSH2 0x1C9A JUMP JUMPDEST SWAP1 POP PUSH0 PUSH1 0x1 PUSH0 SWAP1 SLOAD SWAP1 PUSH2 0x100 EXP SWAP1 DIV PUSH1 0xFF AND ISZERO PUSH2 0x1E0F JUMPI PUSH2 0x1E0C PUSH0 SLOAD DUP4 PUSH2 0x1C9A JUMP JUMPDEST SWAP1 POP JUMPDEST PUSH0 DUP2 DUP4 PUSH2 0x1E1C SWAP2 SWAP1 PUSH2 0x4BEA JUMP JUMPDEST SWAP1 POP PUSH2 0x1E28 DUP8 DUP3 PUSH2 0x2E35 JUMP JUMPDEST PUSH0 DUP3 GT ISZERO PUSH2 0x1E5C JUMPI PUSH2 0x1E5B PUSH1 0x8 PUSH0 SWAP1 SLOAD SWAP1 PUSH2 0x100 EXP SWAP1 DIV PUSH20 0xFFFFFFFFFFFFFFFFFFFFFFFFFFFFFFFFFFFFFFFF AND DUP4 PUSH2 0x2E35 JUMP JUMPDEST JUMPDEST DUP7 PUSH20 0xFFFFFFFFFFFFFFFFFFFFFFFFFFFFFFFFFFFFFFFF AND PUSH32 0x89755DC2275D1563CC2788ADC9CFE83496FFCA7290B7D42D7F8708D5E8181727 DUP7 DUP6 DUP6 DUP6 PUSH1 0x40 MLOAD DUP1 PUSH1 0x60 ADD PUSH1 0x40 MSTORE DUP1 TIMESTAMP DUP2 MSTORE PUSH1 0x20 ADD NUMBER DUP2 MSTORE PUSH1 0x20 ADD PUSH1 0x7 SLOAD DUP2 MSTORE POP PUSH1 0x40 MLOAD PUSH2 0x1EC6 SWAP6 SWAP5 SWAP4 SWAP3 SWAP2 SWAP1 PUSH2 0x4CBD JUMP JUMPDEST PUSH1 0x40 MLOAD DUP1 SWAP2 SUB SWAP1 LOG2 POP POP POP POP POP POP POP JUMP JUMPDEST PUSH0 DUP1 PUSH2 0x1EE1 PUSH2 0x278A JUMP JUMPDEST SWAP1 POP DUP1 PUSH0 ADD PUSH0 DUP6 DUP2 MSTORE PUSH1 0x20 ADD SWAP1 DUP2 MSTORE PUSH1 0x20 ADD PUSH0 KECCAK256 PUSH0 ADD PUSH0 DUP5 PUSH20 0xFFFFFFFFFFFFFFFFFFFFFFFFFFFFFFFFFFFFFFFF AND PUSH20 0xFFFFFFFFFFFFFFFFFFFFFFFFFFFFFFFFFFFFFFFF AND DUP2 MSTORE PUSH1 0x20 ADD SWAP1 DUP2 MSTORE PUSH1 0x20 ADD PUSH0 KECCAK256 PUSH0 SWAP1 SLOAD SWAP1 PUSH2 0x100 EXP SWAP1 DIV PUSH1 0xFF AND SWAP2 POP POP SWAP3 SWAP2 POP POP JUMP JUMPDEST PUSH1 0x60 PUSH0 PUSH2 0x1F53 PUSH2 0x245B JUMP JUMPDEST SWAP1 POP DUP1 PUSH1 0x4 ADD DUP1 SLOAD PUSH2 0x1F64 SWAP1 PUSH2 0x44B8 JUMP JUMPDEST DUP1 PUSH1 0x1F ADD PUSH1 0x20 DUP1 SWAP2 DIV MUL PUSH1 0x20 ADD PUSH1 0x40 MLOAD SWAP1 DUP2 ADD PUSH1 0x40 MSTORE DUP1 SWAP3 SWAP2 SWAP1 DUP2 DUP2 MSTORE PUSH1 0x20 ADD DUP3 DUP1 SLOAD PUSH2 0x1F90 SWAP1 PUSH2 0x44B8 JUMP JUMPDEST DUP1 ISZERO PUSH2 0x1FDB JUMPI DUP1 PUSH1 0x1F LT PUSH2 0x1FB2 JUMPI PUSH2 0x100 DUP1 DUP4 SLOAD DIV MUL DUP4 MSTORE SWAP2 PUSH1 0x20 ADD SWAP2 PUSH2 0x1FDB JUMP JUMPDEST DUP3 ADD SWAP2 SWAP1 PUSH0 MSTORE PUSH1 0x20 PUSH0 KECCAK256 SWAP1 JUMPDEST DUP2 SLOAD DUP2 MSTORE SWAP1 PUSH1 0x1 ADD SWAP1 PUSH1 0x20 ADD DUP1 DUP4 GT PUSH2 0x1FBE JUMPI DUP3 SWAP1 SUB PUSH1 0x1F AND DUP3 ADD SWAP2 JUMPDEST POP POP POP POP POP SWAP2 POP POP SWAP1 JUMP JUMPDEST PUSH32 0x31E0210044B4F6757CE6AA31F9C6E8D4896D24A755014887391A926C5224D959 DUP2 JUMP JUMPDEST PUSH0 DUP1 SHL DUP2 JUMP JUMPDEST PUSH0 DUP1 DUP5 DUP5 PUSH2 0x201E SWAP2 SWAP1 PUSH2 0x4BEA JUMP JUMPDEST SWAP1 POP PUSH0 DUP5 DUP5 PUSH2 0x202D SWAP2 SWAP1 PUSH2 0x4BEA JUMP JUMPDEST SWAP1 POP PUSH0 PUSH1 0x2 DUP3 DUP5 PUSH2 0x203E SWAP2 SWAP1 PUSH2 0x4D15 JUMP JUMPDEST PUSH2 0x2048 SWAP2 SWAP1 PUSH2 0x4B2B JUMP JUMPDEST SWAP1 POP DUP1 DUP6 PUSH2 0x2056 SWAP2 SWAP1 PUSH2 0x4D15 JUMP JUMPDEST SWAP4 POP POP POP POP SWAP4 SWAP3 POP POP POP JUMP JUMPDEST PUSH0 DUP1 PUSH2 0x206C PUSH2 0x2482 JUMP JUMPDEST SWAP1 POP PUSH2 0x2079 DUP2 DUP6 DUP6 PUSH2 0x269A JUMP JUMPDEST PUSH1 0x1 SWAP2 POP POP SWAP3 SWAP2 POP POP JUMP JUMPDEST PUSH1 0x40 MLOAD DUP1 PUSH1 0x40 ADD PUSH1 0x40 MSTORE DUP1 PUSH1 0x5 DUP2 MSTORE PUSH1 0x20 ADD PUSH32 0x352E302E30000000000000000000000000000000000000000000000000000000 DUP2 MSTORE POP DUP2 JUMP JUMPDEST PUSH32 0xF3675DCBB04499F4591CF48A7628DBC749EB3EEC89667918130C01F5DB73E08 PUSH2 0x20E7 DUP2 PUSH2 0x27B1 JUMP JUMPDEST PUSH0 DUP4 LT ISZERO PUSH2 0x212C JUMPI DUP3 PUSH1 0x40 MLOAD PUSH32 0x4192233800000000000000000000000000000000000000000000000000000000 DUP2 MSTORE PUSH1 0x4 ADD PUSH2 0x2123 SWAP2 SWAP1 PUSH2 0x3C43 JUMP JUMPDEST PUSH1 0x40 MLOAD DUP1 SWAP2 SUB SWAP1 REVERT JUMPDEST PUSH2 0x2136 DUP4 DUP4 PUSH2 0x102D JUMP JUMPDEST PUSH0 DUP2 SWAP1 SSTORE POP PUSH1 0x1 PUSH8 0xDE0B6B3A7640000 PUSH0 SLOAD PUSH2 0x2152 SWAP2 SWAP1 PUSH2 0x4B2B JUMP JUMPDEST LT PUSH2 0x2194 JUMPI DUP3 PUSH1 0x40 MLOAD PUSH32 0x4192233800000000000000000000000000000000000000000000000000000000 DUP2 MSTORE PUSH1 0x4 ADD PUSH2 0x218B SWAP2 SWAP1 PUSH2 0x3C43 JUMP JUMPDEST PUSH1 0x40 MLOAD DUP1 SWAP2 SUB SWAP1 REVERT JUMPDEST PUSH32 0x36A04C671E06E9BA33C547A67DFEC6BA6B8E37B4237AFDE2F76D62D6DB11D6C7 PUSH0 SLOAD PUSH1 0x1 PUSH0 SWAP1 SLOAD SWAP1 PUSH2 0x100 EXP SWAP1 DIV PUSH1 0xFF AND PUSH1 0x40 MLOAD PUSH2 0x21D4 SWAP3 SWAP2 SWAP1 PUSH2 0x4B5B JUMP JUMPDEST PUSH1 0x40 MLOAD DUP1 SWAP2 SUB SWAP1 LOG1 POP POP POP JUMP JUMPDEST PUSH32 0xF3675DCBB04499F4591CF48A7628DBC749EB3EEC89667918130C01F5DB73E08 PUSH2 0x220B DUP2 PUSH2 0x27B1 JUMP JUMPDEST PUSH1 0x4 SLOAD PUSH1 0x5 DUP2 SWAP1 SSTORE POP PUSH1 0x3 SLOAD PUSH1 0x4 DUP2 SWAP1 SSTORE POP PUSH2 0x2227 DUP4 DUP4 PUSH2 0x102D JUMP JUMPDEST PUSH1 0x3 DUP2 SWAP1 SSTORE POP PUSH2 0x223E PUSH1 0x5 SLOAD PUSH1 0x4 SLOAD PUSH1 0x3 SLOAD PUSH2 0x2010 JUMP JUMPDEST PUSH1 0x6 DUP2 SWAP1 SSTORE POP PUSH2 0x224F PUSH1 0x6 SLOAD PUSH2 0x14A7 JUMP JUMPDEST PUSH1 0x6 DUP2 SWAP1 SSTORE POP TIMESTAMP PUSH1 0x7 DUP2 SWAP1 SSTORE POP PUSH32 0xB5DED381DA928B10A8C0FAF0D344948097703D870EAE50A5D35DA81929F05BD9 PUSH1 0x40 MLOAD DUP1 PUSH1 0xA0 ADD PUSH1 0x40 MSTORE DUP1 PUSH1 0x5 SLOAD DUP2 MSTORE PUSH1 0x20 ADD PUSH1 0x4 SLOAD DUP2 MSTORE PUSH1 0x20 ADD PUSH1 0x3 SLOAD DUP2 MSTORE PUSH1 0x20 ADD PUSH1 0x6 SLOAD DUP2 MSTORE PUSH1 0x20 ADD PUSH1 0x7 SLOAD DUP2 MSTORE POP PUSH1 0x40 MLOAD PUSH2 0x22BB SWAP2 SWAP1 PUSH2 0x4DAE JUMP JUMPDEST PUSH1 0x40 MLOAD DUP1 SWAP2 SUB SWAP1 LOG1 POP POP POP JUMP JUMPDEST PUSH1 0x2 SLOAD DUP2 JUMP JUMPDEST PUSH32 0x9F2DF0FED2C77648DE5860A4CC508CD0818C85B8B8A1AB4CEEEF8D981C8956A6 DUP2 JUMP JUMPDEST PUSH2 0x22FB DUP3 PUSH2 0x147D JUMP JUMPDEST PUSH2 0x2304 DUP2 PUSH2 0x27B1 JUMP JUMPDEST PUSH2 0x230E DUP4 DUP4 PUSH2 0x27C5 JUMP JUMPDEST POP POP POP POP JUMP JUMPDEST PUSH0 DUP1 PUSH2 0x231E PUSH2 0x245B JUMP JUMPDEST SWAP1 POP DUP1 PUSH1 0x1 ADD PUSH0 DUP6 PUSH20 0xFFFFFFFFFFFFFFFFFFFFFFFFFFFFFFFFFFFFFFFF AND PUSH20 0xFFFFFFFFFFFFFFFFFFFFFFFFFFFFFFFFFFFFFFFF AND DUP2 MSTORE PUSH1 0x20 ADD SWAP1 DUP2 MSTORE PUSH1 0x20 ADD PUSH0 KECCAK256 PUSH0 DUP5 PUSH20 0xFFFFFFFFFFFFFFFFFFFFFFFFFFFFFFFFFFFFFFFF AND PUSH20 0xFFFFFFFFFFFFFFFFFFFFFFFFFFFFFFFFFFFFFFFF AND DUP2 MSTORE PUSH1 0x20 ADD SWAP1 DUP2 MSTORE PUSH1 0x20 ADD PUSH0 KECCAK256 SLOAD SWAP2 POP POP SWAP3 SWAP2 POP POP JUMP JUMPDEST PUSH32 0x65D7A28E3265B37A6474929F336521B332C1681B933F6CB9F3376673440D862A DUP2 JUMP JUMPDEST PUSH1 0x3 SLOAD DUP2 JUMP JUMPDEST PUSH32 0x189AB7A9244DF0848122154315AF71FE140F3DB0FE014031783B0946B8C9D2E3 DUP2 JUMP JUMPDEST PUSH0 PUSH32 0x1FFC9A700000000000000000000000000000000000000000000000000000000 PUSH28 0xFFFFFFFFFFFFFFFFFFFFFFFFFFFFFFFFFFFFFFFFFFFFFFFFFFFFFFFF NOT AND DUP3 PUSH28 0xFFFFFFFFFFFFFFFFFFFFFFFFFFFFFFFFFFFFFFFFFFFFFFFFFFFFFFFF NOT AND EQ SWAP1 POP SWAP2 SWAP1 POP JUMP JUMPDEST PUSH0 PUSH32 0x52C63247E1F47DB19D5CE0460030C497F067CA4CEBF71BA98EEADABE20BACE00 SWAP1 POP SWAP1 JUMP JUMPDEST PUSH0 CALLER SWAP1 POP SWAP1 JUMP JUMPDEST PUSH2 0x2496 DUP4 DUP4 DUP4 PUSH1 0x1 PUSH2 0x2EB4 JUMP JUMPDEST POP POP POP JUMP JUMPDEST PUSH0 PUSH32 0xF0C57E16840DF040F15088DC2F81FE391C3923BEC73E23A9662EFC9C229C6A00 SWAP1 POP SWAP1 JUMP JUMPDEST PUSH2 0x24CA PUSH2 0x3091 JUMP JUMPDEST PUSH2 0x24D4 DUP3 DUP3 PUSH2 0x30D1 JUMP JUMPDEST POP POP JUMP JUMPDEST PUSH2 0x24E0 PUSH2 0x3091 JUMP JUMPDEST PUSH2 0x24E8 PUSH2 0x310D JUMP JUMPDEST JUMP JUMPDEST PUSH2 0x24F2 PUSH2 0x3091 JUMP JUMPDEST JUMP JUMPDEST PUSH2 0x24FC PUSH2 0x3091 JUMP JUMPDEST PUSH2 0x2504 PUSH2 0x313D JUMP JUMPDEST JUMP JUMPDEST PUSH2 0x250E PUSH2 0x3091 JUMP JUMPDEST JUMP JUMPDEST PUSH0 DUP1 PUSH2 0x251A PUSH2 0x278A JUMP JUMPDEST SWAP1 POP PUSH2 0x2526 DUP5 DUP5 PUSH2 0x1ED7 JUMP JUMPDEST PUSH2 0x25FD JUMPI PUSH1 0x1 DUP2 PUSH0 ADD PUSH0 DUP7 DUP2 MSTORE PUSH1 0x20 ADD SWAP1 DUP2 MSTORE PUSH1 0x20 ADD PUSH0 KECCAK256 PUSH0 ADD PUSH0 DUP6 PUSH20 0xFFFFFFFFFFFFFFFFFFFFFFFFFFFFFFFFFFFFFFFF AND PUSH20 0xFFFFFFFFFFFFFFFFFFFFFFFFFFFFFFFFFFFFFFFF AND DUP2 MSTORE PUSH1 0x20 ADD SWAP1 DUP2 MSTORE PUSH1 0x20 ADD PUSH0 KECCAK256 PUSH0 PUSH2 0x100 EXP DUP2 SLOAD DUP2 PUSH1 0xFF MUL NOT AND SWAP1 DUP4 ISZERO ISZERO MUL OR SWAP1 SSTORE POP PUSH2 0x2599 PUSH2 0x2482 JUMP JUMPDEST PUSH20 0xFFFFFFFFFFFFFFFFFFFFFFFFFFFFFFFFFFFFFFFF AND DUP4 PUSH20 0xFFFFFFFFFFFFFFFFFFFFFFFFFFFFFFFFFFFFFFFF AND DUP6 PUSH32 0x2F8788117E7EFF1D82E926EC794901D17C78024A50270940304540A733656F0D PUSH1 0x40 MLOAD PUSH1 0x40 MLOAD DUP1 SWAP2 SUB SWAP1 LOG4 PUSH1 0x1 SWAP2 POP POP PUSH2 0x2602 JUMP JUMPDEST PUSH0 SWAP2 POP POP JUMPDEST SWAP3 SWAP2 POP POP JUMP JUMPDEST PUSH0 PUSH2 0x2613 DUP5 DUP5 PUSH2 0x2314 JUMP JUMPDEST SWAP1 POP PUSH32 0xFFFFFFFFFFFFFFFFFFFFFFFFFFFFFFFFFFFFFFFFFFFFFFFFFFFFFFFFFFFFFFFF DUP2 EQ PUSH2 0x2694 JUMPI DUP2 DUP2 LT ISZERO PUSH2 0x2685 JUMPI DUP3 DUP2 DUP4 PUSH1 0x40 MLOAD PUSH32 0xFB8F41B200000000000000000000000000000000000000000000000000000000 DUP2 MSTORE PUSH1 0x4 ADD PUSH2 0x267C SWAP4 SWAP3 SWAP2 SWAP1 PUSH2 0x4DC7 JUMP JUMPDEST PUSH1 0x40 MLOAD DUP1 SWAP2 SUB SWAP1 REVERT JUMPDEST PUSH2 0x2693 DUP5 DUP5 DUP5 DUP5 SUB PUSH0 PUSH2 0x2EB4 JUMP JUMPDEST JUMPDEST POP POP POP POP JUMP JUMPDEST PUSH0 PUSH20 0xFFFFFFFFFFFFFFFFFFFFFFFFFFFFFFFFFFFFFFFF AND DUP4 PUSH20 0xFFFFFFFFFFFFFFFFFFFFFFFFFFFFFFFFFFFFFFFF AND SUB PUSH2 0x270A JUMPI PUSH0 PUSH1 0x40 MLOAD PUSH32 0x96C6FD1E00000000000000000000000000000000000000000000000000000000 DUP2 MSTORE PUSH1 0x4 ADD PUSH2 0x2701 SWAP2 SWAP1 PUSH2 0x41D1 JUMP JUMPDEST PUSH1 0x40 MLOAD DUP1 SWAP2 SUB SWAP1 REVERT JUMPDEST PUSH0 PUSH20 0xFFFFFFFFFFFFFFFFFFFFFFFFFFFFFFFFFFFFFFFF AND DUP3 PUSH20 0xFFFFFFFFFFFFFFFFFFFFFFFFFFFFFFFFFFFFFFFF AND SUB PUSH2 0x277A JUMPI PUSH0 PUSH1 0x40 MLOAD PUSH32 0xEC442F0500000000000000000000000000000000000000000000000000000000 DUP2 MSTORE PUSH1 0x4 ADD PUSH2 0x2771 SWAP2 SWAP1 PUSH2 0x41D1 JUMP JUMPDEST PUSH1 0x40 MLOAD DUP1 SWAP2 SUB SWAP1 REVERT JUMPDEST PUSH2 0x2785 DUP4 DUP4 DUP4 PUSH2 0x315C JUMP JUMPDEST POP POP POP JUMP JUMPDEST PUSH0 PUSH32 0x2DD7BC7DEC4DCEEDDA775E58DD541E08A116C6C53815C0BD028192F7B626800 SWAP1 POP SWAP1 JUMP JUMPDEST PUSH2 0x27C2 DUP2 PUSH2 0x27BD PUSH2 0x2482 JUMP JUMPDEST PUSH2 0x3174 JUMP JUMPDEST POP JUMP JUMPDEST PUSH0 DUP1 PUSH2 0x27CF PUSH2 0x278A JUMP JUMPDEST SWAP1 POP PUSH2 0x27DB DUP5 DUP5 PUSH2 0x1ED7 JUMP JUMPDEST ISZERO PUSH2 0x28B2 JUMPI PUSH0 DUP2 PUSH0 ADD PUSH0 DUP7 DUP2 MSTORE PUSH1 0x20 ADD SWAP1 DUP2 MSTORE PUSH1 0x20 ADD PUSH0 KECCAK256 PUSH0 ADD PUSH0 DUP6 PUSH20 0xFFFFFFFFFFFFFFFFFFFFFFFFFFFFFFFFFFFFFFFF AND PUSH20 0xFFFFFFFFFFFFFFFFFFFFFFFFFFFFFFFFFFFFFFFF AND DUP2 MSTORE PUSH1 0x20 ADD SWAP1 DUP2 MSTORE PUSH1 0x20 ADD PUSH0 KECCAK256 PUSH0 PUSH2 0x100 EXP DUP2 SLOAD DUP2 PUSH1 0xFF MUL NOT AND SWAP1 DUP4 ISZERO ISZERO MUL OR SWAP1 SSTORE POP PUSH2 0x284E PUSH2 0x2482 JUMP JUMPDEST PUSH20 0xFFFFFFFFFFFFFFFFFFFFFFFFFFFFFFFFFFFFFFFF AND DUP4 PUSH20 0xFFFFFFFFFFFFFFFFFFFFFFFFFFFFFFFFFFFFFFFF AND DUP6 PUSH32 0xF6391F5C32D9C69D2A47EA670B442974B53935D1EDC7FD64EB21E047A839171B PUSH1 0x40 MLOAD PUSH1 0x40 MLOAD DUP1 SWAP2 SUB SWAP1 LOG4 PUSH1 0x1 SWAP2 POP POP PUSH2 0x28B7 JUMP JUMPDEST PUSH0 SWAP2 POP POP JUMPDEST SWAP3 SWAP2 POP POP JUMP JUMPDEST PUSH2 0x28C5 PUSH2 0x2C0B JUMP JUMPDEST PUSH0 PUSH2 0x28CE PUSH2 0x2BE4 JUMP JUMPDEST SWAP1 POP PUSH0 DUP2 PUSH0 ADD PUSH0 PUSH2 0x100 EXP DUP2 SLOAD DUP2 PUSH1 0xFF MUL NOT AND SWAP1 DUP4 ISZERO ISZERO MUL OR SWAP1 SSTORE POP PUSH32 0x5DB9EE0A495BF2E6FF9C91A7834C1BA4FDD244A5E8AA4E537BD38AEAE4B073AA PUSH2 0x2913 PUSH2 0x2482 JUMP JUMPDEST PUSH1 0x40 MLOAD PUSH2 0x2920 SWAP2 SWAP1 PUSH2 0x41D1 JUMP JUMPDEST PUSH1 0x40 MLOAD DUP1 SWAP2 SUB SWAP1 LOG1 POP JUMP JUMPDEST PUSH32 0x0 PUSH20 0xFFFFFFFFFFFFFFFFFFFFFFFFFFFFFFFFFFFFFFFF AND ADDRESS PUSH20 0xFFFFFFFFFFFFFFFFFFFFFFFFFFFFFFFFFFFFFFFF AND EQ DUP1 PUSH2 0x29D8 JUMPI POP PUSH32 0x0 PUSH20 0xFFFFFFFFFFFFFFFFFFFFFFFFFFFFFFFFFFFFFFFF AND PUSH2 0x29BF PUSH2 0x31C5 JUMP JUMPDEST PUSH20 0xFFFFFFFFFFFFFFFFFFFFFFFFFFFFFFFFFFFFFFFF AND EQ ISZERO JUMPDEST ISZERO PUSH2 0x2A0F JUMPI PUSH1 0x40 MLOAD PUSH32 0xE07C8DBA00000000000000000000000000000000000000000000000000000000 DUP2 MSTORE PUSH1 0x4 ADD PUSH1 0x40 MLOAD DUP1 SWAP2 SUB SWAP1 REVERT JUMPDEST JUMP JUMPDEST PUSH32 0x189AB7A9244DF0848122154315AF71FE140F3DB0FE014031783B0946B8C9D2E3 PUSH2 0x2A3B DUP2 PUSH2 0x27B1 JUMP JUMPDEST POP POP JUMP JUMPDEST DUP2 PUSH20 0xFFFFFFFFFFFFFFFFFFFFFFFFFFFFFFFFFFFFFFFF AND PUSH4 0x52D1902D PUSH1 0x40 MLOAD DUP2 PUSH4 0xFFFFFFFF AND PUSH1 0xE0 SHL DUP2 MSTORE PUSH1 0x4 ADD PUSH1 0x20 PUSH1 0x40 MLOAD DUP1 DUP4 SUB DUP2 DUP7 GAS STATICCALL SWAP3 POP POP POP DUP1 ISZERO PUSH2 0x2AA7 JUMPI POP PUSH1 0x40 MLOAD RETURNDATASIZE PUSH1 0x1F NOT PUSH1 0x1F DUP3 ADD AND DUP3 ADD DUP1 PUSH1 0x40 MSTORE POP DUP2 ADD SWAP1 PUSH2 0x2AA4 SWAP2 SWAP1 PUSH2 0x4E10 JUMP JUMPDEST PUSH1 0x1 JUMPDEST PUSH2 0x2AE8 JUMPI DUP2 PUSH1 0x40 MLOAD PUSH32 0x4C9C8CE300000000000000000000000000000000000000000000000000000000 DUP2 MSTORE PUSH1 0x4 ADD PUSH2 0x2ADF SWAP2 SWAP1 PUSH2 0x41D1 JUMP JUMPDEST PUSH1 0x40 MLOAD DUP1 SWAP2 SUB SWAP1 REVERT JUMPDEST PUSH32 0x360894A13BA1A3210667C828492DB98DCA3E2076CC3735A920A3CA505D382BBC PUSH0 SHL DUP2 EQ PUSH2 0x2B4E JUMPI DUP1 PUSH1 0x40 MLOAD PUSH32 0xAA1D49A400000000000000000000000000000000000000000000000000000000 DUP2 MSTORE PUSH1 0x4 ADD PUSH2 0x2B45 SWAP2 SWAP1 PUSH2 0x3EA6 JUMP JUMPDEST PUSH1 0x40 MLOAD DUP1 SWAP2 SUB SWAP1 REVERT JUMPDEST PUSH2 0x2B58 DUP4 DUP4 PUSH2 0x3218 JUMP JUMPDEST POP POP POP JUMP JUMPDEST PUSH32 0x0 PUSH20 0xFFFFFFFFFFFFFFFFFFFFFFFFFFFFFFFFFFFFFFFF AND ADDRESS PUSH20 0xFFFFFFFFFFFFFFFFFFFFFFFFFFFFFFFFFFFFFFFF AND EQ PUSH2 0x2BE2 JUMPI PUSH1 0x40 MLOAD PUSH32 0xE07C8DBA00000000000000000000000000000000000000000000000000000000 DUP2 MSTORE PUSH1 0x4 ADD PUSH1 0x40 MLOAD DUP1 SWAP2 SUB SWAP1 REVERT JUMPDEST JUMP JUMPDEST PUSH0 PUSH32 0xCD5ED15C6E187E77E9AEE88184C21F4F2182AB5827CB3B7E07FBEDCD63F03300 SWAP1 POP SWAP1 JUMP JUMPDEST PUSH2 0x2C13 PUSH2 0x187A JUMP JUMPDEST PUSH2 0x2C49 JUMPI PUSH1 0x40 MLOAD PUSH32 0x8DFC202B00000000000000000000000000000000000000000000000000000000 DUP2 MSTORE PUSH1 0x4 ADD PUSH1 0x40 MLOAD DUP1 SWAP2 SUB SWAP1 REVERT JUMPDEST JUMP JUMPDEST PUSH2 0x2C53 PUSH2 0x187A JUMP JUMPDEST ISZERO PUSH2 0x2C8A JUMPI PUSH1 0x40 MLOAD PUSH32 0xD93C066500000000000000000000000000000000000000000000000000000000 DUP2 MSTORE PUSH1 0x4 ADD PUSH1 0x40 MLOAD DUP1 SWAP2 SUB SWAP1 REVERT JUMPDEST JUMP JUMPDEST PUSH0 PUSH2 0x2C95 PUSH2 0x328A JUMP JUMPDEST SWAP1 POP PUSH1 0x2 DUP2 PUSH0 ADD SLOAD SUB PUSH2 0x2CD4 JUMPI PUSH1 0x40 MLOAD PUSH32 0x3EE5AEB500000000000000000000000000000000000000000000000000000000 DUP2 MSTORE PUSH1 0x4 ADD PUSH1 0x40 MLOAD DUP1 SWAP2 SUB SWAP1 REVERT JUMPDEST PUSH1 0x2 DUP2 PUSH0 ADD DUP2 SWAP1 SSTORE POP POP JUMP JUMPDEST PUSH0 PUSH1 0x30 DUP3 MLOAD EQ PUSH2 0x2D27 JUMPI DUP2 PUSH1 0x40 MLOAD PUSH32 0xBA7E77A400000000000000000000000000000000000000000000000000000000 DUP2 MSTORE PUSH1 0x4 ADD PUSH2 0x2D1E SWAP2 SWAP1 PUSH2 0x3C0B JUMP JUMPDEST PUSH1 0x40 MLOAD DUP1 SWAP2 SUB SWAP1 REVERT JUMPDEST PUSH1 0x1 SWAP1 POP SWAP2 SWAP1 POP JUMP JUMPDEST PUSH0 PUSH20 0xFFFFFFFFFFFFFFFFFFFFFFFFFFFFFFFFFFFFFFFF AND DUP3 PUSH20 0xFFFFFFFFFFFFFFFFFFFFFFFFFFFFFFFFFFFFFFFF AND SUB PUSH2 0x2DA0 JUMPI PUSH0 PUSH1 0x40 MLOAD PUSH32 0x96C6FD1E00000000000000000000000000000000000000000000000000000000 DUP2 MSTORE PUSH1 0x4 ADD PUSH2 0x2D97 SWAP2 SWAP1 PUSH2 0x41D1 JUMP JUMPDEST PUSH1 0x40 MLOAD DUP1 SWAP2 SUB SWAP1 REVERT JUMPDEST PUSH2 0x2DAB DUP3 PUSH0 DUP4 PUSH2 0x315C JUMP JUMPDEST POP POP JUMP JUMPDEST PUSH0 PUSH2 0x2DB8 PUSH2 0x328A JUMP JUMPDEST SWAP1 POP PUSH1 0x1 DUP2 PUSH0 ADD DUP2 SWAP1 SSTORE POP POP JUMP JUMPDEST PUSH2 0x2DCE PUSH2 0x2C4B JUMP JUMPDEST PUSH0 PUSH2 0x2DD7 PUSH2 0x2BE4 JUMP JUMPDEST SWAP1 POP PUSH1 0x1 DUP2 PUSH0 ADD PUSH0 PUSH2 0x100 EXP DUP2 SLOAD DUP2 PUSH1 0xFF MUL NOT AND SWAP1 DUP4 ISZERO ISZERO MUL OR SWAP1 SSTORE POP PUSH32 0x62E78CEA01BEE320CD4E420270B5EA74000D11B0C9F74754EBDBFC544B05A258 PUSH2 0x2E1D PUSH2 0x2482 JUMP JUMPDEST PUSH1 0x40 MLOAD PUSH2 0x2E2A SWAP2 SWAP1 PUSH2 0x41D1 JUMP JUMPDEST PUSH1 0x40 MLOAD DUP1 SWAP2 SUB SWAP1 LOG1 POP JUMP JUMPDEST PUSH0 PUSH20 0xFFFFFFFFFFFFFFFFFFFFFFFFFFFFFFFFFFFFFFFF AND DUP3 PUSH20 0xFFFFFFFFFFFFFFFFFFFFFFFFFFFFFFFFFFFFFFFF AND SUB PUSH2 0x2EA5 JUMPI PUSH0 PUSH1 0x40 MLOAD PUSH32 0xEC442F0500000000000000000000000000000000000000000000000000000000 DUP2 MSTORE PUSH1 0x4 ADD PUSH2 0x2E9C SWAP2 SWAP1 PUSH2 0x41D1 JUMP JUMPDEST PUSH1 0x40 MLOAD DUP1 SWAP2 SUB SWAP1 REVERT JUMPDEST PUSH2 0x2EB0 PUSH0 DUP4 DUP4 PUSH2 0x315C JUMP JUMPDEST POP POP JUMP JUMPDEST PUSH0 PUSH2 0x2EBD PUSH2 0x245B JUMP JUMPDEST SWAP1 POP PUSH0 PUSH20 0xFFFFFFFFFFFFFFFFFFFFFFFFFFFFFFFFFFFFFFFF AND DUP6 PUSH20 0xFFFFFFFFFFFFFFFFFFFFFFFFFFFFFFFFFFFFFFFF AND SUB PUSH2 0x2F2F JUMPI PUSH0 PUSH1 0x40 MLOAD PUSH32 0xE602DF0500000000000000000000000000000000000000000000000000000000 DUP2 MSTORE PUSH1 0x4 ADD PUSH2 0x2F26 SWAP2 SWAP1 PUSH2 0x41D1 JUMP JUMPDEST PUSH1 0x40 MLOAD DUP1 SWAP2 SUB SWAP1 REVERT JUMPDEST PUSH0 PUSH20 0xFFFFFFFFFFFFFFFFFFFFFFFFFFFFFFFFFFFFFFFF AND DUP5 PUSH20 0xFFFFFFFFFFFFFFFFFFFFFFFFFFFFFFFFFFFFFFFF AND SUB PUSH2 0x2F9F JUMPI PUSH0 PUSH1 0x40 MLOAD PUSH32 0x94280D6200000000000000000000000000000000000000000000000000000000 DUP2 MSTORE PUSH1 0x4 ADD PUSH2 0x2F96 SWAP2 SWAP1 PUSH2 0x41D1 JUMP JUMPDEST PUSH1 0x40 MLOAD DUP1 SWAP2 SUB SWAP1 REVERT JUMPDEST DUP3 DUP2 PUSH1 0x1 ADD PUSH0 DUP8 PUSH20 0xFFFFFFFFFFFFFFFFFFFFFFFFFFFFFFFFFFFFFFFF AND PUSH20 0xFFFFFFFFFFFFFFFFFFFFFFFFFFFFFFFFFFFFFFFF AND DUP2 MSTORE PUSH1 0x20 ADD SWAP1 DUP2 MSTORE PUSH1 0x20 ADD PUSH0 KECCAK256 PUSH0 DUP7 PUSH20 0xFFFFFFFFFFFFFFFFFFFFFFFFFFFFFFFFFFFFFFFF AND PUSH20 0xFFFFFFFFFFFFFFFFFFFFFFFFFFFFFFFFFFFFFFFF AND DUP2 MSTORE PUSH1 0x20 ADD SWAP1 DUP2 MSTORE PUSH1 0x20 ADD PUSH0 KECCAK256 DUP2 SWAP1 SSTORE POP DUP2 ISZERO PUSH2 0x308A JUMPI DUP4 PUSH20 0xFFFFFFFFFFFFFFFFFFFFFFFFFFFFFFFFFFFFFFFF AND DUP6 PUSH20 0xFFFFFFFFFFFFFFFFFFFFFFFFFFFFFFFFFFFFFFFF AND PUSH32 0x8C5BE1E5EBEC7D5BD14F71427D1E84F3DD0314C0F7B2291E5B200AC8C7C3B925 DUP6 PUSH1 0x40 MLOAD PUSH2 0x3081 SWAP2 SWAP1 PUSH2 0x3C43 JUMP JUMPDEST PUSH1 0x40 MLOAD DUP1 SWAP2 SUB SWAP1 LOG3 JUMPDEST POP POP POP POP POP JUMP JUMPDEST PUSH2 0x3099 PUSH2 0x32B1 JUMP JUMPDEST PUSH2 0x30CF JUMPI PUSH1 0x40 MLOAD PUSH32 0xD7E6BCF800000000000000000000000000000000000000000000000000000000 DUP2 MSTORE PUSH1 0x4 ADD PUSH1 0x40 MLOAD DUP1 SWAP2 SUB SWAP1 REVERT JUMPDEST JUMP JUMPDEST PUSH2 0x30D9 PUSH2 0x3091 JUMP JUMPDEST PUSH0 PUSH2 0x30E2 PUSH2 0x245B JUMP JUMPDEST SWAP1 POP DUP3 DUP2 PUSH1 0x3 ADD SWAP1 DUP2 PUSH2 0x30F5 SWAP2 SWAP1 PUSH2 0x4E93 JUMP JUMPDEST POP DUP2 DUP2 PUSH1 0x4 ADD SWAP1 DUP2 PUSH2 0x3107 SWAP2 SWAP1 PUSH2 0x4E93 JUMP JUMPDEST POP POP POP POP JUMP JUMPDEST PUSH2 0x3115 PUSH2 0x3091 JUMP JUMPDEST PUSH0 PUSH2 0x311E PUSH2 0x2BE4 JUMP JUMPDEST SWAP1 POP PUSH0 DUP2 PUSH0 ADD PUSH0 PUSH2 0x100 EXP DUP2 SLOAD DUP2 PUSH1 0xFF MUL NOT AND SWAP1 DUP4 ISZERO ISZERO MUL OR SWAP1 SSTORE POP POP JUMP JUMPDEST PUSH2 0x3145 PUSH2 0x3091 JUMP JUMPDEST PUSH0 PUSH2 0x314E PUSH2 0x328A JUMP JUMPDEST SWAP1 POP PUSH1 0x1 DUP2 PUSH0 ADD DUP2 SWAP1 SSTORE POP POP JUMP JUMPDEST PUSH2 0x3164 PUSH2 0x2C4B JUMP JUMPDEST PUSH2 0x316F DUP4 DUP4 DUP4 PUSH2 0x32CF JUMP JUMPDEST POP POP POP JUMP JUMPDEST PUSH2 0x317E DUP3 DUP3 PUSH2 0x1ED7 JUMP JUMPDEST PUSH2 0x31C1 JUMPI DUP1 DUP3 PUSH1 0x40 MLOAD PUSH32 0xE2517D3F00000000000000000000000000000000000000000000000000000000 DUP2 MSTORE PUSH1 0x4 ADD PUSH2 0x31B8 SWAP3 SWAP2 SWAP1 PUSH2 0x4F62 JUMP JUMPDEST PUSH1 0x40 MLOAD DUP1 SWAP2 SUB SWAP1 REVERT JUMPDEST POP POP JUMP JUMPDEST PUSH0 PUSH2 0x31F1 PUSH32 0x360894A13BA1A3210667C828492DB98DCA3E2076CC3735A920A3CA505D382BBC PUSH0 SHL PUSH2 0x32E7 JUMP JUMPDEST PUSH0 ADD PUSH0 SWAP1 SLOAD SWAP1 PUSH2 0x100 EXP SWAP1 DIV PUSH20 0xFFFFFFFFFFFFFFFFFFFFFFFFFFFFFFFFFFFFFFFF AND SWAP1 POP SWAP1 JUMP JUMPDEST PUSH2 0x3221 DUP3 PUSH2 0x32F0 JUMP JUMPDEST DUP2 PUSH20 0xFFFFFFFFFFFFFFFFFFFFFFFFFFFFFFFFFFFFFFFF AND PUSH32 0xBC7CD75A20EE27FD9ADEBAB32041F755214DBC6BFFA90CC0225B39DA2E5C2D3B PUSH1 0x40 MLOAD PUSH1 0x40 MLOAD DUP1 SWAP2 SUB SWAP1 LOG2 PUSH0 DUP2 MLOAD GT ISZERO PUSH2 0x327D JUMPI PUSH2 0x3277 DUP3 DUP3 PUSH2 0x33B9 JUMP JUMPDEST POP PUSH2 0x3286 JUMP JUMPDEST PUSH2 0x3285 PUSH2 0x3439 JUMP JUMPDEST JUMPDEST POP POP JUMP JUMPDEST PUSH0 PUSH32 0x9B779B17422D0DF92223018B32B4D1FA46E071723D6817E2486D003BECC55F00 SWAP1 POP SWAP1 JUMP JUMPDEST PUSH0 PUSH2 0x32BA PUSH2 0x249B JUMP JUMPDEST PUSH0 ADD PUSH1 0x8 SWAP1 SLOAD SWAP1 PUSH2 0x100 EXP SWAP1 DIV PUSH1 0xFF AND SWAP1 POP SWAP1 JUMP JUMPDEST PUSH2 0x32D7 PUSH2 0x2C4B JUMP JUMPDEST PUSH2 0x32E2 DUP4 DUP4 DUP4 PUSH2 0x3475 JUMP JUMPDEST POP POP POP JUMP JUMPDEST PUSH0 DUP2 SWAP1 POP SWAP2 SWAP1 POP JUMP JUMPDEST PUSH0 DUP2 PUSH20 0xFFFFFFFFFFFFFFFFFFFFFFFFFFFFFFFFFFFFFFFF AND EXTCODESIZE SUB PUSH2 0x334B JUMPI DUP1 PUSH1 0x40 MLOAD PUSH32 0x4C9C8CE300000000000000000000000000000000000000000000000000000000 DUP2 MSTORE PUSH1 0x4 ADD PUSH2 0x3342 SWAP2 SWAP1 PUSH2 0x41D1 JUMP JUMPDEST PUSH1 0x40 MLOAD DUP1 SWAP2 SUB SWAP1 REVERT JUMPDEST DUP1 PUSH2 0x3377 PUSH32 0x360894A13BA1A3210667C828492DB98DCA3E2076CC3735A920A3CA505D382BBC PUSH0 SHL PUSH2 0x32E7 JUMP JUMPDEST PUSH0 ADD PUSH0 PUSH2 0x100 EXP DUP2 SLOAD DUP2 PUSH20 0xFFFFFFFFFFFFFFFFFFFFFFFFFFFFFFFFFFFFFFFF MUL NOT AND SWAP1 DUP4 PUSH20 0xFFFFFFFFFFFFFFFFFFFFFFFFFFFFFFFFFFFFFFFF AND MUL OR SWAP1 SSTORE POP POP JUMP JUMPDEST PUSH1 0x60 PUSH0 DUP1 DUP5 PUSH20 0xFFFFFFFFFFFFFFFFFFFFFFFFFFFFFFFFFFFFFFFF AND DUP5 PUSH1 0x40 MLOAD PUSH2 0x33E2 SWAP2 SWAP1 PUSH2 0x4FC3 JUMP JUMPDEST PUSH0 PUSH1 0x40 MLOAD DUP1 DUP4 SUB DUP2 DUP6 GAS DELEGATECALL SWAP2 POP POP RETURNDATASIZE DUP1 PUSH0 DUP2 EQ PUSH2 0x341A JUMPI PUSH1 0x40 MLOAD SWAP2 POP PUSH1 0x1F NOT PUSH1 0x3F RETURNDATASIZE ADD AND DUP3 ADD PUSH1 0x40 MSTORE RETURNDATASIZE DUP3 MSTORE RETURNDATASIZE PUSH0 PUSH1 0x20 DUP5 ADD RETURNDATACOPY PUSH2 0x341F JUMP JUMPDEST PUSH1 0x60 SWAP2 POP JUMPDEST POP SWAP2 POP SWAP2 POP PUSH2 0x342F DUP6 DUP4 DUP4 PUSH2 0x36A4 JUMP JUMPDEST SWAP3 POP POP POP SWAP3 SWAP2 POP POP JUMP JUMPDEST PUSH0 CALLVALUE GT ISZERO PUSH2 0x3473 JUMPI PUSH1 0x40 MLOAD PUSH32 0xB398979F00000000000000000000000000000000000000000000000000000000 DUP2 MSTORE PUSH1 0x4 ADD PUSH1 0x40 MLOAD DUP1 SWAP2 SUB SWAP1 REVERT JUMPDEST JUMP JUMPDEST PUSH0 PUSH2 0x347E PUSH2 0x245B JUMP JUMPDEST SWAP1 POP PUSH0 PUSH20 0xFFFFFFFFFFFFFFFFFFFFFFFFFFFFFFFFFFFFFFFF AND DUP5 PUSH20 0xFFFFFFFFFFFFFFFFFFFFFFFFFFFFFFFFFFFFFFFF AND SUB PUSH2 0x34D2 JUMPI DUP2 DUP2 PUSH1 0x2 ADD PUSH0 DUP3 DUP3 SLOAD PUSH2 0x34C6 SWAP2 SWAP1 PUSH2 0x4D15 JUMP JUMPDEST SWAP3 POP POP DUP2 SWAP1 SSTORE POP PUSH2 0x35A4 JUMP JUMPDEST PUSH0 DUP2 PUSH0 ADD PUSH0 DUP7 PUSH20 0xFFFFFFFFFFFFFFFFFFFFFFFFFFFFFFFFFFFFFFFF AND PUSH20 0xFFFFFFFFFFFFFFFFFFFFFFFFFFFFFFFFFFFFFFFF AND DUP2 MSTORE PUSH1 0x20 ADD SWAP1 DUP2 MSTORE PUSH1 0x20 ADD PUSH0 KECCAK256 SLOAD SWAP1 POP DUP3 DUP2 LT ISZERO PUSH2 0x355D JUMPI DUP5 DUP2 DUP5 PUSH1 0x40 MLOAD PUSH32 0xE450D38C00000000000000000000000000000000000000000000000000000000 DUP2 MSTORE PUSH1 0x4 ADD PUSH2 0x3554 SWAP4 SWAP3 SWAP2 SWAP1 PUSH2 0x4DC7 JUMP JUMPDEST PUSH1 0x40 MLOAD DUP1 SWAP2 SUB SWAP1 REVERT JUMPDEST DUP3 DUP2 SUB DUP3 PUSH0 ADD PUSH0 DUP8 PUSH20 0xFFFFFFFFFFFFFFFFFFFFFFFFFFFFFFFFFFFFFFFF AND PUSH20 0xFFFFFFFFFFFFFFFFFFFFFFFFFFFFFFFFFFFFFFFF AND DUP2 MSTORE PUSH1 0x20 ADD SWAP1 DUP2 MSTORE PUSH1 0x20 ADD PUSH0 KECCAK256 DUP2 SWAP1 SSTORE POP POP JUMPDEST PUSH0 PUSH20 0xFFFFFFFFFFFFFFFFFFFFFFFFFFFFFFFFFFFFFFFF AND DUP4 PUSH20 0xFFFFFFFFFFFFFFFFFFFFFFFFFFFFFFFFFFFFFFFF AND SUB PUSH2 0x35ED JUMPI DUP2 DUP2 PUSH1 0x2 ADD PUSH0 DUP3 DUP3 SLOAD SUB SWAP3 POP POP DUP2 SWAP1 SSTORE POP PUSH2 0x3639 JUMP JUMPDEST DUP2 DUP2 PUSH0 ADD PUSH0 DUP6 PUSH20 0xFFFFFFFFFFFFFFFFFFFFFFFFFFFFFFFFFFFFFFFF AND PUSH20 0xFFFFFFFFFFFFFFFFFFFFFFFFFFFFFFFFFFFFFFFF AND DUP2 MSTORE PUSH1 0x20 ADD SWAP1 DUP2 MSTORE PUSH1 0x20 ADD PUSH0 KECCAK256 PUSH0 DUP3 DUP3 SLOAD ADD SWAP3 POP POP DUP2 SWAP1 SSTORE POP JUMPDEST DUP3 PUSH20 0xFFFFFFFFFFFFFFFFFFFFFFFFFFFFFFFFFFFFFFFF AND DUP5 PUSH20 0xFFFFFFFFFFFFFFFFFFFFFFFFFFFFFFFFFFFFFFFF AND PUSH32 0xDDF252AD1BE2C89B69C2B068FC378DAA952BA7F163C4A11628F55A4DF523B3EF DUP5 PUSH1 0x40 MLOAD PUSH2 0x3696 SWAP2 SWAP1 PUSH2 0x3C43 JUMP JUMPDEST PUSH1 0x40 MLOAD DUP1 SWAP2 SUB SWAP1 LOG3 POP POP POP POP JUMP JUMPDEST PUSH1 0x60 DUP3 PUSH2 0x36B9 JUMPI PUSH2 0x36B4 DUP3 PUSH2 0x3731 JUMP JUMPDEST PUSH2 0x3729 JUMP JUMPDEST PUSH0 DUP3 MLOAD EQ DUP1 ISZERO PUSH2 0x36DF JUMPI POP PUSH0 DUP5 PUSH20 0xFFFFFFFFFFFFFFFFFFFFFFFFFFFFFFFFFFFFFFFF AND EXTCODESIZE EQ JUMPDEST ISZERO PUSH2 0x3721 JUMPI DUP4 PUSH1 0x40 MLOAD PUSH32 0x9996B31500000000000000000000000000000000000000000000000000000000 DUP2 MSTORE PUSH1 0x4 ADD PUSH2 0x3718 SWAP2 SWAP1 PUSH2 0x41D1 JUMP JUMPDEST PUSH1 0x40 MLOAD DUP1 SWAP2 SUB SWAP1 REVERT JUMPDEST DUP2 SWAP1 POP PUSH2 0x372A JUMP JUMPDEST JUMPDEST SWAP4 SWAP3 POP POP POP JUMP JUMPDEST PUSH0 DUP2 MLOAD GT ISZERO PUSH2 0x3743 JUMPI DUP1 MLOAD DUP1 DUP3 PUSH1 0x20 ADD REVERT JUMPDEST PUSH1 0x40 MLOAD PUSH32 0x1425EA4200000000000000000000000000000000000000000000000000000000 DUP2 MSTORE PUSH1 0x4 ADD PUSH1 0x40 MLOAD DUP1 SWAP2 SUB SWAP1 REVERT JUMPDEST PUSH0 PUSH1 0x40 MLOAD SWAP1 POP SWAP1 JUMP JUMPDEST PUSH0 DUP1 REVERT JUMPDEST PUSH0 DUP1 REVERT JUMPDEST PUSH0 PUSH32 0xFFFFFFFF00000000000000000000000000000000000000000000000000000000 DUP3 AND SWAP1 POP SWAP2 SWAP1 POP JUMP JUMPDEST PUSH2 0x37BA DUP2 PUSH2 0x3786 JUMP JUMPDEST DUP2 EQ PUSH2 0x37C4 JUMPI PUSH0 DUP1 REVERT JUMPDEST POP JUMP JUMPDEST PUSH0 DUP2 CALLDATALOAD SWAP1 POP PUSH2 0x37D5 DUP2 PUSH2 0x37B1 JUMP JUMPDEST SWAP3 SWAP2 POP POP JUMP JUMPDEST PUSH0 PUSH1 0x20 DUP3 DUP5 SUB SLT ISZERO PUSH2 0x37F0 JUMPI PUSH2 0x37EF PUSH2 0x377E JUMP JUMPDEST JUMPDEST PUSH0 PUSH2 0x37FD DUP5 DUP3 DUP6 ADD PUSH2 0x37C7 JUMP JUMPDEST SWAP2 POP POP SWAP3 SWAP2 POP POP JUMP JUMPDEST PUSH0 DUP2 ISZERO ISZERO SWAP1 POP SWAP2 SWAP1 POP JUMP JUMPDEST PUSH2 0x381A DUP2 PUSH2 0x3806 JUMP JUMPDEST DUP3 MSTORE POP POP JUMP JUMPDEST PUSH0 PUSH1 0x20 DUP3 ADD SWAP1 POP PUSH2 0x3833 PUSH0 DUP4 ADD DUP5 PUSH2 0x3811 JUMP JUMPDEST SWAP3 SWAP2 POP POP JUMP JUMPDEST PUSH0 DUP1 REVERT JUMPDEST PUSH0 DUP1 REVERT JUMPDEST PUSH0 DUP1 REVERT JUMPDEST PUSH0 DUP1 DUP4 PUSH1 0x1F DUP5 ADD SLT PUSH2 0x385A JUMPI PUSH2 0x3859 PUSH2 0x3839 JUMP JUMPDEST JUMPDEST DUP3 CALLDATALOAD SWAP1 POP PUSH8 0xFFFFFFFFFFFFFFFF DUP2 GT ISZERO PUSH2 0x3877 JUMPI PUSH2 0x3876 PUSH2 0x383D JUMP JUMPDEST JUMPDEST PUSH1 0x20 DUP4 ADD SWAP2 POP DUP4 PUSH1 0x1 DUP3 MUL DUP4 ADD GT ISZERO PUSH2 0x3893 JUMPI PUSH2 0x3892 PUSH2 0x3841 JUMP JUMPDEST JUMPDEST SWAP3 POP SWAP3 SWAP1 POP JUMP JUMPDEST PUSH0 DUP1 PUSH1 0x20 DUP4 DUP6 SUB SLT ISZERO PUSH2 0x38B0 JUMPI PUSH2 0x38AF PUSH2 0x377E JUMP JUMPDEST JUMPDEST PUSH0 DUP4 ADD CALLDATALOAD PUSH8 0xFFFFFFFFFFFFFFFF DUP2 GT ISZERO PUSH2 0x38CD JUMPI PUSH2 0x38CC PUSH2 0x3782 JUMP JUMPDEST JUMPDEST PUSH2 0x38D9 DUP6 DUP3 DUP7 ADD PUSH2 0x3845 JUMP JUMPDEST SWAP3 POP SWAP3 POP POP SWAP3 POP SWAP3 SWAP1 POP JUMP JUMPDEST PUSH0 DUP2 MLOAD SWAP1 POP SWAP2 SWAP1 POP JUMP JUMPDEST PUSH0 DUP3 DUP3 MSTORE PUSH1 0x20 DUP3 ADD SWAP1 POP SWAP3 SWAP2 POP POP JUMP JUMPDEST PUSH0 DUP2 SWAP1 POP PUSH1 0x20 DUP3 ADD SWAP1 POP SWAP2 SWAP1 POP JUMP JUMPDEST PUSH0 PUSH20 0xFFFFFFFFFFFFFFFFFFFFFFFFFFFFFFFFFFFFFFFF DUP3 AND SWAP1 POP SWAP2 SWAP1 POP JUMP JUMPDEST PUSH0 PUSH2 0x3937 DUP3 PUSH2 0x390E JUMP JUMPDEST SWAP1 POP SWAP2 SWAP1 POP JUMP JUMPDEST PUSH2 0x3947 DUP2 PUSH2 0x392D JUMP JUMPDEST DUP3 MSTORE POP POP JUMP JUMPDEST PUSH0 DUP2 MLOAD SWAP1 POP SWAP2 SWAP1 POP JUMP JUMPDEST PUSH0 DUP3 DUP3 MSTORE PUSH1 0x20 DUP3 ADD SWAP1 POP SWAP3 SWAP2 POP POP JUMP JUMPDEST DUP3 DUP2 DUP4 MCOPY PUSH0 DUP4 DUP4 ADD MSTORE POP POP POP JUMP JUMPDEST PUSH0 PUSH1 0x1F NOT PUSH1 0x1F DUP4 ADD AND SWAP1 POP SWAP2 SWAP1 POP JUMP JUMPDEST PUSH0 PUSH2 0x398F DUP3 PUSH2 0x394D JUMP JUMPDEST PUSH2 0x3999 DUP2 DUP6 PUSH2 0x3957 JUMP JUMPDEST SWAP4 POP PUSH2 0x39A9 DUP2 DUP6 PUSH1 0x20 DUP7 ADD PUSH2 0x3967 JUMP JUMPDEST PUSH2 0x39B2 DUP2 PUSH2 0x3975 JUMP JUMPDEST DUP5 ADD SWAP2 POP POP SWAP3 SWAP2 POP POP JUMP JUMPDEST PUSH0 PUSH1 0x40 DUP4 ADD PUSH0 DUP4 ADD MLOAD PUSH2 0x39D2 PUSH0 DUP7 ADD DUP3 PUSH2 0x393E JUMP JUMPDEST POP PUSH1 0x20 DUP4 ADD MLOAD DUP5 DUP3 SUB PUSH1 0x20 DUP7 ADD MSTORE PUSH2 0x39EA DUP3 DUP3 PUSH2 0x3985 JUMP JUMPDEST SWAP2 POP POP DUP1 SWAP2 POP POP SWAP3 SWAP2 POP POP JUMP JUMPDEST PUSH0 PUSH2 0x3A02 DUP4 DUP4 PUSH2 0x39BD JUMP JUMPDEST SWAP1 POP SWAP3 SWAP2 POP POP JUMP JUMPDEST PUSH0 PUSH1 0x20 DUP3 ADD SWAP1 POP SWAP2 SWAP1 POP JUMP JUMPDEST PUSH0 PUSH2 0x3A20 DUP3 PUSH2 0x38E5 JUMP JUMPDEST PUSH2 0x3A2A DUP2 DUP6 PUSH2 0x38EF JUMP JUMPDEST SWAP4 POP DUP4 PUSH1 0x20 DUP3 MUL DUP6 ADD PUSH2 0x3A3C DUP6 PUSH2 0x38FF JUMP JUMPDEST DUP1 PUSH0 JUMPDEST DUP6 DUP2 LT ISZERO PUSH2 0x3A77 JUMPI DUP5 DUP5 SUB DUP10 MSTORE DUP2 MLOAD PUSH2 0x3A58 DUP6 DUP3 PUSH2 0x39F7 JUMP JUMPDEST SWAP5 POP PUSH2 0x3A63 DUP4 PUSH2 0x3A0A JUMP JUMPDEST SWAP3 POP PUSH1 0x20 DUP11 ADD SWAP10 POP POP PUSH1 0x1 DUP2 ADD SWAP1 POP PUSH2 0x3A3F JUMP JUMPDEST POP DUP3 SWAP8 POP DUP8 SWAP6 POP POP POP POP POP POP SWAP3 SWAP2 POP POP JUMP JUMPDEST PUSH0 PUSH1 0x20 DUP3 ADD SWAP1 POP DUP2 DUP2 SUB PUSH0 DUP4 ADD MSTORE PUSH2 0x3AA1 DUP2 DUP5 PUSH2 0x3A16 JUMP JUMPDEST SWAP1 POP SWAP3 SWAP2 POP POP JUMP JUMPDEST PUSH2 0x3AB2 DUP2 PUSH2 0x392D JUMP JUMPDEST DUP2 EQ PUSH2 0x3ABC JUMPI PUSH0 DUP1 REVERT JUMPDEST POP JUMP JUMPDEST PUSH0 DUP2 CALLDATALOAD SWAP1 POP PUSH2 0x3ACD DUP2 PUSH2 0x3AA9 JUMP JUMPDEST SWAP3 SWAP2 POP POP JUMP JUMPDEST PUSH0 DUP1 DUP4 PUSH1 0x1F DUP5 ADD SLT PUSH2 0x3AE8 JUMPI PUSH2 0x3AE7 PUSH2 0x3839 JUMP JUMPDEST JUMPDEST DUP3 CALLDATALOAD SWAP1 POP PUSH8 0xFFFFFFFFFFFFFFFF DUP2 GT ISZERO PUSH2 0x3B05 JUMPI PUSH2 0x3B04 PUSH2 0x383D JUMP JUMPDEST JUMPDEST PUSH1 0x20 DUP4 ADD SWAP2 POP DUP4 PUSH1 0x1 DUP3 MUL DUP4 ADD GT ISZERO PUSH2 0x3B21 JUMPI PUSH2 0x3B20 PUSH2 0x3841 JUMP JUMPDEST JUMPDEST SWAP3 POP SWAP3 SWAP1 POP JUMP JUMPDEST PUSH0 DUP1 PUSH0 DUP1 PUSH0 PUSH1 0x60 DUP7 DUP9 SUB SLT ISZERO PUSH2 0x3B41 JUMPI PUSH2 0x3B40 PUSH2 0x377E JUMP JUMPDEST JUMPDEST PUSH0 DUP7 ADD CALLDATALOAD PUSH8 0xFFFFFFFFFFFFFFFF DUP2 GT ISZERO PUSH2 0x3B5E JUMPI PUSH2 0x3B5D PUSH2 0x3782 JUMP JUMPDEST JUMPDEST PUSH2 0x3B6A DUP9 DUP3 DUP10 ADD PUSH2 0x3845 JUMP JUMPDEST SWAP6 POP SWAP6 POP POP PUSH1 0x20 PUSH2 0x3B7D DUP9 DUP3 DUP10 ADD PUSH2 0x3ABF JUMP JUMPDEST SWAP4 POP POP PUSH1 0x40 DUP7 ADD CALLDATALOAD PUSH8 0xFFFFFFFFFFFFFFFF DUP2 GT ISZERO PUSH2 0x3B9E JUMPI PUSH2 0x3B9D PUSH2 0x3782 JUMP JUMPDEST JUMPDEST PUSH2 0x3BAA DUP9 DUP3 DUP10 ADD PUSH2 0x3AD3 JUMP JUMPDEST SWAP3 POP SWAP3 POP POP SWAP3 SWAP6 POP SWAP3 SWAP6 SWAP1 SWAP4 POP JUMP JUMPDEST PUSH0 DUP2 MLOAD SWAP1 POP SWAP2 SWAP1 POP JUMP JUMPDEST PUSH0 DUP3 DUP3 MSTORE PUSH1 0x20 DUP3 ADD SWAP1 POP SWAP3 SWAP2 POP POP JUMP JUMPDEST PUSH0 PUSH2 0x3BDD DUP3 PUSH2 0x3BB9 JUMP JUMPDEST PUSH2 0x3BE7 DUP2 DUP6 PUSH2 0x3BC3 JUMP JUMPDEST SWAP4 POP PUSH2 0x3BF7 DUP2 DUP6 PUSH1 0x20 DUP7 ADD PUSH2 0x3967 JUMP JUMPDEST PUSH2 0x3C00 DUP2 PUSH2 0x3975 JUMP JUMPDEST DUP5 ADD SWAP2 POP POP SWAP3 SWAP2 POP POP JUMP JUMPDEST PUSH0 PUSH1 0x20 DUP3 ADD SWAP1 POP DUP2 DUP2 SUB PUSH0 DUP4 ADD MSTORE PUSH2 0x3C23 DUP2 DUP5 PUSH2 0x3BD3 JUMP JUMPDEST SWAP1 POP SWAP3 SWAP2 POP POP JUMP JUMPDEST PUSH0 DUP2 SWAP1 POP SWAP2 SWAP1 POP JUMP JUMPDEST PUSH2 0x3C3D DUP2 PUSH2 0x3C2B JUMP JUMPDEST DUP3 MSTORE POP POP JUMP JUMPDEST PUSH0 PUSH1 0x20 DUP3 ADD SWAP1 POP PUSH2 0x3C56 PUSH0 DUP4 ADD DUP5 PUSH2 0x3C34 JUMP JUMPDEST SWAP3 SWAP2 POP POP JUMP JUMPDEST PUSH2 0x3C65 DUP2 PUSH2 0x3C2B JUMP JUMPDEST DUP2 EQ PUSH2 0x3C6F JUMPI PUSH0 DUP1 REVERT JUMPDEST POP JUMP JUMPDEST PUSH0 DUP2 CALLDATALOAD SWAP1 POP PUSH2 0x3C80 DUP2 PUSH2 0x3C5C JUMP JUMPDEST SWAP3 SWAP2 POP POP JUMP JUMPDEST PUSH0 DUP1 PUSH1 0x40 DUP4 DUP6 SUB SLT ISZERO PUSH2 0x3C9C JUMPI PUSH2 0x3C9B PUSH2 0x377E JUMP JUMPDEST JUMPDEST PUSH0 PUSH2 0x3CA9 DUP6 DUP3 DUP7 ADD PUSH2 0x3ABF JUMP JUMPDEST SWAP3 POP POP PUSH1 0x20 PUSH2 0x3CBA DUP6 DUP3 DUP7 ADD PUSH2 0x3C72 JUMP JUMPDEST SWAP2 POP POP SWAP3 POP SWAP3 SWAP1 POP JUMP JUMPDEST PUSH0 PUSH1 0xFF DUP3 AND SWAP1 POP SWAP2 SWAP1 POP JUMP JUMPDEST PUSH2 0x3CD9 DUP2 PUSH2 0x3CC4 JUMP JUMPDEST DUP2 EQ PUSH2 0x3CE3 JUMPI PUSH0 DUP1 REVERT JUMPDEST POP JUMP JUMPDEST PUSH0 DUP2 CALLDATALOAD SWAP1 POP PUSH2 0x3CF4 DUP2 PUSH2 0x3CD0 JUMP JUMPDEST SWAP3 SWAP2 POP POP JUMP JUMPDEST PUSH0 DUP1 PUSH1 0x40 DUP4 DUP6 SUB SLT ISZERO PUSH2 0x3D10 JUMPI PUSH2 0x3D0F PUSH2 0x377E JUMP JUMPDEST JUMPDEST PUSH0 PUSH2 0x3D1D DUP6 DUP3 DUP7 ADD PUSH2 0x3C72 JUMP JUMPDEST SWAP3 POP POP PUSH1 0x20 PUSH2 0x3D2E DUP6 DUP3 DUP7 ADD PUSH2 0x3CE6 JUMP JUMPDEST SWAP2 POP POP SWAP3 POP SWAP3 SWAP1 POP JUMP JUMPDEST PUSH0 DUP1 PUSH0 DUP1 PUSH0 DUP1 PUSH0 DUP1 PUSH2 0x100 DUP10 DUP12 SUB SLT ISZERO PUSH2 0x3D55 JUMPI PUSH2 0x3D54 PUSH2 0x377E JUMP JUMPDEST JUMPDEST PUSH0 PUSH2 0x3D62 DUP12 DUP3 DUP13 ADD PUSH2 0x3ABF JUMP JUMPDEST SWAP9 POP POP PUSH1 0x20 PUSH2 0x3D73 DUP12 DUP3 DUP13 ADD PUSH2 0x3ABF JUMP JUMPDEST SWAP8 POP POP PUSH1 0x40 PUSH2 0x3D84 DUP12 DUP3 DUP13 ADD PUSH2 0x3ABF JUMP JUMPDEST SWAP7 POP POP PUSH1 0x60 PUSH2 0x3D95 DUP12 DUP3 DUP13 ADD PUSH2 0x3ABF JUMP JUMPDEST SWAP6 POP POP PUSH1 0x80 PUSH2 0x3DA6 DUP12 DUP3 DUP13 ADD PUSH2 0x3ABF JUMP JUMPDEST SWAP5 POP POP PUSH1 0xA0 PUSH2 0x3DB7 DUP12 DUP3 DUP13 ADD PUSH2 0x3ABF JUMP JUMPDEST SWAP4 POP POP PUSH1 0xC0 PUSH2 0x3DC8 DUP12 DUP3 DUP13 ADD PUSH2 0x3C72 JUMP JUMPDEST SWAP3 POP POP PUSH1 0xE0 PUSH2 0x3DD9 DUP12 DUP3 DUP13 ADD PUSH2 0x3CE6 JUMP JUMPDEST SWAP2 POP POP SWAP3 SWAP6 SWAP9 POP SWAP3 SWAP6 SWAP9 SWAP1 SWAP4 SWAP7 POP JUMP JUMPDEST PUSH0 DUP1 PUSH0 PUSH1 0x60 DUP5 DUP7 SUB SLT ISZERO PUSH2 0x3E00 JUMPI PUSH2 0x3DFF PUSH2 0x377E JUMP JUMPDEST JUMPDEST PUSH0 PUSH2 0x3E0D DUP7 DUP3 DUP8 ADD PUSH2 0x3ABF JUMP JUMPDEST SWAP4 POP POP PUSH1 0x20 PUSH2 0x3E1E DUP7 DUP3 DUP8 ADD PUSH2 0x3ABF JUMP JUMPDEST SWAP3 POP POP PUSH1 0x40 PUSH2 0x3E2F DUP7 DUP3 DUP8 ADD PUSH2 0x3C72 JUMP JUMPDEST SWAP2 POP POP SWAP3 POP SWAP3 POP SWAP3 JUMP JUMPDEST PUSH0 DUP2 SWAP1 POP SWAP2 SWAP1 POP JUMP JUMPDEST PUSH2 0x3E4B DUP2 PUSH2 0x3E39 JUMP JUMPDEST DUP2 EQ PUSH2 0x3E55 JUMPI PUSH0 DUP1 REVERT JUMPDEST POP JUMP JUMPDEST PUSH0 DUP2 CALLDATALOAD SWAP1 POP PUSH2 0x3E66 DUP2 PUSH2 0x3E42 JUMP JUMPDEST SWAP3 SWAP2 POP POP JUMP JUMPDEST PUSH0 PUSH1 0x20 DUP3 DUP5 SUB SLT ISZERO PUSH2 0x3E81 JUMPI PUSH2 0x3E80 PUSH2 0x377E JUMP JUMPDEST JUMPDEST PUSH0 PUSH2 0x3E8E DUP5 DUP3 DUP6 ADD PUSH2 0x3E58 JUMP JUMPDEST SWAP2 POP POP SWAP3 SWAP2 POP POP JUMP JUMPDEST PUSH2 0x3EA0 DUP2 PUSH2 0x3E39 JUMP JUMPDEST DUP3 MSTORE POP POP JUMP JUMPDEST PUSH0 PUSH1 0x20 DUP3 ADD SWAP1 POP PUSH2 0x3EB9 PUSH0 DUP4 ADD DUP5 PUSH2 0x3E97 JUMP JUMPDEST SWAP3 SWAP2 POP POP JUMP JUMPDEST PUSH0 PUSH1 0x20 DUP3 DUP5 SUB SLT ISZERO PUSH2 0x3ED4 JUMPI PUSH2 0x3ED3 PUSH2 0x377E JUMP JUMPDEST JUMPDEST PUSH0 PUSH2 0x3EE1 DUP5 DUP3 DUP6 ADD PUSH2 0x3C72 JUMP JUMPDEST SWAP2 POP POP SWAP3 SWAP2 POP POP JUMP JUMPDEST PUSH0 DUP1 REVERT JUMPDEST PUSH32 0x4E487B7100000000000000000000000000000000000000000000000000000000 PUSH0 MSTORE PUSH1 0x41 PUSH1 0x4 MSTORE PUSH1 0x24 PUSH0 REVERT JUMPDEST PUSH2 0x3F24 DUP3 PUSH2 0x3975 JUMP JUMPDEST DUP2 ADD DUP2 DUP2 LT PUSH8 0xFFFFFFFFFFFFFFFF DUP3 GT OR ISZERO PUSH2 0x3F43 JUMPI PUSH2 0x3F42 PUSH2 0x3EEE JUMP JUMPDEST JUMPDEST DUP1 PUSH1 0x40 MSTORE POP POP POP JUMP JUMPDEST PUSH0 PUSH2 0x3F55 PUSH2 0x3775 JUMP JUMPDEST SWAP1 POP PUSH2 0x3F61 DUP3 DUP3 PUSH2 0x3F1B JUMP JUMPDEST SWAP2 SWAP1 POP JUMP JUMPDEST PUSH0 PUSH8 0xFFFFFFFFFFFFFFFF DUP3 GT ISZERO PUSH2 0x3F80 JUMPI PUSH2 0x3F7F PUSH2 0x3EEE JUMP JUMPDEST JUMPDEST PUSH2 0x3F89 DUP3 PUSH2 0x3975 JUMP JUMPDEST SWAP1 POP PUSH1 0x20 DUP2 ADD SWAP1 POP SWAP2 SWAP1 POP JUMP JUMPDEST DUP3 DUP2 DUP4 CALLDATACOPY PUSH0 DUP4 DUP4 ADD MSTORE POP POP POP JUMP JUMPDEST PUSH0 PUSH2 0x3FB6 PUSH2 0x3FB1 DUP5 PUSH2 0x3F66 JUMP JUMPDEST PUSH2 0x3F4C JUMP JUMPDEST SWAP1 POP DUP3 DUP2 MSTORE PUSH1 0x20 DUP2 ADD DUP5 DUP5 DUP5 ADD GT ISZERO PUSH2 0x3FD2 JUMPI PUSH2 0x3FD1 PUSH2 0x3EEA JUMP JUMPDEST JUMPDEST PUSH2 0x3FDD DUP5 DUP3 DUP6 PUSH2 0x3F96 JUMP JUMPDEST POP SWAP4 SWAP3 POP POP POP JUMP JUMPDEST PUSH0 DUP3 PUSH1 0x1F DUP4 ADD SLT PUSH2 0x3FF9 JUMPI PUSH2 0x3FF8 PUSH2 0x3839 JUMP JUMPDEST JUMPDEST DUP2 CALLDATALOAD PUSH2 0x4009 DUP5 DUP3 PUSH1 0x20 DUP7 ADD PUSH2 0x3FA4 JUMP JUMPDEST SWAP2 POP POP SWAP3 SWAP2 POP POP JUMP JUMPDEST PUSH0 DUP1 PUSH1 0x40 DUP4 DUP6 SUB SLT ISZERO PUSH2 0x4028 JUMPI PUSH2 0x4027 PUSH2 0x377E JUMP JUMPDEST JUMPDEST PUSH0 DUP4 ADD CALLDATALOAD PUSH8 0xFFFFFFFFFFFFFFFF DUP2 GT ISZERO PUSH2 0x4045 JUMPI PUSH2 0x4044 PUSH2 0x3782 JUMP JUMPDEST JUMPDEST PUSH2 0x4051 DUP6 DUP3 DUP7 ADD PUSH2 0x3FE5 JUMP JUMPDEST SWAP3 POP POP PUSH1 0x20 PUSH2 0x4062 DUP6 DUP3 DUP7 ADD PUSH2 0x3C72 JUMP JUMPDEST SWAP2 POP POP SWAP3 POP SWAP3 SWAP1 POP JUMP JUMPDEST PUSH2 0x4075 DUP2 PUSH2 0x392D JUMP JUMPDEST DUP3 MSTORE POP POP JUMP JUMPDEST PUSH0 DUP3 DUP3 MSTORE PUSH1 0x20 DUP3 ADD SWAP1 POP SWAP3 SWAP2 POP POP JUMP JUMPDEST PUSH0 PUSH2 0x4095 DUP3 PUSH2 0x394D JUMP JUMPDEST PUSH2 0x409F DUP2 DUP6 PUSH2 0x407B JUMP JUMPDEST SWAP4 POP PUSH2 0x40AF DUP2 DUP6 PUSH1 0x20 DUP7 ADD PUSH2 0x3967 JUMP JUMPDEST PUSH2 0x40B8 DUP2 PUSH2 0x3975 JUMP JUMPDEST DUP5 ADD SWAP2 POP POP SWAP3 SWAP2 POP POP JUMP JUMPDEST PUSH0 PUSH1 0x40 DUP3 ADD SWAP1 POP PUSH2 0x40D6 PUSH0 DUP4 ADD DUP6 PUSH2 0x406C JUMP JUMPDEST DUP2 DUP2 SUB PUSH1 0x20 DUP4 ADD MSTORE PUSH2 0x40E8 DUP2 DUP5 PUSH2 0x408B JUMP JUMPDEST SWAP1 POP SWAP4 SWAP3 POP POP POP JUMP JUMPDEST PUSH0 DUP1 PUSH1 0x40 DUP4 DUP6 SUB SLT ISZERO PUSH2 0x4107 JUMPI PUSH2 0x4106 PUSH2 0x377E JUMP JUMPDEST JUMPDEST PUSH0 PUSH2 0x4114 DUP6 DUP3 DUP7 ADD PUSH2 0x3E58 JUMP JUMPDEST SWAP3 POP POP PUSH1 0x20 PUSH2 0x4125 DUP6 DUP3 DUP7 ADD PUSH2 0x3ABF JUMP JUMPDEST SWAP2 POP POP SWAP3 POP SWAP3 SWAP1 POP JUMP JUMPDEST PUSH2 0x4138 DUP2 PUSH2 0x3CC4 JUMP JUMPDEST DUP3 MSTORE POP POP JUMP JUMPDEST PUSH0 PUSH1 0x20 DUP3 ADD SWAP1 POP PUSH2 0x4151 PUSH0 DUP4 ADD DUP5 PUSH2 0x412F JUMP JUMPDEST SWAP3 SWAP2 POP POP JUMP JUMPDEST PUSH2 0x4160 DUP2 PUSH2 0x3806 JUMP JUMPDEST DUP2 EQ PUSH2 0x416A JUMPI PUSH0 DUP1 REVERT JUMPDEST POP JUMP JUMPDEST PUSH0 DUP2 CALLDATALOAD SWAP1 POP PUSH2 0x417B DUP2 PUSH2 0x4157 JUMP JUMPDEST SWAP3 SWAP2 POP POP JUMP JUMPDEST PUSH0 DUP1 PUSH0 PUSH1 0x60 DUP5 DUP7 SUB SLT ISZERO PUSH2 0x4198 JUMPI PUSH2 0x4197 PUSH2 0x377E JUMP JUMPDEST JUMPDEST PUSH0 PUSH2 0x41A5 DUP7 DUP3 DUP8 ADD PUSH2 0x3C72 JUMP JUMPDEST SWAP4 POP POP PUSH1 0x20 PUSH2 0x41B6 DUP7 DUP3 DUP8 ADD PUSH2 0x3CE6 JUMP JUMPDEST SWAP3 POP POP PUSH1 0x40 PUSH2 0x41C7 DUP7 DUP3 DUP8 ADD PUSH2 0x416D JUMP JUMPDEST SWAP2 POP POP SWAP3 POP SWAP3 POP SWAP3 JUMP JUMPDEST PUSH0 PUSH1 0x20 DUP3 ADD SWAP1 POP PUSH2 0x41E4 PUSH0 DUP4 ADD DUP5 PUSH2 0x406C JUMP JUMPDEST SWAP3 SWAP2 POP POP JUMP JUMPDEST PUSH0 PUSH8 0xFFFFFFFFFFFFFFFF DUP3 GT ISZERO PUSH2 0x4204 JUMPI PUSH2 0x4203 PUSH2 0x3EEE JUMP JUMPDEST JUMPDEST PUSH2 0x420D DUP3 PUSH2 0x3975 JUMP JUMPDEST SWAP1 POP PUSH1 0x20 DUP2 ADD SWAP1 POP SWAP2 SWAP1 POP JUMP JUMPDEST PUSH0 PUSH2 0x422C PUSH2 0x4227 DUP5 PUSH2 0x41EA JUMP JUMPDEST PUSH2 0x3F4C JUMP JUMPDEST SWAP1 POP DUP3 DUP2 MSTORE PUSH1 0x20 DUP2 ADD DUP5 DUP5 DUP5 ADD GT ISZERO PUSH2 0x4248 JUMPI PUSH2 0x4247 PUSH2 0x3EEA JUMP JUMPDEST JUMPDEST PUSH2 0x4253 DUP5 DUP3 DUP6 PUSH2 0x3F96 JUMP JUMPDEST POP SWAP4 SWAP3 POP POP POP JUMP JUMPDEST PUSH0 DUP3 PUSH1 0x1F DUP4 ADD SLT PUSH2 0x426F JUMPI PUSH2 0x426E PUSH2 0x3839 JUMP JUMPDEST JUMPDEST DUP2 CALLDATALOAD PUSH2 0x427F DUP5 DUP3 PUSH1 0x20 DUP7 ADD PUSH2 0x421A JUMP JUMPDEST SWAP2 POP POP SWAP3 SWAP2 POP POP JUMP JUMPDEST PUSH0 DUP1 PUSH1 0x40 DUP4 DUP6 SUB SLT ISZERO PUSH2 0x429E JUMPI PUSH2 0x429D PUSH2 0x377E JUMP JUMPDEST JUMPDEST PUSH0 PUSH2 0x42AB DUP6 DUP3 DUP7 ADD PUSH2 0x3ABF JUMP JUMPDEST SWAP3 POP POP PUSH1 0x20 DUP4 ADD CALLDATALOAD PUSH8 0xFFFFFFFFFFFFFFFF DUP2 GT ISZERO PUSH2 0x42CC JUMPI PUSH2 0x42CB PUSH2 0x3782 JUMP JUMPDEST JUMPDEST PUSH2 0x42D8 DUP6 DUP3 DUP7 ADD PUSH2 0x425B JUMP JUMPDEST SWAP2 POP POP SWAP3 POP SWAP3 SWAP1 POP JUMP JUMPDEST PUSH0 PUSH1 0x20 DUP3 DUP5 SUB SLT ISZERO PUSH2 0x42F7 JUMPI PUSH2 0x42F6 PUSH2 0x377E JUMP JUMPDEST JUMPDEST PUSH0 PUSH2 0x4304 DUP5 DUP3 DUP6 ADD PUSH2 0x3ABF JUMP JUMPDEST SWAP2 POP POP SWAP3 SWAP2 POP POP JUMP JUMPDEST PUSH0 DUP1 PUSH1 0x40 DUP4 DUP6 SUB SLT ISZERO PUSH2 0x4323 JUMPI PUSH2 0x4322 PUSH2 0x377E JUMP JUMPDEST JUMPDEST PUSH0 PUSH2 0x4330 DUP6 DUP3 DUP7 ADD PUSH2 0x3C72 JUMP JUMPDEST SWAP3 POP POP PUSH1 0x20 PUSH2 0x4341 DUP6 DUP3 DUP7 ADD PUSH2 0x3C72 JUMP JUMPDEST SWAP2 POP POP SWAP3 POP SWAP3 SWAP1 POP JUMP JUMPDEST PUSH0 DUP1 PUSH0 PUSH1 0x60 DUP5 DUP7 SUB SLT ISZERO PUSH2 0x4362 JUMPI PUSH2 0x4361 PUSH2 0x377E JUMP JUMPDEST JUMPDEST PUSH0 PUSH2 0x436F DUP7 DUP3 DUP8 ADD PUSH2 0x3ABF JUMP JUMPDEST SWAP4 POP POP PUSH1 0x20 PUSH2 0x4380 DUP7 DUP3 DUP8 ADD PUSH2 0x3C72 JUMP JUMPDEST SWAP3 POP POP PUSH1 0x40 DUP5 ADD CALLDATALOAD PUSH8 0xFFFFFFFFFFFFFFFF DUP2 GT ISZERO PUSH2 0x43A1 JUMPI PUSH2 0x43A0 PUSH2 0x3782 JUMP JUMPDEST JUMPDEST PUSH2 0x43AD DUP7 DUP3 DUP8 ADD PUSH2 0x3FE5 JUMP JUMPDEST SWAP2 POP POP SWAP3 POP SWAP3 POP SWAP3 JUMP JUMPDEST PUSH0 DUP1 PUSH0 PUSH1 0x60 DUP5 DUP7 SUB SLT ISZERO PUSH2 0x43CE JUMPI PUSH2 0x43CD PUSH2 0x377E JUMP JUMPDEST JUMPDEST PUSH0 PUSH2 0x43DB DUP7 DUP3 DUP8 ADD PUSH2 0x3C72 JUMP JUMPDEST SWAP4 POP POP PUSH1 0x20 PUSH2 0x43EC DUP7 DUP3 DUP8 ADD PUSH2 0x3C72 JUMP JUMPDEST SWAP3 POP POP PUSH1 0x40 PUSH2 0x43FD DUP7 DUP3 DUP8 ADD PUSH2 0x3C72 JUMP JUMPDEST SWAP2 POP POP SWAP3 POP SWAP3 POP SWAP3 JUMP JUMPDEST PUSH0 DUP1 PUSH1 0x40 DUP4 DUP6 SUB SLT ISZERO PUSH2 0x441D JUMPI PUSH2 0x441C PUSH2 0x377E JUMP JUMPDEST JUMPDEST PUSH0 PUSH2 0x442A DUP6 DUP3 DUP7 ADD PUSH2 0x3ABF JUMP JUMPDEST SWAP3 POP POP PUSH1 0x20 PUSH2 0x443B DUP6 DUP3 DUP7 ADD PUSH2 0x3ABF JUMP JUMPDEST SWAP2 POP POP SWAP3 POP SWAP3 SWAP1 POP JUMP JUMPDEST PUSH0 DUP2 SWAP1 POP SWAP3 SWAP2 POP POP JUMP JUMPDEST PUSH0 PUSH2 0x445A DUP4 DUP6 PUSH2 0x4445 JUMP JUMPDEST SWAP4 POP PUSH2 0x4467 DUP4 DUP6 DUP5 PUSH2 0x3F96 JUMP JUMPDEST DUP3 DUP5 ADD SWAP1 POP SWAP4 SWAP3 POP POP POP JUMP JUMPDEST PUSH0 PUSH2 0x447F DUP3 DUP5 DUP7 PUSH2 0x444F JUMP JUMPDEST SWAP2 POP DUP2 SWAP1 POP SWAP4 SWAP3 POP POP POP JUMP JUMPDEST PUSH32 0x4E487B7100000000000000000000000000000000000000000000000000000000 PUSH0 MSTORE PUSH1 0x22 PUSH1 0x4 MSTORE PUSH1 0x24 PUSH0 REVERT JUMPDEST PUSH0 PUSH1 0x2 DUP3 DIV SWAP1 POP PUSH1 0x1 DUP3 AND DUP1 PUSH2 0x44CF JUMPI PUSH1 0x7F DUP3 AND SWAP2 POP JUMPDEST PUSH1 0x20 DUP3 LT DUP2 SUB PUSH2 0x44E2 JUMPI PUSH2 0x44E1 PUSH2 0x448B JUMP JUMPDEST JUMPDEST POP SWAP2 SWAP1 POP JUMP JUMPDEST PUSH0 PUSH2 0x44F3 DUP4 DUP6 PUSH2 0x407B JUMP JUMPDEST SWAP4 POP PUSH2 0x4500 DUP4 DUP6 DUP5 PUSH2 0x3F96 JUMP JUMPDEST PUSH2 0x4509 DUP4 PUSH2 0x3975 JUMP JUMPDEST DUP5 ADD SWAP1 POP SWAP4 SWAP3 POP POP POP JUMP JUMPDEST PUSH0 PUSH1 0x20 DUP3 ADD SWAP1 POP DUP2 DUP2 SUB PUSH0 DUP4 ADD MSTORE PUSH2 0x452D DUP2 DUP5 DUP7 PUSH2 0x44E8 JUMP JUMPDEST SWAP1 POP SWAP4 SWAP3 POP POP POP JUMP JUMPDEST PUSH0 PUSH2 0x4541 DUP4 DUP6 PUSH2 0x3BC3 JUMP JUMPDEST SWAP4 POP PUSH2 0x454E DUP4 DUP6 DUP5 PUSH2 0x3F96 JUMP JUMPDEST PUSH2 0x4557 DUP4 PUSH2 0x3975 JUMP JUMPDEST DUP5 ADD SWAP1 POP SWAP4 SWAP3 POP POP POP JUMP JUMPDEST PUSH0 PUSH1 0x20 DUP3 ADD SWAP1 POP DUP2 DUP2 SUB PUSH0 DUP4 ADD MSTORE PUSH2 0x457B DUP2 DUP5 DUP7 PUSH2 0x4536 JUMP JUMPDEST SWAP1 POP SWAP4 SWAP3 POP POP POP JUMP JUMPDEST PUSH0 DUP2 SWAP1 POP DUP2 PUSH0 MSTORE PUSH1 0x20 PUSH0 KECCAK256 SWAP1 POP SWAP2 SWAP1 POP JUMP JUMPDEST PUSH0 PUSH1 0x20 PUSH1 0x1F DUP4 ADD DIV SWAP1 POP SWAP2 SWAP1 POP JUMP JUMPDEST PUSH0 DUP3 DUP3 SHL SWAP1 POP SWAP3 SWAP2 POP POP JUMP JUMPDEST PUSH0 PUSH1 0x8 DUP4 MUL PUSH2 0x45E0 PUSH32 0xFFFFFFFFFFFFFFFFFFFFFFFFFFFFFFFFFFFFFFFFFFFFFFFFFFFFFFFFFFFFFFFF DUP3 PUSH2 0x45A5 JUMP JUMPDEST PUSH2 0x45EA DUP7 DUP4 PUSH2 0x45A5 JUMP JUMPDEST SWAP6 POP DUP1 NOT DUP5 AND SWAP4 POP DUP1 DUP7 AND DUP5 OR SWAP3 POP POP POP SWAP4 SWAP3 POP POP POP JUMP JUMPDEST PUSH0 DUP2 SWAP1 POP SWAP2 SWAP1 POP JUMP JUMPDEST PUSH0 PUSH2 0x4625 PUSH2 0x4620 PUSH2 0x461B DUP5 PUSH2 0x3C2B JUMP JUMPDEST PUSH2 0x4602 JUMP JUMPDEST PUSH2 0x3C2B JUMP JUMPDEST SWAP1 POP SWAP2 SWAP1 POP JUMP JUMPDEST PUSH0 DUP2 SWAP1 POP SWAP2 SWAP1 POP JUMP JUMPDEST PUSH2 0x463E DUP4 PUSH2 0x460B JUMP JUMPDEST PUSH2 0x4652 PUSH2 0x464A DUP3 PUSH2 0x462C JUMP JUMPDEST DUP5 DUP5 SLOAD PUSH2 0x45B1 JUMP JUMPDEST DUP3 SSTORE POP POP POP POP JUMP JUMPDEST PUSH0 SWAP1 JUMP JUMPDEST PUSH2 0x4666 PUSH2 0x465A JUMP JUMPDEST PUSH2 0x4671 DUP2 DUP5 DUP5 PUSH2 0x4635 JUMP JUMPDEST POP POP POP JUMP JUMPDEST JUMPDEST DUP2 DUP2 LT ISZERO PUSH2 0x4694 JUMPI PUSH2 0x4689 PUSH0 DUP3 PUSH2 0x465E JUMP JUMPDEST PUSH1 0x1 DUP2 ADD SWAP1 POP PUSH2 0x4677 JUMP JUMPDEST POP POP JUMP JUMPDEST PUSH1 0x1F DUP3 GT ISZERO PUSH2 0x46D9 JUMPI PUSH2 0x46AA DUP2 PUSH2 0x4584 JUMP JUMPDEST PUSH2 0x46B3 DUP5 PUSH2 0x4596 JUMP JUMPDEST DUP2 ADD PUSH1 0x20 DUP6 LT ISZERO PUSH2 0x46C2 JUMPI DUP2 SWAP1 POP JUMPDEST PUSH2 0x46D6 PUSH2 0x46CE DUP6 PUSH2 0x4596 JUMP JUMPDEST DUP4 ADD DUP3 PUSH2 0x4676 JUMP JUMPDEST POP POP JUMPDEST POP POP POP JUMP JUMPDEST PUSH0 DUP3 DUP3 SHR SWAP1 POP SWAP3 SWAP2 POP POP JUMP JUMPDEST PUSH0 PUSH2 0x46F9 PUSH0 NOT DUP5 PUSH1 0x8 MUL PUSH2 0x46DE JUMP JUMPDEST NOT DUP1 DUP4 AND SWAP2 POP POP SWAP3 SWAP2 POP POP JUMP JUMPDEST PUSH0 PUSH2 0x4711 DUP4 DUP4 PUSH2 0x46EA JUMP JUMPDEST SWAP2 POP DUP3 PUSH1 0x2 MUL DUP3 OR SWAP1 POP SWAP3 SWAP2 POP POP JUMP JUMPDEST PUSH2 0x472A DUP3 PUSH2 0x394D JUMP JUMPDEST PUSH8 0xFFFFFFFFFFFFFFFF DUP2 GT ISZERO PUSH2 0x4743 JUMPI PUSH2 0x4742 PUSH2 0x3EEE JUMP JUMPDEST JUMPDEST PUSH2 0x474D DUP3 SLOAD PUSH2 0x44B8 JUMP JUMPDEST PUSH2 0x4758 DUP3 DUP3 DUP6 PUSH2 0x4698 JUMP JUMPDEST PUSH0 PUSH1 0x20 SWAP1 POP PUSH1 0x1F DUP4 GT PUSH1 0x1 DUP2 EQ PUSH2 0x4789 JUMPI PUSH0 DUP5 ISZERO PUSH2 0x4777 JUMPI DUP3 DUP8 ADD MLOAD SWAP1 POP JUMPDEST PUSH2 0x4781 DUP6 DUP3 PUSH2 0x4706 JUMP JUMPDEST DUP7 SSTORE POP PUSH2 0x47E8 JUMP JUMPDEST PUSH1 0x1F NOT DUP5 AND PUSH2 0x4797 DUP7 PUSH2 0x4584 JUMP JUMPDEST PUSH0 JUMPDEST DUP3 DUP2 LT ISZERO PUSH2 0x47BE JUMPI DUP5 DUP10 ADD MLOAD DUP3 SSTORE PUSH1 0x1 DUP3 ADD SWAP2 POP PUSH1 0x20 DUP6 ADD SWAP5 POP PUSH1 0x20 DUP2 ADD SWAP1 POP PUSH2 0x4799 JUMP JUMPDEST DUP7 DUP4 LT ISZERO PUSH2 0x47DB JUMPI DUP5 DUP10 ADD MLOAD PUSH2 0x47D7 PUSH1 0x1F DUP10 AND DUP3 PUSH2 0x46EA JUMP JUMPDEST DUP4 SSTORE POP JUMPDEST PUSH1 0x1 PUSH1 0x2 DUP9 MUL ADD DUP9 SSTORE POP POP POP JUMPDEST POP POP POP POP POP POP JUMP JUMPDEST PUSH32 0x496E76616C69642070657263656E74616765206F7220646563696D616C207661 PUSH0 DUP3 ADD MSTORE PUSH32 0x6C75650000000000000000000000000000000000000000000000000000000000 PUSH1 0x20 DUP3 ADD MSTORE POP JUMP JUMPDEST PUSH0 PUSH2 0x484A PUSH1 0x23 DUP4 PUSH2 0x3BC3 JUMP JUMPDEST SWAP2 POP PUSH2 0x4855 DUP3 PUSH2 0x47F0 JUMP JUMPDEST PUSH1 0x40 DUP3 ADD SWAP1 POP SWAP2 SWAP1 POP JUMP JUMPDEST PUSH0 PUSH1 0x20 DUP3 ADD SWAP1 POP DUP2 DUP2 SUB PUSH0 DUP4 ADD MSTORE PUSH2 0x4877 DUP2 PUSH2 0x483E JUMP JUMPDEST SWAP1 POP SWAP2 SWAP1 POP JUMP JUMPDEST PUSH32 0x4E487B7100000000000000000000000000000000000000000000000000000000 PUSH0 MSTORE PUSH1 0x11 PUSH1 0x4 MSTORE PUSH1 0x24 PUSH0 REVERT JUMPDEST PUSH0 PUSH2 0x48B5 DUP3 PUSH2 0x3CC4 JUMP JUMPDEST SWAP2 POP PUSH2 0x48C0 DUP4 PUSH2 0x3CC4 JUMP JUMPDEST SWAP3 POP DUP3 DUP3 SUB SWAP1 POP PUSH1 0xFF DUP2 GT ISZERO PUSH2 0x48D9 JUMPI PUSH2 0x48D8 PUSH2 0x487E JUMP JUMPDEST JUMPDEST SWAP3 SWAP2 POP POP JUMP JUMPDEST PUSH0 DUP2 PUSH1 0x1 SHR SWAP1 POP SWAP2 SWAP1 POP JUMP JUMPDEST PUSH0 DUP1 DUP3 SWAP2 POP DUP4 SWAP1 POP JUMPDEST PUSH1 0x1 DUP6 GT ISZERO PUSH2 0x4934 JUMPI DUP1 DUP7 DIV DUP2 GT ISZERO PUSH2 0x4910 JUMPI PUSH2 0x490F PUSH2 0x487E JUMP JUMPDEST JUMPDEST PUSH1 0x1 DUP6 AND ISZERO PUSH2 0x491F JUMPI DUP1 DUP3 MUL SWAP2 POP JUMPDEST DUP1 DUP2 MUL SWAP1 POP PUSH2 0x492D DUP6 PUSH2 0x48DF JUMP JUMPDEST SWAP5 POP PUSH2 0x48F4 JUMP JUMPDEST SWAP5 POP SWAP5 SWAP3 POP POP POP JUMP JUMPDEST PUSH0 DUP3 PUSH2 0x494C JUMPI PUSH1 0x1 SWAP1 POP PUSH2 0x4A07 JUMP JUMPDEST DUP2 PUSH2 0x4959 JUMPI PUSH0 SWAP1 POP PUSH2 0x4A07 JUMP JUMPDEST DUP2 PUSH1 0x1 DUP2 EQ PUSH2 0x496F JUMPI PUSH1 0x2 DUP2 EQ PUSH2 0x4979 JUMPI PUSH2 0x49A8 JUMP JUMPDEST PUSH1 0x1 SWAP2 POP POP PUSH2 0x4A07 JUMP JUMPDEST PUSH1 0xFF DUP5 GT ISZERO PUSH2 0x498B JUMPI PUSH2 0x498A PUSH2 0x487E JUMP JUMPDEST JUMPDEST DUP4 PUSH1 0x2 EXP SWAP2 POP DUP5 DUP3 GT ISZERO PUSH2 0x49A2 JUMPI PUSH2 0x49A1 PUSH2 0x487E JUMP JUMPDEST JUMPDEST POP PUSH2 0x4A07 JUMP JUMPDEST POP PUSH1 0x20 DUP4 LT PUSH2 0x133 DUP4 LT AND PUSH1 0x4E DUP5 LT PUSH1 0xB DUP5 LT AND OR ISZERO PUSH2 0x49DD JUMPI DUP3 DUP3 EXP SWAP1 POP DUP4 DUP2 GT ISZERO PUSH2 0x49D8 JUMPI PUSH2 0x49D7 PUSH2 0x487E JUMP JUMPDEST JUMPDEST PUSH2 0x4A07 JUMP JUMPDEST PUSH2 0x49EA DUP5 DUP5 DUP5 PUSH1 0x1 PUSH2 0x48EB JUMP JUMPDEST SWAP3 POP SWAP1 POP DUP2 DUP5 DIV DUP2 GT ISZERO PUSH2 0x4A01 JUMPI PUSH2 0x4A00 PUSH2 0x487E JUMP JUMPDEST JUMPDEST DUP2 DUP2 MUL SWAP1 POP JUMPDEST SWAP4 SWAP3 POP POP POP JUMP JUMPDEST PUSH0 PUSH2 0x4A18 DUP3 PUSH2 0x3C2B JUMP JUMPDEST SWAP2 POP PUSH2 0x4A23 DUP4 PUSH2 0x3CC4 JUMP JUMPDEST SWAP3 POP PUSH2 0x4A50 PUSH32 0xFFFFFFFFFFFFFFFFFFFFFFFFFFFFFFFFFFFFFFFFFFFFFFFFFFFFFFFFFFFFFFFF DUP5 DUP5 PUSH2 0x493D JUMP JUMPDEST SWAP1 POP SWAP3 SWAP2 POP POP JUMP JUMPDEST PUSH0 PUSH2 0x4A62 DUP3 PUSH2 0x3C2B JUMP JUMPDEST SWAP2 POP PUSH2 0x4A6D DUP4 PUSH2 0x3C2B JUMP JUMPDEST SWAP3 POP DUP3 DUP3 MUL PUSH2 0x4A7B DUP2 PUSH2 0x3C2B JUMP JUMPDEST SWAP2 POP DUP3 DUP3 DIV DUP5 EQ DUP4 ISZERO OR PUSH2 0x4A92 JUMPI PUSH2 0x4A91 PUSH2 0x487E JUMP JUMPDEST JUMPDEST POP SWAP3 SWAP2 POP POP JUMP JUMPDEST PUSH0 DUP2 SWAP1 POP SWAP2 SWAP1 POP JUMP JUMPDEST PUSH0 PUSH8 0xFFFFFFFFFFFFFFFF DUP3 AND SWAP1 POP SWAP2 SWAP1 POP JUMP JUMPDEST PUSH0 PUSH2 0x4ACF PUSH2 0x4ACA PUSH2 0x4AC5 DUP5 PUSH2 0x4A99 JUMP JUMPDEST PUSH2 0x4602 JUMP JUMPDEST PUSH2 0x4AA2 JUMP JUMPDEST SWAP1 POP SWAP2 SWAP1 POP JUMP JUMPDEST PUSH2 0x4ADF DUP2 PUSH2 0x4AB5 JUMP JUMPDEST DUP3 MSTORE POP POP JUMP JUMPDEST PUSH0 PUSH1 0x20 DUP3 ADD SWAP1 POP PUSH2 0x4AF8 PUSH0 DUP4 ADD DUP5 PUSH2 0x4AD6 JUMP JUMPDEST SWAP3 SWAP2 POP POP JUMP JUMPDEST PUSH32 0x4E487B7100000000000000000000000000000000000000000000000000000000 PUSH0 MSTORE PUSH1 0x12 PUSH1 0x4 MSTORE PUSH1 0x24 PUSH0 REVERT JUMPDEST PUSH0 PUSH2 0x4B35 DUP3 PUSH2 0x3C2B JUMP JUMPDEST SWAP2 POP PUSH2 0x4B40 DUP4 PUSH2 0x3C2B JUMP JUMPDEST SWAP3 POP DUP3 PUSH2 0x4B50 JUMPI PUSH2 0x4B4F PUSH2 0x4AFE JUMP JUMPDEST JUMPDEST DUP3 DUP3 DIV SWAP1 POP SWAP3 SWAP2 POP POP JUMP JUMPDEST PUSH0 PUSH1 0x40 DUP3 ADD SWAP1 POP PUSH2 0x4B6E PUSH0 DUP4 ADD DUP6 PUSH2 0x3C34 JUMP JUMPDEST PUSH2 0x4B7B PUSH1 0x20 DUP4 ADD DUP5 PUSH2 0x3811 JUMP JUMPDEST SWAP4 SWAP3 POP POP POP JUMP JUMPDEST PUSH32 0x496E76616C696420616D6F756E74000000000000000000000000000000000000 PUSH0 DUP3 ADD MSTORE POP JUMP JUMPDEST PUSH0 PUSH2 0x4BB6 PUSH1 0xE DUP4 PUSH2 0x3BC3 JUMP JUMPDEST SWAP2 POP PUSH2 0x4BC1 DUP3 PUSH2 0x4B82 JUMP JUMPDEST PUSH1 0x20 DUP3 ADD SWAP1 POP SWAP2 SWAP1 POP JUMP JUMPDEST PUSH0 PUSH1 0x20 DUP3 ADD SWAP1 POP DUP2 DUP2 SUB PUSH0 DUP4 ADD MSTORE PUSH2 0x4BE3 DUP2 PUSH2 0x4BAA JUMP JUMPDEST SWAP1 POP SWAP2 SWAP1 POP JUMP JUMPDEST PUSH0 PUSH2 0x4BF4 DUP3 PUSH2 0x3C2B JUMP JUMPDEST SWAP2 POP PUSH2 0x4BFF DUP4 PUSH2 0x3C2B JUMP JUMPDEST SWAP3 POP DUP3 DUP3 SUB SWAP1 POP DUP2 DUP2 GT ISZERO PUSH2 0x4C17 JUMPI PUSH2 0x4C16 PUSH2 0x487E JUMP JUMPDEST JUMPDEST SWAP3 SWAP2 POP POP JUMP JUMPDEST PUSH2 0x4C26 DUP2 PUSH2 0x3C2B JUMP JUMPDEST DUP3 MSTORE POP POP JUMP JUMPDEST PUSH1 0x60 DUP3 ADD PUSH0 DUP3 ADD MLOAD PUSH2 0x4C40 PUSH0 DUP6 ADD DUP3 PUSH2 0x4C1D JUMP JUMPDEST POP PUSH1 0x20 DUP3 ADD MLOAD PUSH2 0x4C53 PUSH1 0x20 DUP6 ADD DUP3 PUSH2 0x4C1D JUMP JUMPDEST POP PUSH1 0x40 DUP3 ADD MLOAD PUSH2 0x4C66 PUSH1 0x40 DUP6 ADD DUP3 PUSH2 0x4C1D JUMP JUMPDEST POP POP POP POP JUMP JUMPDEST PUSH0 PUSH1 0xE0 DUP3 ADD SWAP1 POP PUSH2 0x4C7F PUSH0 DUP4 ADD DUP9 PUSH2 0x3C34 JUMP JUMPDEST PUSH2 0x4C8C PUSH1 0x20 DUP4 ADD DUP8 PUSH2 0x3C34 JUMP JUMPDEST PUSH2 0x4C99 PUSH1 0x40 DUP4 ADD DUP7 PUSH2 0x3C34 JUMP JUMPDEST PUSH2 0x4CA6 PUSH1 0x60 DUP4 ADD DUP6 PUSH2 0x3C34 JUMP JUMPDEST PUSH2 0x4CB3 PUSH1 0x80 DUP4 ADD DUP5 PUSH2 0x4C2C JUMP JUMPDEST SWAP7 SWAP6 POP POP POP POP POP POP JUMP JUMPDEST PUSH0 PUSH1 0xE0 DUP3 ADD SWAP1 POP DUP2 DUP2 SUB PUSH0 DUP4 ADD MSTORE PUSH2 0x4CD5 DUP2 DUP9 PUSH2 0x3BD3 JUMP JUMPDEST SWAP1 POP PUSH2 0x4CE4 PUSH1 0x20 DUP4 ADD DUP8 PUSH2 0x3C34 JUMP JUMPDEST PUSH2 0x4CF1 PUSH1 0x40 DUP4 ADD DUP7 PUSH2 0x3C34 JUMP JUMPDEST PUSH2 0x4CFE PUSH1 0x60 DUP4 ADD DUP6 PUSH2 0x3C34 JUMP JUMPDEST PUSH2 0x4D0B PUSH1 0x80 DUP4 ADD DUP5 PUSH2 0x4C2C JUMP JUMPDEST SWAP7 SWAP6 POP POP POP POP POP POP JUMP JUMPDEST PUSH0 PUSH2 0x4D1F DUP3 PUSH2 0x3C2B JUMP JUMPDEST SWAP2 POP PUSH2 0x4D2A DUP4 PUSH2 0x3C2B JUMP JUMPDEST SWAP3 POP DUP3 DUP3 ADD SWAP1 POP DUP1 DUP3 GT ISZERO PUSH2 0x4D42 JUMPI PUSH2 0x4D41 PUSH2 0x487E JUMP JUMPDEST JUMPDEST SWAP3 SWAP2 POP POP JUMP JUMPDEST PUSH1 0xA0 DUP3 ADD PUSH0 DUP3 ADD MLOAD PUSH2 0x4D5C PUSH0 DUP6 ADD DUP3 PUSH2 0x4C1D JUMP JUMPDEST POP PUSH1 0x20 DUP3 ADD MLOAD PUSH2 0x4D6F PUSH1 0x20 DUP6 ADD DUP3 PUSH2 0x4C1D JUMP JUMPDEST POP PUSH1 0x40 DUP3 ADD MLOAD PUSH2 0x4D82 PUSH1 0x40 DUP6 ADD DUP3 PUSH2 0x4C1D JUMP JUMPDEST POP PUSH1 0x60 DUP3 ADD MLOAD PUSH2 0x4D95 PUSH1 0x60 DUP6 ADD DUP3 PUSH2 0x4C1D JUMP JUMPDEST POP PUSH1 0x80 DUP3 ADD MLOAD PUSH2 0x4DA8 PUSH1 0x80 DUP6 ADD DUP3 PUSH2 0x4C1D JUMP JUMPDEST POP POP POP POP JUMP JUMPDEST PUSH0 PUSH1 0xA0 DUP3 ADD SWAP1 POP PUSH2 0x4DC1 PUSH0 DUP4 ADD DUP5 PUSH2 0x4D48 JUMP JUMPDEST SWAP3 SWAP2 POP POP JUMP JUMPDEST PUSH0 PUSH1 0x60 DUP3 ADD SWAP1 POP PUSH2 0x4DDA PUSH0 DUP4 ADD DUP7 PUSH2 0x406C JUMP JUMPDEST PUSH2 0x4DE7 PUSH1 0x20 DUP4 ADD DUP6 PUSH2 0x3C34 JUMP JUMPDEST PUSH2 0x4DF4 PUSH1 0x40 DUP4 ADD DUP5 PUSH2 0x3C34 JUMP JUMPDEST SWAP5 SWAP4 POP POP POP POP JUMP JUMPDEST PUSH0 DUP2 MLOAD SWAP1 POP PUSH2 0x4E0A DUP2 PUSH2 0x3E42 JUMP JUMPDEST SWAP3 SWAP2 POP POP JUMP JUMPDEST PUSH0 PUSH1 0x20 DUP3 DUP5 SUB SLT ISZERO PUSH2 0x4E25 JUMPI PUSH2 0x4E24 PUSH2 0x377E JUMP JUMPDEST JUMPDEST PUSH0 PUSH2 0x4E32 DUP5 DUP3 DUP6 ADD PUSH2 0x4DFC JUMP JUMPDEST SWAP2 POP POP SWAP3 SWAP2 POP POP JUMP JUMPDEST PUSH0 DUP2 SWAP1 POP DUP2 PUSH0 MSTORE PUSH1 0x20 PUSH0 KECCAK256 SWAP1 POP SWAP2 SWAP1 POP JUMP JUMPDEST PUSH1 0x1F DUP3 GT ISZERO PUSH2 0x4E8E JUMPI PUSH2 0x4E5F DUP2 PUSH2 0x4E3B JUMP JUMPDEST PUSH2 0x4E68 DUP5 PUSH2 0x4596 JUMP JUMPDEST DUP2 ADD PUSH1 0x20 DUP6 LT ISZERO PUSH2 0x4E77 JUMPI DUP2 SWAP1 POP JUMPDEST PUSH2 0x4E8B PUSH2 0x4E83 DUP6 PUSH2 0x4596 JUMP JUMPDEST DUP4 ADD DUP3 PUSH2 0x4676 JUMP JUMPDEST POP POP JUMPDEST POP POP POP JUMP JUMPDEST PUSH2 0x4E9C DUP3 PUSH2 0x3BB9 JUMP JUMPDEST PUSH8 0xFFFFFFFFFFFFFFFF DUP2 GT ISZERO PUSH2 0x4EB5 JUMPI PUSH2 0x4EB4 PUSH2 0x3EEE JUMP JUMPDEST JUMPDEST PUSH2 0x4EBF DUP3 SLOAD PUSH2 0x44B8 JUMP JUMPDEST PUSH2 0x4ECA DUP3 DUP3 DUP6 PUSH2 0x4E4D JUMP JUMPDEST PUSH0 PUSH1 0x20 SWAP1 POP PUSH1 0x1F DUP4 GT PUSH1 0x1 DUP2 EQ PUSH2 0x4EFB JUMPI PUSH0 DUP5 ISZERO PUSH2 0x4EE9 JUMPI DUP3 DUP8 ADD MLOAD SWAP1 POP JUMPDEST PUSH2 0x4EF3 DUP6 DUP3 PUSH2 0x4706 JUMP JUMPDEST DUP7 SSTORE POP PUSH2 0x4F5A JUMP JUMPDEST PUSH1 0x1F NOT DUP5 AND PUSH2 0x4F09 DUP7 PUSH2 0x4E3B JUMP JUMPDEST PUSH0 JUMPDEST DUP3 DUP2 LT ISZERO PUSH2 0x4F30 JUMPI DUP5 DUP10 ADD MLOAD DUP3 SSTORE PUSH1 0x1 DUP3 ADD SWAP2 POP PUSH1 0x20 DUP6 ADD SWAP5 POP PUSH1 0x20 DUP2 ADD SWAP1 POP PUSH2 0x4F0B JUMP JUMPDEST DUP7 DUP4 LT ISZERO PUSH2 0x4F4D JUMPI DUP5 DUP10 ADD MLOAD PUSH2 0x4F49 PUSH1 0x1F DUP10 AND DUP3 PUSH2 0x46EA JUMP JUMPDEST DUP4 SSTORE POP JUMPDEST PUSH1 0x1 PUSH1 0x2 DUP9 MUL ADD DUP9 SSTORE POP POP POP JUMPDEST POP POP POP POP POP POP JUMP JUMPDEST PUSH0 PUSH1 0x40 DUP3 ADD SWAP1 POP PUSH2 0x4F75 PUSH0 DUP4 ADD DUP6 PUSH2 0x406C JUMP JUMPDEST PUSH2 0x4F82 PUSH1 0x20 DUP4 ADD DUP5 PUSH2 0x3E97 JUMP JUMPDEST SWAP4 SWAP3 POP POP POP JUMP JUMPDEST PUSH0 DUP2 SWAP1 POP SWAP3 SWAP2 POP POP JUMP JUMPDEST PUSH0 PUSH2 0x4F9D DUP3 PUSH2 0x394D JUMP JUMPDEST PUSH2 0x4FA7 DUP2 DUP6 PUSH2 0x4F89 JUMP JUMPDEST SWAP4 POP PUSH2 0x4FB7 DUP2 DUP6 PUSH1 0x20 DUP7 ADD PUSH2 0x3967 JUMP JUMPDEST DUP1 DUP5 ADD SWAP2 POP POP SWAP3 SWAP2 POP POP JUMP JUMPDEST PUSH0 PUSH2 0x4FCE DUP3 DUP5 PUSH2 0x4F93 JUMP JUMPDEST SWAP2 POP DUP2 SWAP1 POP SWAP3 SWAP2 POP POP JUMP INVALID LOG2 PUSH5 0x6970667358 0x22 SLT KECCAK256 DIV 0xBD SSTORE DIV LOG3 SWAP6 PUSH16 0x3F306C1AD4064F8D7FC0E25D54460610 0xF SWAP11 DIV 0xE4 LOG1 MUL 0x27 0x2F 0xAF PUSH5 0x736F6C6343 STOP ADDMOD NOT STOP CALLER "
		},
		"gasEstimates": {
			"creation": {
				"codeDepositCost": "4099000",
				"executionCost": "infinite",
				"totalCost": "infinite"
			},
			"external": {
				"DEFAULT_ADMIN_ROLE()": "375",
				"MINTER_ROLE()": "414",
				"PAUSER_ROLE()": "413",
				"POOL_TAX_ROLE()": "436",
				"UPGRADER_ROLE()": "457",
				"UPGRADE_INTERFACE_VERSION()": "infinite",
				"VAULT_ROLE()": "480",
				"addAccount(string,address,bytes)": "infinite",
				"allowance(address,address)": "infinite",
				"applyBasisPoints(uint256,uint256)": "infinite",
				"approve(address,uint256)": "infinite",
				"balanceOf(address)": "2927",
				"bitToEth(string,uint256)": "infinite",
				"calculateBasisPoints(uint256,uint8)": "infinite",
				"calculateStakingBasisPoints(uint256,uint256,uint256)": "infinite",
				"decimals()": "450",
				"getAllEthKeysForTaoAddress(string)": "infinite",
				"getRoleAdmin(bytes32)": "infinite",
				"grantRole(bytes32,address)": "infinite",
				"hasRole(bytes32,address)": "3285",
				"initialize(address,address,address,address,address,address,uint256,uint8)": "infinite",
				"inverseBasisPoints(uint256)": "infinite",
				"lastLastRedeemBasisPoints()": "2560",
				"lastRedeemBasisPoints()": "2471",
				"name()": "infinite",
				"pause()": "infinite",
				"paused()": "2658",
				"protocolTax()": "2536",
				"proxiableUUID()": "infinite",
				"redeemBasisPoints()": "2535",
				"redeemSTao(string,uint256)": "infinite",
				"renounceRole(bytes32,address)": "infinite",
				"revokeRole(bytes32,address)": "infinite",
				"sTAOProtcolVault()": "2576",
				"setProtocolTax(uint256,uint8)": "infinite",
				"setProtocolTax(uint256,uint8,bool)": "infinite",
				"setStakingRedeemingBasisPoints(uint256,uint8)": "infinite",
				"sinceLastUpdate()": "2581",
				"stakeBasisPoints()": "2492",
				"stakeSTao(address,uint256,string)": "infinite",
				"supportsInterface(bytes4)": "764",
				"symbol()": "infinite",
				"taoPool()": "2492",
				"taxEnabled()": "2511",
				"totalSupply()": "2553",
				"transfer(address,uint256)": "infinite",
				"transferFrom(address,address,uint256)": "infinite",
				"transferProtocolVault(address)": "infinite",
				"unpause()": "infinite",
				"upgradeToAndCall(address,bytes)": "infinite"
			},
			"internal": {
				"_authorizeUpgrade(address)": "infinite",
				"_update(address,address,uint256)": "infinite",
				"bittensorWalletLengthCheck(string memory)": "infinite"
			}
		},
		"methodIdentifiers": {
			"DEFAULT_ADMIN_ROLE()": "a217fddf",
			"MINTER_ROLE()": "d5391393",
			"PAUSER_ROLE()": "e63ab1e9",
			"POOL_TAX_ROLE()": "5c120dbc",
			"UPGRADER_ROLE()": "f72c0d8b",
			"UPGRADE_INTERFACE_VERSION()": "ad3cb1cc",
			"VAULT_ROLE()": "98c4f1ac",
			"addAccount(string,address,bytes)": "06f1f332",
			"allowance(address,address)": "dd62ed3e",
			"applyBasisPoints(uint256,uint256)": "7e102ffb",
			"approve(address,uint256)": "095ea7b3",
			"balanceOf(address)": "70a08231",
			"bitToEth(string,uint256)": "2b3e5dd0",
			"calculateBasisPoints(uint256,uint8)": "1fe36636",
			"calculateStakingBasisPoints(uint256,uint256,uint256)": "a62af748",
			"decimals()": "313ce567",
			"getAllEthKeysForTaoAddress(string)": "030bfe1a",
			"getRoleAdmin(bytes32)": "248a9ca3",
			"grantRole(bytes32,address)": "2f2ff15d",
			"hasRole(bytes32,address)": "91d14854",
			"initialize(address,address,address,address,address,address,uint256,uint8)": "2061a282",
			"inverseBasisPoints(uint256)": "28e23ea9",
			"lastLastRedeemBasisPoints()": "07a33d95",
			"lastRedeemBasisPoints()": "09a422d8",
			"name()": "06fdde03",
			"pause()": "8456cb59",
			"paused()": "5c975abb",
			"protocolTax()": "77510da5",
			"proxiableUUID()": "52d1902d",
			"redeemBasisPoints()": "eaff9f50",
			"redeemSTao(string,uint256)": "74cbcb52",
			"renounceRole(bytes32,address)": "36568abe",
			"revokeRole(bytes32,address)": "d547741f",
			"sTAOProtcolVault()": "358acb5c",
			"setProtocolTax(uint256,uint8)": "b3bd268e",
			"setProtocolTax(uint256,uint8,bool)": "3263d034",
			"setStakingRedeemingBasisPoints(uint256,uint8)": "b4809c98",
			"sinceLastUpdate()": "32fb61db",
			"stakeBasisPoints()": "8a42a4e1",
			"stakeSTao(address,uint256,string)": "8bf95298",
			"supportsInterface(bytes4)": "01ffc9a7",
			"symbol()": "95d89b41",
			"taoPool()": "bc6d238a",
			"taxEnabled()": "870bd30b",
			"totalSupply()": "18160ddd",
			"transfer(address,uint256)": "a9059cbb",
			"transferFrom(address,address,uint256)": "23b872dd",
			"transferProtocolVault(address)": "74a5fac7",
			"unpause()": "3f4ba83a",
			"upgradeToAndCall(address,bytes)": "4f1ef286"
		}
	},
	"abi": [
		{
			"inputs": [],
			"stateMutability": "nonpayable",
			"type": "constructor"
		},
		{
			"inputs": [],
			"name": "AccessControlBadConfirmation",
			"type": "error"
		},
		{
			"inputs": [
				{
					"internalType": "address",
					"name": "account",
					"type": "address"
				},
				{
					"internalType": "bytes32",
					"name": "neededRole",
					"type": "bytes32"
				}
			],
			"name": "AccessControlUnauthorizedAccount",
			"type": "error"
		},
		{
			"inputs": [
				{
					"internalType": "address",
					"name": "target",
					"type": "address"
				}
			],
			"name": "AddressEmptyCode",
			"type": "error"
		},
		{
			"inputs": [
				{
					"internalType": "string",
					"name": "wallet",
					"type": "string"
				}
			],
			"name": "BittensorWalletInvalidLength",
			"type": "error"
		},
		{
			"inputs": [
				{
					"internalType": "address",
					"name": "implementation",
					"type": "address"
				}
			],
			"name": "ERC1967InvalidImplementation",
			"type": "error"
		},
		{
			"inputs": [],
			"name": "ERC1967NonPayable",
			"type": "error"
		},
		{
			"inputs": [
				{
					"internalType": "address",
					"name": "spender",
					"type": "address"
				},
				{
					"internalType": "uint256",
					"name": "allowance",
					"type": "uint256"
				},
				{
					"internalType": "uint256",
					"name": "needed",
					"type": "uint256"
				}
			],
			"name": "ERC20InsufficientAllowance",
			"type": "error"
		},
		{
			"inputs": [
				{
					"internalType": "address",
					"name": "sender",
					"type": "address"
				},
				{
					"internalType": "uint256",
					"name": "balance",
					"type": "uint256"
				},
				{
					"internalType": "uint256",
					"name": "needed",
					"type": "uint256"
				}
			],
			"name": "ERC20InsufficientBalance",
			"type": "error"
		},
		{
			"inputs": [
				{
					"internalType": "address",
					"name": "approver",
					"type": "address"
				}
			],
			"name": "ERC20InvalidApprover",
			"type": "error"
		},
		{
			"inputs": [
				{
					"internalType": "address",
					"name": "receiver",
					"type": "address"
				}
			],
			"name": "ERC20InvalidReceiver",
			"type": "error"
		},
		{
			"inputs": [
				{
					"internalType": "address",
					"name": "sender",
					"type": "address"
				}
			],
			"name": "ERC20InvalidSender",
			"type": "error"
		},
		{
			"inputs": [
				{
					"internalType": "address",
					"name": "spender",
					"type": "address"
				}
			],
			"name": "ERC20InvalidSpender",
			"type": "error"
		},
		{
			"inputs": [],
			"name": "EnforcedPause",
			"type": "error"
		},
		{
			"inputs": [],
			"name": "ExpectedPause",
			"type": "error"
		},
		{
			"inputs": [],
			"name": "FailedInnerCall",
			"type": "error"
		},
		{
			"inputs": [
				{
					"internalType": "bytes",
					"name": "signature",
					"type": "bytes"
				}
			],
			"name": "IncorrectSignatureSize",
			"type": "error"
		},
		{
			"inputs": [
				{
					"internalType": "string",
					"name": "taoAddr",
					"type": "string"
				}
			],
			"name": "IncorrectTaoAddrSize",
			"type": "error"
		},
		{
			"inputs": [
				{
					"internalType": "uint256",
					"name": "amount",
					"type": "uint256"
				}
			],
			"name": "InsignificantAmountOfTao",
			"type": "error"
		},
		{
			"inputs": [],
			"name": "InvalidInitialization",
			"type": "error"
		},
		{
			"inputs": [
				{
					"internalType": "uint256",
					"name": "value",
					"type": "uint256"
				}
			],
			"name": "InvalidNegativeValue",
			"type": "error"
		},
		{
			"inputs": [
				{
					"internalType": "uint256",
					"name": "value",
					"type": "uint256"
				}
			],
			"name": "InvalidTaxValue",
			"type": "error"
		},
		{
			"inputs": [
				{
					"internalType": "uint256",
					"name": "amount",
					"type": "uint256"
				}
			],
			"name": "NotEnoughSTao",
			"type": "error"
		},
		{
			"inputs": [
				{
					"internalType": "uint256",
					"name": "time",
					"type": "uint256"
				}
			],
			"name": "NotEnoughTimePassed",
			"type": "error"
		},
		{
			"inputs": [],
			"name": "NotInitializing",
			"type": "error"
		},
		{
			"inputs": [],
			"name": "ReentrancyGuardReentrantCall",
			"type": "error"
		},
		{
			"inputs": [],
			"name": "UUPSUnauthorizedCallContext",
			"type": "error"
		},
		{
			"inputs": [
				{
					"internalType": "bytes32",
					"name": "slot",
					"type": "bytes32"
				}
			],
			"name": "UUPSUnsupportedProxiableUUID",
			"type": "error"
		},
		{
			"anonymous": false,
			"inputs": [
				{
					"indexed": true,
					"internalType": "address",
					"name": "owner",
					"type": "address"
				},
				{
					"indexed": true,
					"internalType": "address",
					"name": "spender",
					"type": "address"
				},
				{
					"indexed": false,
					"internalType": "uint256",
					"name": "value",
					"type": "uint256"
				}
			],
			"name": "Approval",
			"type": "event"
		},
		{
			"anonymous": false,
			"inputs": [
				{
					"indexed": false,
					"internalType": "uint64",
					"name": "version",
					"type": "uint64"
				}
			],
			"name": "Initialized",
			"type": "event"
		},
		{
			"anonymous": false,
			"inputs": [
				{
					"indexed": false,
					"internalType": "address",
					"name": "account",
					"type": "address"
				}
			],
			"name": "Paused",
			"type": "event"
		},
		{
			"anonymous": false,
			"inputs": [
				{
					"components": [
						{
							"internalType": "uint256",
							"name": "lastLastRedeemBasisPoints",
							"type": "uint256"
						},
						{
							"internalType": "uint256",
							"name": "lastRedeemBasisPoints",
							"type": "uint256"
						},
						{
							"internalType": "uint256",
							"name": "redeemBasisPoints",
							"type": "uint256"
						},
						{
							"internalType": "uint256",
							"name": "stakeBasisPoints",
							"type": "uint256"
						},
						{
							"internalType": "uint256",
							"name": "updateTime",
							"type": "uint256"
						}
					],
					"indexed": false,
					"internalType": "struct sTAO.PoolBasisPointsStats",
					"name": "latestStats",
					"type": "tuple"
				}
			],
			"name": "PoolBasisPointsUpdated",
			"type": "event"
		},
		{
			"anonymous": false,
			"inputs": [
				{
					"indexed": false,
					"internalType": "uint256",
					"name": "tax",
					"type": "uint256"
				},
				{
					"indexed": false,
					"internalType": "bool",
					"name": "enabled",
					"type": "bool"
				}
			],
			"name": "ProtocolTaxData",
			"type": "event"
		},
		{
			"anonymous": false,
			"inputs": [
				{
					"indexed": true,
					"internalType": "address",
					"name": "from",
					"type": "address"
				},
				{
					"indexed": true,
					"internalType": "address",
					"name": "to",
					"type": "address"
				},
				{
					"indexed": false,
					"internalType": "uint256",
					"name": "amount",
					"type": "uint256"
				}
			],
			"name": "ProtocolVaultTransfer",
			"type": "event"
		},
		{
			"anonymous": false,
			"inputs": [
				{
					"indexed": true,
					"internalType": "address",
					"name": "ethBurner",
					"type": "address"
				},
				{
					"indexed": false,
					"internalType": "uint256",
					"name": "sTaoTotalAmount",
					"type": "uint256"
				},
				{
					"indexed": false,
					"internalType": "uint256",
					"name": "sTaoTaxed",
					"type": "uint256"
				},
				{
					"indexed": false,
					"internalType": "uint256",
					"name": "sTaoBurned",
					"type": "uint256"
				},
				{
					"indexed": false,
					"internalType": "uint256",
					"name": "taoToUser",
					"type": "uint256"
				},
				{
					"components": [
						{
							"internalType": "uint256",
							"name": "blockTime",
							"type": "uint256"
						},
						{
							"internalType": "uint256",
							"name": "blockNumber",
							"type": "uint256"
						},
						{
							"internalType": "uint256",
							"name": "sinceLastPoolUpdate",
							"type": "uint256"
						}
					],
					"indexed": false,
					"internalType": "struct sTAO.BlockTimeData",
					"name": "blockStats",
					"type": "tuple"
				}
			],
			"name": "Redeemed",
			"type": "event"
		},
		{
			"anonymous": false,
			"inputs": [
				{
					"indexed": true,
					"internalType": "bytes32",
					"name": "role",
					"type": "bytes32"
				},
				{
					"indexed": true,
					"internalType": "bytes32",
					"name": "previousAdminRole",
					"type": "bytes32"
				},
				{
					"indexed": true,
					"internalType": "bytes32",
					"name": "newAdminRole",
					"type": "bytes32"
				}
			],
			"name": "RoleAdminChanged",
			"type": "event"
		},
		{
			"anonymous": false,
			"inputs": [
				{
					"indexed": true,
					"internalType": "bytes32",
					"name": "role",
					"type": "bytes32"
				},
				{
					"indexed": true,
					"internalType": "address",
					"name": "account",
					"type": "address"
				},
				{
					"indexed": true,
					"internalType": "address",
					"name": "sender",
					"type": "address"
				}
			],
			"name": "RoleGranted",
			"type": "event"
		},
		{
			"anonymous": false,
			"inputs": [
				{
					"indexed": true,
					"internalType": "bytes32",
					"name": "role",
					"type": "bytes32"
				},
				{
					"indexed": true,
					"internalType": "address",
					"name": "account",
					"type": "address"
				},
				{
					"indexed": true,
					"internalType": "address",
					"name": "sender",
					"type": "address"
				}
			],
			"name": "RoleRevoked",
			"type": "event"
		},
		{
			"anonymous": false,
			"inputs": [
				{
					"indexed": true,
					"internalType": "address",
					"name": "to",
					"type": "address"
				},
				{
					"indexed": false,
					"internalType": "string",
					"name": "bittensorWallet",
					"type": "string"
				},
				{
					"indexed": false,
					"internalType": "uint256",
					"name": "totalAmountStaked",
					"type": "uint256"
				},
				{
					"indexed": false,
					"internalType": "uint256",
					"name": "amountTaxed",
					"type": "uint256"
				},
				{
					"indexed": false,
					"internalType": "uint256",
					"name": "amountToUser",
					"type": "uint256"
				},
				{
					"components": [
						{
							"internalType": "uint256",
							"name": "blockTime",
							"type": "uint256"
						},
						{
							"internalType": "uint256",
							"name": "blockNumber",
							"type": "uint256"
						},
						{
							"internalType": "uint256",
							"name": "sinceLastPoolUpdate",
							"type": "uint256"
						}
					],
					"indexed": false,
					"internalType": "struct sTAO.BlockTimeData",
					"name": "blockStats",
					"type": "tuple"
				}
			],
			"name": "Staked",
			"type": "event"
		},
		{
			"anonymous": false,
			"inputs": [
				{
					"indexed": true,
					"internalType": "address",
					"name": "from",
					"type": "address"
				},
				{
					"indexed": true,
					"internalType": "address",
					"name": "to",
					"type": "address"
				},
				{
					"indexed": false,
					"internalType": "uint256",
					"name": "value",
					"type": "uint256"
				}
			],
			"name": "Transfer",
			"type": "event"
		},
		{
			"anonymous": false,
			"inputs": [
				{
					"indexed": false,
					"internalType": "address",
					"name": "account",
					"type": "address"
				}
			],
			"name": "Unpaused",
			"type": "event"
		},
		{
			"anonymous": false,
			"inputs": [
				{
					"indexed": true,
					"internalType": "address",
					"name": "implementation",
					"type": "address"
				}
			],
			"name": "Upgraded",
			"type": "event"
		},
		{
			"inputs": [],
			"name": "DEFAULT_ADMIN_ROLE",
			"outputs": [
				{
					"internalType": "bytes32",
					"name": "",
					"type": "bytes32"
				}
			],
			"stateMutability": "view",
			"type": "function"
		},
		{
			"inputs": [],
			"name": "MINTER_ROLE",
			"outputs": [
				{
					"internalType": "bytes32",
					"name": "",
					"type": "bytes32"
				}
			],
			"stateMutability": "view",
			"type": "function"
		},
		{
			"inputs": [],
			"name": "PAUSER_ROLE",
			"outputs": [
				{
					"internalType": "bytes32",
					"name": "",
					"type": "bytes32"
				}
			],
			"stateMutability": "view",
			"type": "function"
		},
		{
			"inputs": [],
			"name": "POOL_TAX_ROLE",
			"outputs": [
				{
					"internalType": "bytes32",
					"name": "",
					"type": "bytes32"
				}
			],
			"stateMutability": "view",
			"type": "function"
		},
		{
			"inputs": [],
			"name": "UPGRADER_ROLE",
			"outputs": [
				{
					"internalType": "bytes32",
					"name": "",
					"type": "bytes32"
				}
			],
			"stateMutability": "view",
			"type": "function"
		},
		{
			"inputs": [],
			"name": "UPGRADE_INTERFACE_VERSION",
			"outputs": [
				{
					"internalType": "string",
					"name": "",
					"type": "string"
				}
			],
			"stateMutability": "view",
			"type": "function"
		},
		{
			"inputs": [],
			"name": "VAULT_ROLE",
			"outputs": [
				{
					"internalType": "bytes32",
					"name": "",
					"type": "bytes32"
				}
			],
			"stateMutability": "view",
			"type": "function"
		},
		{
			"inputs": [
				{
					"internalType": "string",
					"name": "_taoAddr",
					"type": "string"
				},
				{
					"internalType": "address",
					"name": "_ethWallet",
					"type": "address"
				},
				{
					"internalType": "bytes",
					"name": "_signature",
					"type": "bytes"
				}
			],
			"name": "addAccount",
			"outputs": [],
			"stateMutability": "nonpayable",
			"type": "function"
		},
		{
			"inputs": [
				{
					"internalType": "address",
					"name": "owner",
					"type": "address"
				},
				{
					"internalType": "address",
					"name": "spender",
					"type": "address"
				}
			],
			"name": "allowance",
			"outputs": [
				{
					"internalType": "uint256",
					"name": "",
					"type": "uint256"
				}
			],
			"stateMutability": "view",
			"type": "function"
		},
		{
			"inputs": [
				{
					"internalType": "uint256",
					"name": "_basisPoints",
					"type": "uint256"
				},
				{
					"internalType": "uint256",
					"name": "_value",
					"type": "uint256"
				}
			],
			"name": "applyBasisPoints",
			"outputs": [
				{
					"internalType": "uint256",
					"name": "",
					"type": "uint256"
				}
			],
			"stateMutability": "pure",
			"type": "function"
		},
		{
			"inputs": [
				{
					"internalType": "address",
					"name": "spender",
					"type": "address"
				},
				{
					"internalType": "uint256",
					"name": "value",
					"type": "uint256"
				}
			],
			"name": "approve",
			"outputs": [
				{
					"internalType": "bool",
					"name": "",
					"type": "bool"
				}
			],
			"stateMutability": "nonpayable",
			"type": "function"
		},
		{
			"inputs": [
				{
					"internalType": "address",
					"name": "account",
					"type": "address"
				}
			],
			"name": "balanceOf",
			"outputs": [
				{
					"internalType": "uint256",
					"name": "",
					"type": "uint256"
				}
			],
			"stateMutability": "view",
			"type": "function"
		},
		{
			"inputs": [
				{
					"internalType": "string",
					"name": "taoAddr",
					"type": "string"
				},
				{
					"internalType": "uint256",
					"name": "",
					"type": "uint256"
				}
			],
			"name": "bitToEth",
			"outputs": [
				{
					"internalType": "address",
					"name": "ethWallet",
					"type": "address"
				},
				{
					"internalType": "bytes",
					"name": "signature",
					"type": "bytes"
				}
			],
			"stateMutability": "view",
			"type": "function"
		},
		{
			"inputs": [
				{
					"internalType": "uint256",
					"name": "_percentage",
					"type": "uint256"
				},
				{
					"internalType": "uint8",
					"name": "_decimals",
					"type": "uint8"
				}
			],
			"name": "calculateBasisPoints",
			"outputs": [
				{
					"internalType": "uint256",
					"name": "",
					"type": "uint256"
				}
			],
			"stateMutability": "pure",
			"type": "function"
		},
		{
			"inputs": [
				{
					"internalType": "uint256",
					"name": "_lastlastReedemBasisPoints",
					"type": "uint256"
				},
				{
					"internalType": "uint256",
					"name": "_lastReedemBasisPoints",
					"type": "uint256"
				},
				{
					"internalType": "uint256",
					"name": "_redeemBasisPoints",
					"type": "uint256"
				}
			],
			"name": "calculateStakingBasisPoints",
			"outputs": [
				{
					"internalType": "uint256",
					"name": "",
					"type": "uint256"
				}
			],
			"stateMutability": "pure",
			"type": "function"
		},
		{
			"inputs": [],
			"name": "decimals",
			"outputs": [
				{
					"internalType": "uint8",
					"name": "",
					"type": "uint8"
				}
			],
			"stateMutability": "view",
			"type": "function"
		},
		{
			"inputs": [
				{
					"internalType": "string",
					"name": "_taoAddr",
					"type": "string"
				}
			],
			"name": "getAllEthKeysForTaoAddress",
			"outputs": [
				{
					"components": [
						{
							"internalType": "address",
							"name": "ethWallet",
							"type": "address"
						},
						{
							"internalType": "bytes",
							"name": "signature",
							"type": "bytes"
						}
					],
					"internalType": "struct sTAO.EthKey[]",
					"name": "",
					"type": "tuple[]"
				}
			],
			"stateMutability": "view",
			"type": "function"
		},
		{
			"inputs": [
				{
					"internalType": "bytes32",
					"name": "role",
					"type": "bytes32"
				}
			],
			"name": "getRoleAdmin",
			"outputs": [
				{
					"internalType": "bytes32",
					"name": "",
					"type": "bytes32"
				}
			],
			"stateMutability": "view",
			"type": "function"
		},
		{
			"inputs": [
				{
					"internalType": "bytes32",
					"name": "role",
					"type": "bytes32"
				},
				{
					"internalType": "address",
					"name": "account",
					"type": "address"
				}
			],
			"name": "grantRole",
			"outputs": [],
			"stateMutability": "nonpayable",
			"type": "function"
		},
		{
			"inputs": [
				{
					"internalType": "bytes32",
					"name": "role",
					"type": "bytes32"
				},
				{
					"internalType": "address",
					"name": "account",
					"type": "address"
				}
			],
			"name": "hasRole",
			"outputs": [
				{
					"internalType": "bool",
					"name": "",
					"type": "bool"
				}
			],
			"stateMutability": "view",
			"type": "function"
		},
		{
			"inputs": [
				{
					"internalType": "address",
					"name": "defaultAdmin",
					"type": "address"
				},
				{
					"internalType": "address",
					"name": "pauser",
					"type": "address"
				},
				{
					"internalType": "address",
					"name": "minter",
					"type": "address"
				},
				{
					"internalType": "address",
					"name": "upgrader",
					"type": "address"
				},
				{
					"internalType": "address",
					"name": "multisigVault",
					"type": "address"
				},
				{
					"internalType": "address",
					"name": "poolTaxRole",
					"type": "address"
				},
				{
					"internalType": "uint256",
					"name": "initialPercentage",
					"type": "uint256"
				},
				{
					"internalType": "uint8",
					"name": "initialPercentageDecimals",
					"type": "uint8"
				}
			],
			"name": "initialize",
			"outputs": [],
			"stateMutability": "nonpayable",
			"type": "function"
		},
		{
			"inputs": [
				{
					"internalType": "uint256",
					"name": "_basisPoints",
					"type": "uint256"
				}
			],
			"name": "inverseBasisPoints",
			"outputs": [
				{
					"internalType": "uint256",
					"name": "",
					"type": "uint256"
				}
			],
			"stateMutability": "pure",
			"type": "function"
		},
		{
			"inputs": [],
			"name": "lastLastRedeemBasisPoints",
			"outputs": [
				{
					"internalType": "uint256",
					"name": "",
					"type": "uint256"
				}
			],
			"stateMutability": "view",
			"type": "function"
		},
		{
			"inputs": [],
			"name": "lastRedeemBasisPoints",
			"outputs": [
				{
					"internalType": "uint256",
					"name": "",
					"type": "uint256"
				}
			],
			"stateMutability": "view",
			"type": "function"
		},
		{
			"inputs": [],
			"name": "name",
			"outputs": [
				{
					"internalType": "string",
					"name": "",
					"type": "string"
				}
			],
			"stateMutability": "view",
			"type": "function"
		},
		{
			"inputs": [],
			"name": "pause",
			"outputs": [],
			"stateMutability": "nonpayable",
			"type": "function"
		},
		{
			"inputs": [],
			"name": "paused",
			"outputs": [
				{
					"internalType": "bool",
					"name": "",
					"type": "bool"
				}
			],
			"stateMutability": "view",
			"type": "function"
		},
		{
			"inputs": [],
			"name": "protocolTax",
			"outputs": [
				{
					"internalType": "uint256",
					"name": "",
					"type": "uint256"
				}
			],
			"stateMutability": "view",
			"type": "function"
		},
		{
			"inputs": [],
			"name": "proxiableUUID",
			"outputs": [
				{
					"internalType": "bytes32",
					"name": "",
					"type": "bytes32"
				}
			],
			"stateMutability": "view",
			"type": "function"
		},
		{
			"inputs": [],
			"name": "redeemBasisPoints",
			"outputs": [
				{
					"internalType": "uint256",
					"name": "",
					"type": "uint256"
				}
			],
			"stateMutability": "view",
			"type": "function"
		},
		{
			"inputs": [
				{
					"internalType": "string",
					"name": "_bittensorWallet",
					"type": "string"
				},
				{
					"internalType": "uint256",
					"name": "_sTaoAmount",
					"type": "uint256"
				}
			],
			"name": "redeemSTao",
			"outputs": [
				{
					"internalType": "uint256",
					"name": "",
					"type": "uint256"
				}
			],
			"stateMutability": "nonpayable",
			"type": "function"
		},
		{
			"inputs": [
				{
					"internalType": "bytes32",
					"name": "role",
					"type": "bytes32"
				},
				{
					"internalType": "address",
					"name": "callerConfirmation",
					"type": "address"
				}
			],
			"name": "renounceRole",
			"outputs": [],
			"stateMutability": "nonpayable",
			"type": "function"
		},
		{
			"inputs": [
				{
					"internalType": "bytes32",
					"name": "role",
					"type": "bytes32"
				},
				{
					"internalType": "address",
					"name": "account",
					"type": "address"
				}
			],
			"name": "revokeRole",
			"outputs": [],
			"stateMutability": "nonpayable",
			"type": "function"
		},
		{
			"inputs": [],
			"name": "sTAOProtcolVault",
			"outputs": [
				{
					"internalType": "address",
					"name": "",
					"type": "address"
				}
			],
			"stateMutability": "view",
			"type": "function"
		},
		{
			"inputs": [
				{
					"internalType": "uint256",
					"name": "_protocolTax",
					"type": "uint256"
				},
				{
					"internalType": "uint8",
					"name": "_protocolDecimals",
					"type": "uint8"
				},
				{
					"internalType": "bool",
					"name": "_taxEnabled",
					"type": "bool"
				}
			],
			"name": "setProtocolTax",
			"outputs": [],
			"stateMutability": "nonpayable",
			"type": "function"
		},
		{
			"inputs": [
				{
					"internalType": "uint256",
					"name": "_protocolTax",
					"type": "uint256"
				},
				{
					"internalType": "uint8",
					"name": "_protocolDecimals",
					"type": "uint8"
				}
			],
			"name": "setProtocolTax",
			"outputs": [],
			"stateMutability": "nonpayable",
			"type": "function"
		},
		{
			"inputs": [
				{
					"internalType": "uint256",
					"name": "_newRedeemPercentage",
					"type": "uint256"
				},
				{
					"internalType": "uint8",
					"name": "_redeemDecimals",
					"type": "uint8"
				}
			],
			"name": "setStakingRedeemingBasisPoints",
			"outputs": [],
			"stateMutability": "nonpayable",
			"type": "function"
		},
		{
			"inputs": [],
			"name": "sinceLastUpdate",
			"outputs": [
				{
					"internalType": "uint256",
					"name": "",
					"type": "uint256"
				}
			],
			"stateMutability": "view",
			"type": "function"
		},
		{
			"inputs": [],
			"name": "stakeBasisPoints",
			"outputs": [
				{
					"internalType": "uint256",
					"name": "",
					"type": "uint256"
				}
			],
			"stateMutability": "view",
			"type": "function"
		},
		{
			"inputs": [
				{
					"internalType": "address",
					"name": "_to",
					"type": "address"
				},
				{
					"internalType": "uint256",
					"name": "_taoAmount",
					"type": "uint256"
				},
				{
					"internalType": "string",
					"name": "_bittensorWallet",
					"type": "string"
				}
			],
			"name": "stakeSTao",
			"outputs": [],
			"stateMutability": "nonpayable",
			"type": "function"
		},
		{
			"inputs": [
				{
					"internalType": "bytes4",
					"name": "interfaceId",
					"type": "bytes4"
				}
			],
			"name": "supportsInterface",
			"outputs": [
				{
					"internalType": "bool",
					"name": "",
					"type": "bool"
				}
			],
			"stateMutability": "view",
			"type": "function"
		},
		{
			"inputs": [],
			"name": "symbol",
			"outputs": [
				{
					"internalType": "string",
					"name": "",
					"type": "string"
				}
			],
			"stateMutability": "view",
			"type": "function"
		},
		{
			"inputs": [],
			"name": "taoPool",
			"outputs": [
				{
					"internalType": "uint256",
					"name": "",
					"type": "uint256"
				}
			],
			"stateMutability": "view",
			"type": "function"
		},
		{
			"inputs": [],
			"name": "taxEnabled",
			"outputs": [
				{
					"internalType": "bool",
					"name": "",
					"type": "bool"
				}
			],
			"stateMutability": "view",
			"type": "function"
		},
		{
			"inputs": [],
			"name": "totalSupply",
			"outputs": [
				{
					"internalType": "uint256",
					"name": "",
					"type": "uint256"
				}
			],
			"stateMutability": "view",
			"type": "function"
		},
		{
			"inputs": [
				{
					"internalType": "address",
					"name": "to",
					"type": "address"
				},
				{
					"internalType": "uint256",
					"name": "value",
					"type": "uint256"
				}
			],
			"name": "transfer",
			"outputs": [
				{
					"internalType": "bool",
					"name": "",
					"type": "bool"
				}
			],
			"stateMutability": "nonpayable",
			"type": "function"
		},
		{
			"inputs": [
				{
					"internalType": "address",
					"name": "from",
					"type": "address"
				},
				{
					"internalType": "address",
					"name": "to",
					"type": "address"
				},
				{
					"internalType": "uint256",
					"name": "value",
					"type": "uint256"
				}
			],
			"name": "transferFrom",
			"outputs": [
				{
					"internalType": "bool",
					"name": "",
					"type": "bool"
				}
			],
			"stateMutability": "nonpayable",
			"type": "function"
		},
		{
			"inputs": [
				{
					"internalType": "address",
					"name": "_newVault",
					"type": "address"
				}
			],
			"name": "transferProtocolVault",
			"outputs": [],
			"stateMutability": "nonpayable",
			"type": "function"
		},
		{
			"inputs": [],
			"name": "unpause",
			"outputs": [],
			"stateMutability": "nonpayable",
			"type": "function"
		},
		{
			"inputs": [
				{
					"internalType": "address",
					"name": "newImplementation",
					"type": "address"
				},
				{
					"internalType": "bytes",
					"name": "data",
					"type": "bytes"
				}
			],
			"name": "upgradeToAndCall",
			"outputs": [],
			"stateMutability": "payable",
			"type": "function"
		}
	]
}